:020000040800F2
:10000000200800203D1100084102000843020008BA
:10001000470200084B0200084F02000800000000E1
:100020000000000000000000000000005302000873
:10003000550200080000000057020008590200089D
:1000400057110008571100085711000857110008F0
:1000500057110008571100085711000857110008E0
:1000600057110008571100085711000857110008D0
:1000700057110008571100085711000857110008C0
:1000800057110008571100085711000857110008B0
:1000900057110008571100085711000857110008A0
:1000A0005711000857110008571100085711000890
:1000B0005711000857110008571100085711000880
:1000C0005711000857110008571100085711000870
:1000D00057110008470B0008571100085711000876
:1000E0005711000857110008571100085711000850
:1000F0005711000857110008571100085711000840
:10010000571100085711000857110008571100082F
:10011000190D0008BB0B0008571100085711000803
:10012000571100085711000857110008571100080F
:1001300000F002F800F045F80AA090E8000C8244B4
:100140008344AAF10107DA4501D100F03AF8AFF291
:10015000090EBAE80F0013F0010F18BFFB1A43F0A5
:1001600001031847BC4F0000DC4F0000103A24BFC9
:1001700078C878C1FAD8520724BF30C830C144BF0C
:1001800004680C607047000000230024002500264E
:10019000103A28BF78C1FBD8520728BF30C148BFEA
:1001A0000B607047642903F06581632903F0AD8219
:1001B000732903F0B282002070471FB51FBD10B530
:1001C00010BD03F03FFB1146FFF7F7FF00F008F802
:1001D00003F05DFB03B4FFF7F2FF03BC00F04AFC41
:1001E00000F0DEFB4FF4A06000F0C8FF4FF41650A3
:1001F00000F05DFC4FF4165000F03FFD4FF4165038
:1002000000F0EAFC00F0C7FD05A003F0C9F800F01B
:100210009BFA07A003F0C4F801E000F081FBFCE7C3
:1002200053797374656D20496E69740D0A0000007E
:100230004465766963657320496E69740D0A000030
:10024000704700BFFEE700BFFEE700BFFEE700BF4C
:10025000FEE7704770477047704700000CB50020FC
:10026000019000906C48006840F480306A49086052
:1002700000BF6948006800F4003000900198401CFD
:100280000190009818B90198B0F5A06FF1D16248BB
:10029000006800F4003010B10120009001E000205F
:1002A00000900098012843D15C48006840F010009D
:1002B0005A4908600846006820F0030008600846B4
:1002C000006840F0020008605348406852494860A6
:1002D0000846406848600846406840F480604860CE
:1002E0000846406820F47C1048600846406840F4A6
:1002F000E81048600846006840F08070086000BF61
:100300004548006800F000700028F9D04248406875
:1003100020F00300404948600846406840F0020071
:10032000486000BF3C48406800F00C000828F9D144
:100330000CBD10B5FFF792FF10BD10B53648006830
:1003400040F00100344908600846406834490840DC
:100350003149486008460068324908402E49086023
:100360000846006820F4802008600846406820F4B1
:10037000FE0048604FF41F008860FFF7DAFF4FF07F
:1003800000602949086010BD10B50021002000223E
:10039000214B5B6803F00C0121B1042906D0082928
:1003A00028D107E0214B224C236027E01F4B204C33
:1003B000236023E0184B5B6803F47010164B5B68F6
:1003C00003F48032022303EB904022B9194B4343DC
:1003D000174C23600DE0104B5B6803F4003323B12E
:1003E000144B4343124C236003E0104B4343104C27
:1003F000236003E00D4B0E4C236000BF00BF064B93
:100400005B68C3F303130C4CE15C094B1B68CB40E6
:10041000074C236010BD0000001002400020024085
:100420000000FFF8FFFFF6FE08ED00E000127A0082
:100430000000002000093D000400002010B5044623
:10044000242C02D10020804908807F480188008840
:10045000401C7D4A10807D484454007824281ED1D9
:100460007A4800794D281AD178484079432816D126
:100470000A2C14D15021764803F0B3F87248028850
:100480007249734803F068F80120714981F85000FF
:1004900000206D490880C8216C4803F0A2F86A4822
:1004A0000088C82802DBC8206749088010BDF8B55D
:1004B0000026674890F85000002860D0002064496A
:1004C00081F8500000BF58E02EB962A1604803F0E7
:1004D0000DF804464FE0641C5EA1204603F006F8C8
:1004E000050048D0072E2ED2DFE806F02D040B11B0
:1004F000181F26002A1B21465548523003F02CF8BD
:1005000022E02A1B2146684603F026F81CE02A1B3D
:1005100021464F485D3003F01FF815E02A1B2146A5
:100520004B48683003F018F80EE02A1B2146484873
:100530006A3003F011F807E02A1B21464448763060
:1005400003F00AF800E000BF00BF2C46012040493C
:1005500081F851009DF80000412803D1012081F865
:10056000780007E09DF80000562803D100203849A4
:1005700081F8780000BF701CC6B2062EA4DDF8BD5D
:1005800010B5FFF794FF002010BD10B5304890F86B
:100590005100002856D000202D4981F851002EA18D
:1005A000304802F0B5FF2A4952312E48083002F097
:1005B000AFFF2C492CA002F0F3FE254890F87800FC
:1005C00000283CD00020224981F8780028A1254845
:1005D00002F09EFF1E495D312248093002F098FF6B
:1005E000204921A002F0DCFE24A11E4802F090FF69
:1005F000174968311B48001D02F08AFF19491AA0EB
:1006000002F0CEFE1FA1174802F082FF10496A31A6
:1006100014480A3002F07CFF124913A002F0C0FE19
:100620001BA1104802F074FF094976310D48001DE6
:1006300002F06EFF0B490CA002F0B2FE02E016A021
:1006400002F0AEFE10BD000014000020D900002012
:10065000600000202C00000055544354696D652C47
:1006600000000000A101002025730D0A0000000019
:100670006C617469747564652C0000004E5F532CC6
:10068000000000006C6F6E6769747564652C000073
:10069000455F572C0000000047505320444154410F
:1006A000206973206E6F742075736566756C6C219C
:1006B0000D0A000038B504466B4602222146772019
:1006C00000F0FBFC9DF801009DF8001040EA0120BD
:1006D00005B2284638BD10B5AA20FFF7EBFF9849B0
:1006E0000880AC20FFF7E6FF96490880AE20FFF7B0
:1006F000E1FF95490880B020FFF7DCFF93490880AF
:10070000B220FFF7D7FF92490880B420FFF7D2FF4D
:1007100090490880B620FFF7CDFF8F490880B820A8
:10072000FFF7C8FF8D490880BA20FFF7C3FF8C4947
:100730000880BC20FFF7BEFF8A490880BE20FFF773
:10074000B9FF8949088010BD10B5FFF7C4FF10BD7F
:1007500010B500243422F421772000F059FCF62152
:10076000772000F032FC044600BF204610BD10B5D3
:100770002E22F421772000F04BFCF620FFF79AFFA1
:100780000446204610BD10B5D021772000F01DFC96
:1007900010BD2DE9F04F8FB081468A466D48008824
:1007A000A9EB00006A4909884843C4136D48B0F9B1
:1007B0000000C0026C49B1F90010214490FBF1F532
:1007C00060190C900C98083000110B900B9804F0F5
:1007D00064F80022654BCDE9060103F0D7FECDE9B0
:1007E000080103F0E5FD624908600C98A0F57A66FF
:1007F0005A48B0F9000070437043C4155148B0F92D
:1008000000007043C51204EB050B4D49B1F900100F
:100810000BEB8101881CC11700EB917189100D91C0
:100820004948B0F900007043441306FB06F000137A
:100830004949B1F90010484305146019801C4FEA7A
:10084000A00B424800880BF500414843C00B0A90BA
:100850000D98AAEB00004CF2503100FB01F8B8F102
:10086000004F05D24FEA48010A98B1FBF0F703E0C8
:100870000A98B8FBF0F04700384604F00EF8002262
:100880003C4BCDE9020103F081FECDE9060138467B
:1008900004F003F80022374BCDE9020103F076FEA5
:1008A000CDE90401DDE9062304F04AF8CDE90801A9
:1008B00003F0C4FF044640F6DE30604304142E48C3
:1008C00078430514601900F6CF6007EB201738460F
:1008D00004F046FB29490860384603F0DEFF002299
:1008E000274BCDE9000103F051FE264A264BCDE906
:1008F000020103F05BF80022244BCDE9040104F06F
:1009000053F90022224BCDE9060104F019F8CDE994
:10091000080103F04DFD1F4908600FB0BDE8F08FDE
:1009200010B5FFF724FF1C490860FFF711FF1B49B2
:1009300008600846016818480068FFF72AFF10BDE4
:10094000180000201A0000201C0000201E000020BB
:10095000200000202200002024000020260000208B
:10096000280000202A0000202C0000200000244045
:10097000380000200000704043E3FFFF3C000020EF
:10098000D0BCF8406C45D9CC955BC83F0000F03F27
:1009900040A5E54040000020340000203000002049
:1009A00010B56FF0040000F098FC2E4800682E4946
:1009B000B0FBF1F02D4908700846007800EB4001CB
:1009C000C1EBC0104FF6FF7101EAC0002849088052
:1009D00010BD0146254A12784A434FF0E0235A6180
:1009E00000229A611A46126942F001021A6100BFA0
:1009F0004FF0E022106900F001021AB100F48032D9
:100A0000002AF5D04FF0E022126922F001024FF0E7
:100A1000E0231A6100229A6170470146144A128845
:100A20004A434FF0E0235A6100229A611A46126944
:100A300042F001021A6100BF4FF0E022106900F09D
:100A400001021AB100F48032002AF5D04FF0E02202
:100A5000126922F001024FF0E0231A6100229A612C
:100A6000704700000000002000127A0044000020BF
:100A700046000020014600BF0020704700BFB84A72
:100A8000128802F04002002AF9D0C2B2B44B1B1DFA
:100A90001A80704704460D4608E04FF4FA70FFF7DD
:100AA000BCFF2A462146AFA002F07AFCF5E710B55C
:100AB00086B00446012144F2040001F072FC4FF4B8
:100AC0000070ADF8140003208DF8160018208DF882
:100AD000170005A9A74800F0B5FC4FF48060ADF8F9
:100AE000140004208DF8170005A9A24800F0AAFC04
:100AF00025208DF8000003208DF801008DF80200FC
:100B000001208DF80300684600F053FB019400209B
:100B1000ADF80800ADF80A00ADF80C00ADF8100013
:100B20000C20ADF80E0001A98D4801F0B6FD0122A0
:100B300040F225518A4801F021FF0121884801F047
:100B4000F0FE06B010BD10B540F22551844802F009
:100B500040FB80B1824802F0F5F8C4B200BF4021EA
:100B6000854802F0A7FA0028F9D02146621CD4B2C9
:100B7000814802F0C0F810BD10B504460BE000BF7C
:100B80004021774802F096FA0028F9D0217874487D
:100B900002F0B1F8641C20780028F0D110BD10B527
:100BA000044600BF40216E4802F084FA0028F9D0C4
:100BB00021466B4802F09FF810BD10B540F2255158
:100BC0006E4802F006FB30B16C4802F0BBF8C4B2CC
:100BD0002046FFF733FC10BD10B586B00446012156
:100BE000080501F007FC0121102001F0DAFB0121CA
:100BF000202001F0D6FB4FF48050ADF81400032004
:100C00008DF8160018208DF8170005A95C4800F033
:100C100019FC0420ADF814008DF8170005A95948F7
:100C200000F010FC35208DF8000004208DF8010044
:100C30008DF8020001208DF80300684600F0B9FA33
:100C400001940020ADF80800ADF80A00ADF80C00E2
:100C5000ADF810000C20ADF80E0001A9474801F0D6
:100C60001CFD012240F22551444801F087FE01217C
:100C7000424801F056FE06B010BD10B586B00446DD
:100C80000121C80401F0B6FB0121102001F089FB0D
:100C90004FF48060ADF8140003208DF81600182082
:100CA0008DF8170005A9364800F0CCFB4FF4006022
:100CB000ADF8140004208DF8170005A9304800F0A5
:100CC000C1FB34208DF8000003208DF801008DF861
:100CD000020001208DF80300684600F06AFA0194D2
:100CE0000020ADF80800ADF80A00ADF80C00ADF832
:100CF00010000C20ADF80E0001A91F4801F0CDFC3A
:100D0000012240F225511C4801F038FE01211A4809
:100D100001F007FE06B010BD10B540F2255116488F
:100D200002F057FA38B1144802F00CF8C4B2214668
:100D300015A002F035FB10BD10B504460BE000BF56
:100D400040210D4802F0B6F90028F9D014F8011B33
:100D5000094801F0D0FF20780028F0D110BD000034
:100D6000003801404572726F723A25730925640D8F
:100D70000A00000000080140004C00400050004004
:100D800000100140001401402563000010B502204E
:100D9000FFF71FFE10BD08B50121082001F001FB7F
:100DA000C020ADF8000010208DF8030003208DF85E
:100DB00002006946DE4800F045FBC021DC4800F037
:100DC00014FD08BD10B5DA48006820F07040D8491D
:100DD00008600846006840F0405008600120D5498E
:100DE0000860D549C1F89801FFF7D0FF0020D1492C
:100DF0000860FFF7CBFF0020CF49C1F8980110BD74
:100E000010B5CB48006820F07040C949086008461A
:100E1000006840F0405008600020C649091F086083
:100E2000C549C1F89C01FFF7B1FF0120C149091F65
:100E30000860C149C1F89C01FFF7A8FF10BD10B5BB
:100E40000024BB48006820F07040B949086008469B
:100E5000006840F0004008600120B6490860FFF7D4
:100E600095FF0120B449C1F89801FFF78FFF07E013
:100E7000601CC4B2FA2C03DDFFF7C2FF012010BDD5
:100E8000AC48803800680028F2D1AA49091F0860E0
:100E900000BFF4E710B50020A649091F0860A44868
:100EA000006820F07040A24908600846006840F0E1
:100EB000405008600020A049C1F89C01FFF766FF80
:100EC00001209C49091F0860FFF760FF00209A4934
:100ED000C1F8980110BD10B500209649091F08609F
:100EE0009348006820F07040914908600846006807
:100EF00040F04050086001208F49C1F89C01FFF785
:100F000045FF01208B49091F0860FFF73FFF0020C4
:100F10008949C1F8980110BD70B50446844800683D
:100F200020F07040824908600846006840F0405058
:100F3000086000207F49091F0860002512E0E009D1
:100F40007C4908606006040E01207B49C1F89801C5
:100F5000FFF71CFF00207749091F0860FFF716FF05
:100F6000681CC5B2082DEADB70BD70B505460024CB
:100F70006F48006820F070406D49086008460068BE
:100F800040F000400860002615E000206949091F74
:100F90000860FFF7FBFE01206749C1F89801600671
:100FA000040E64488038006808B1601CC4B2FFF7C2
:100FB000EDFE701CC6B2082EE7DB15B9FFF78BFFFC
:100FC00001E0FFF767FF204670BD70B504460D468F
:100FD000FFF7F8FEFE2101EA4400FFF79DFFFFF74F
:100FE0002EFF2846FFF798FFFFF729FFFFF7EAFEDD
:100FF000012101EB4401C8B2FFF78EFFFFF71FFF8D
:101000000020FFF7B2FF0646FFF7FAFE304670BD3C
:1010100070B504460D461646FFF7D4FEFE2101EAE0
:101020004400FFF779FFFFF70AFF18B1FFF7E8FE6A
:10103000012070BD2846FFF76FFFFFF700FF304625
:10104000FFF76AFFFFF7FBFE18B1FFF7D9FE01209B
:10105000EFE7FFF7D5FE0020EBE72DE9F04105466D
:101060000E4617469846FFF7ADFE002141EA4501BE
:10107000C8B2FFF751FFFFF7E2FE20B1FFF7C0FE55
:101080000120BDE8F0813046FFF746FFFFF7D7FEAD
:1010900000240CE018F80400FFF73EFFFFF7CFFE36
:1010A00018B1FFF7ADFE0120EBE7601CC4B2BC42F3
:1010B000F0DBFFF7A5FE0020E3E72DE9F04106464F
:1010C0000F4614461D46FFF77DFE002141EA46010A
:1010D000C8B2FFF721FFFFF7B2FE20B1FFF790FE85
:1010E0000120BDE8F0813846FFF716FFFFF7A7FEA5
:1010F000FFF768FE012101EB4601C8B2FFF70CFFC4
:10110000FFF79DFE0DE0012C04D10020FFF72DFF1D
:10111000287003E00120FFF728FF2870601EC4B28A
:101120006D1C002CEFD1FFF76BFE0020D9E700000B
:10113000000C01409C8121420080214209488047E7
:1011400009480047FEE7FEE7FEE7FEE7FEE7FEE7A9
:10115000FEE7FEE7FEE7FEE704480549054A064BC1
:10116000704700003B030008310100082002002006
:1011700020080020200400202004002010B5044690
:10118000B4F5E06F0BD0B4F5C06F08D0B4F5A06F24
:1011900005D0B4F5806F02D0B4F5407F00D103E0F4
:1011A00063215DA0FFF776FC634820436349086034
:1011B00010BD2DE9F0410446002500270F26E078F8
:1011C00010B1E078012800D103E0752152A0FFF7AB
:1011D00061FC6078102800DA03E076214EA0FFF76A
:1011E00059FCA078102800DA03E077214AA0FFF725
:1011F00051FCE07800B35148006800F4E060C0F5AD
:10120000E060050AC5F10407EE40607800FA07F5D2
:10121000A078304005432D01494822788554207834
:1012200000F01F010120884021784911890001F157
:10123000E021C1F8000109E0207800F01F01012041
:10124000884040492278521141F82200BDE8F081DF
:1012500070B504460D46B4F1005F02D0B4F1006FE2
:1012600000D103E09F212CA0FFF714FC36488542F3
:1012700000D203E0A02128A0FFF70CFC334905EAC7
:10128000010020432D49091F086070BD70B5044658
:101290000D46102C03D0042C01D0022C00D103E009
:1012A000B2211DA0FFF7F6FB0DB1012D00D103E027
:1012B000B32119A0FFF7EEFB3DB12048001D0068E7
:1012C00020431E49091D086006E01C48001D0068F7
:1012D000A0431A49091D086070BD10B50446042CCE
:1012E00001D0601D00B903E0CA210BA0FFF7D2FBBB
:1012F000042C08D14FF0E020006940F004004FF0CA
:10130000E021086107E04FF0E020006920F00400D0
:101310004FF0E021086110BD2E2E5C53544D333246
:10132000463130785F46574C69625C7372635C6D1E
:101330006973632E630000000000FA050CED00E005
:1013400000E400E080E100E0FFFF0F0080FFFF1FEE
:1013500010B50446FC48844211D0FC4884420ED0AB
:10136000FB4884420BD0FB48844208D0FA488442B0
:1013700005D0FA48844202D0F948844200D103E003
:101380006F21F8A0FFF786FBEF48844208D10121C6
:10139000042001F058F80021042001F054F846E040
:1013A000EA48844208D10121082001F04CF80021CC
:1013B000082001F048F83AE0E548844208D10121CC
:1013C000102001F040F80021102001F03CF82EE040
:1013D000E048844208D10121202001F034F80021A6
:1013E000202001F030F822E0DB48844208D10121BE
:1013F000402001F028F80021402001F024F816E0F8
:10140000D648844208D10121802001F01CF8002137
:10141000802001F018F80AE0D148844207D1012168
:10142000801501F010F80021A01501F00CF810BD96
:1014300010B50121084601F006F80021012001F055
:1014400002F810BD2DE9F05F05460C464FF000098B
:10145000CA4600260027B046B346BB48854211D095
:10146000BA4885420ED0BA4885420BD0B948854269
:1014700008D0B948854205D0B848854202D0B8485E
:10148000854200D103E0B221B6A0FFF703FBE0786C
:10149000A0B1E078042811D0E07828280ED0E078B8
:1014A00048280BD0E078142808D0E078102805D020
:1014B000E0781C2802D0E078182800D103E0B3219E
:1014C000A8A0FFF7E7FA002010B9208800B103E0D8
:1014D000B421A4A0FFF7DEFAE07800F00F09E0786D
:1014E00000F0100080B1A078012805D0A078022873
:1014F00002D0A078032800D103E0BB2199A0FFF718
:10150000C9FAA07840EA0909207838B3D5F80080F4
:1015100000261FE0012000FA06F7208800EA070AEB
:10152000BA4516D1B7000F2000FA07FB28EA0B08CE
:1015300009FA07F040EA0808E078282803D10120DA
:10154000B040686105E0E078482802D10120B04051
:101550002861761C082EDDD3C5F800802088FF287E
:101560002BDDD5F80480002623E006F108000121D8
:1015700001FA00F7208800EA070ABA4518D1B70037
:101580000F2000FA07FB28EA0B0809FA07F040EAE7
:101590000808E078282803D106F108008140696135
:1015A000E078482804D106F1080001218140296132
:1015B000761C082ED9D3C5F80480BDE8F09F4FF6FD
:1015C000FF710180022181700421C170704770B5E4
:1015D00005460C4600265C48854211D05B48854292
:1015E0000ED05B4885420BD05A48854208D05A48F5
:1015F000854205D05948854202D05948854200D1DC
:1016000004E04FF48F7157A0FFF744FA012C25D066
:10161000022C23D0042C21D0082C1FD0102C1DD03C
:10162000202C1BD0402C19D0802C17D0B4F5807FF3
:1016300014D0B4F5007F11D0B4F5806F0ED0B4F59E
:10164000006F0BD0B4F5805F08D0B4F5005F05D013
:10165000B4F5804F02D0B4F5004F00D104E040F261
:101660001F1140A0FFF716FAA868204008B1012614
:1016700000E00026304670BD10B504463248844272
:1016800011D0324884420ED0314884420BD03148C8
:10169000844208D03048844205D03048844202D089
:1016A0002F48844200D104E04FF49A712DA0FFF737
:1016B000F1F9A06880B210BD70B505460C46002651
:1016C0002148854211D0214885420ED020488542CC
:1016D0000BD02048854208D01F48854205D01F48BE
:1016E000854202D01E48854200D104E04FF4A27129
:1016F0001CA0FFF7CFF9012C25D0022C23D0042CFD
:1017000021D0082C1FD0102C1DD0202C1BD0402CF9
:1017100019D0802C17D0B4F5807F14D0B4F5007F99
:1017200011D0B4F5806F0ED0B4F5006F0BD0B4F5C6
:10173000805F08D0B4F5005F05D0B4F5804F02D0CB
:10174000B4F5004F22D127E000080140000C014011
:10175000001001400014014000180140001C01402D
:10176000002001402E2E5C53544D333246313078E8
:101770005F46574C69625C7372635C73746D33329D
:10178000663130785F6770696F2E630040F24511F3
:10179000AFF23000FFF77EF9E868204008B101267B
:1017A00000E00026304670BD10B50446FE48844275
:1017B00011D0FE4884420ED0FD4884420BD0FD4833
:1017C000844208D0FC48844205D0FC48844202D0C0
:1017D000FB48844200D105E04FF4AD71AFF27C00CC
:1017E000FFF758F9E06880B210BD70B504460D46A9
:1017F000ED48844211D0ED4884420ED0EC4884423A
:101800000BD0EC48844208D0EB48844205D0EB482A
:10181000844202D0EA48844200D105E040F26911D6
:10182000AFF2C000FFF736F9002008B905B105E0B6
:101830004FF4B571AFF2D400FFF72CF9256170BDFC
:1018400070B504460D46D848844211D0D74884422A
:101850000ED0D74884420BD0D648844208D0D64810
:10186000844205D0D548844202D0D548844200D174
:1018700005E040F27911AFF21410FFF70BF90020E8
:1018800008B905B105E04FF4BD71AFF22810FFF7BC
:1018900001F9656170BD70B505460C461646C24833
:1018A000854211D0C14885420ED0C14885420BD037
:1018B000C048854208D0C048854205D0BF4885420F
:1018C00002D0BF48854200D105E040F28D11AFF251
:1018D0006C10FFF7DFF8012C25D0022C23D0042C4C
:1018E00021D0082C1FD0102C1DD0202C1BD0402C18
:1018F00019D0802C17D0B4F5807F14D0B4F5007FB8
:1019000011D0B4F5806F0ED0B4F5006F0BD0B4F5E4
:10191000805F08D0B4F5005F05D0B4F5804F02D0E9
:10192000B4F5004F00D105E04FF4C771AFF2CC1011
:10193000FFF7B0F80EB1012E00D105E040F28F1193
:10194000AFF2E010FFF7A6F80EB12C6100E06C6179
:1019500070BD70B504460D469348844211D093483B
:1019600084420ED0924884420BD09248844208D0E0
:101970009148844205D09148844202D090488442E4
:1019800000D105E04FF4D271AFF22820FFF782F8C2
:10199000E56070BD70B504460D464FF48036824850
:1019A000844211D0814884420ED0814884420BD0B9
:1019B0008048844208D08048844205D07F488442D1
:1019C00002D07F48844200D105E040F2B511AFF269
:1019D0006C20FFF75FF8002008B905B105E04FF46F
:1019E000DB71AFF28020FFF755F82E43A661A561A9
:1019F000A661A669A66970BD70B505460C460026AD
:101A00003DB1012D05D0022D03D0032D01D0042DB1
:101A100000D105E04FF4E971AFF2B820FFF73AF8D2
:101A2000ECB1012C1BD0022C19D0032C17D0042CA4
:101A300015D0052C13D0062C11D0072C0FD0082C54
:101A40000DD0092C0BD00A2C09D00B2C07D00C2C54
:101A500005D00D2C03D00E2C01D00F2C00D105E0A9
:101A600040F2D311AFF20430FFF714F8554806687E
:101A70004FF68070064046EA051626435148066038
:101A800070BD10B504460CB1012C00D105E04FF437
:101A9000F371AFF23030FEF7FDFF4B48C46110BD6B
:101AA0002DE9F04704460E460027B8460025A94612
:101AB000012C77D0022C75D0042C73D0082C71D057
:101AC000424884426ED04148203084426AD0404827
:101AD000844267D03E488030844263D03D4884428F
:101AE00060D03D4884425DD03C4884425AD03C4856
:101AF000844257D03B48844254D0B4F5805F51D0E3
:101B0000B4F5EA1F4ED0B4F5EB1F4BD0B4F5004F3F
:101B100048D03548844245D0401C844242D0801C85
:101B200084427FD0001D84427CD02F480F308442F5
:101B300078D0B4F1201F75D04FEAF030844271D0D4
:101B40002A4884426ED02A4884426BD02948844275
:101B500068D02948844265D02848844262D0B4F5D0
:101B6000011F5FD0264884425CD0401C844259D07B
:101B7000801C844256D0001D844253D020480F3030
:101B800084424FD01E481F3084424BD01C483F3007
:101B9000844247D01A487F30844243D01848FF30EF
:101BA00084422FE03EE0000000080140000C0140AC
:101BB000001001400014014000180140001C0140C9
:101BC00000200140000001400000204210001400ED
:101BD0004000160000011800000218000003180061
:101BE00000081A00000C1A0001002000000130005B
:101BF000000230000004300000112000002020000E
:101C0000010000800ED0664884420BD065488442B3
:101C100008D06548844205D06448844202D06448B4
:101C2000844200D105E040F22A21AFF2C840FEF71D
:101C300031FF0EB1012E00D105E040F22B21AFF2B1
:101C4000DC40FEF727FF04F00040B0F1004F02D166
:101C50005848C56901E057484568C4F30349A7B22D
:101C600004F44010B0F5401F08D125F070655148CC
:101C7000406820F070604F49486013E004F4801021
:101C8000B0F5801F07D1032000FA09F825EA0805FE
:101C900045F0706506E0600D000107FA00F085432D
:101CA00045F0706526B1600D010107FA01F00543AA
:101CB00004F00040B0F1004F02D13E48C56101E0A0
:101CC0003C484560BDE8F08770B505460C460026E7
:101CD0005DB1012D09D0022D07D0032D05D0042DB3
:101CE00003D0052D01D0062D00D105E040F265217D
:101CF000AFF29050FEF7CEFEECB1012C1BD0022CBF
:101D000019D0032C17D0042C15D0052C13D0062C79
:101D100011D0072C0FD0082C0DD0092C0BD00A2C79
:101D200009D00B2C07D00C2C05D00D2C03D00E2C79
:101D300001D00F2C00D105E040F26621AFF2DC505B
:101D4000FEF7A8FEA007010F0F2000FA01F61948C0
:101D50000830A11050F82100B04316490831A210F4
:101D600041F822000846A11050F82100A107090FF0
:101D700005FA01F108430F490831A21041F8220089
:101D800070BD10B504460CB1012C00D105E04FF434
:101D90001E71AFF23060FEF77DFE0748046010BD93
:101DA0000002008000040080000800800010008015
:101DB0000020008000000140DC002042FE48006856
:101DC00040F00100FC49086008464068FB490840B3
:101DD000F949486008460068F9490840F649086032
:101DE0000846006820F4802008600846406820F417
:101DF000FE0048604FF41F008860704710B504462D
:101E00002CB1B4F5803F02D0B4F5802F00D104E0AE
:101E100040F21111EBA0FEF73DFEE748006820F408
:101E20008030E54908600846006820F4802008609A
:101E3000B4F5803F03D0B4F5802F0ED106E0DE4824
:101E4000006840F48030DC49086007E0DA48006848
:101E500040F4A020D849086000E000BF00BF10BDDA
:101E60002DE9F0410446002500260027212C13D03F
:101E7000312C11D0392C0FD0412C0DD0612C0BD02E
:101E80007A2C09D07B2C07D07C2C05D07D2C03D05C
:101E90007E2C01D07F2C00D104E040F23451C9A047
:101EA000FEF7F8FD6511012D02D1C348066806E072
:101EB000022D02D1C048066A01E0BF48466A04F01C
:101EC0001F050120A840304008B1012700E000278D
:101ED0003846BDE8F08138B5002000900024002588
:101EE00000BF3120FFF7BCFF05460098401C009062
:101EF0000098B0F5A06F01D0002DF2D03120FFF78F
:101F0000AFFF08B1012400E00024204638BD70B5C1
:101F1000044600251F2C00DC04E04FF4A971A9A0A1
:101F2000FEF7B8FDA448056825F0F80545EAC405A4
:101F3000056070BD10B504460CB1012C00D104E061
:101F400040F265119FA0FEF7A5FDA848046010BDF2
:101F500070B505460C4600262DB1B5F5803F02D080
:101F6000B5F5403F00D104E040F27F1195A0FEF7A7
:101F700091FD4CB3B4F5802F26D0B4F5002F23D0BB
:101F8000B4F5402F20D0B4F5801F1DD0B4F5A01FAC
:101F90001AD0B4F5C01F17D0B4F5E01F14D0B4F5B3
:101FA000001F11D0B4F5101F0ED0B4F5201F0BD0B8
:101FB000B4F5301F08D0B4F5401F05D0B4F5501F5C
:101FC00002D0B4F5601F00D104E04FF4C0717DA0D1
:101FD000FEF760FD7848466826F47C1645EA040062
:101FE00006437548466070BD10B504460CB1012C1F
:101FF00000D104E04FF4CA7172A0FEF74BFD7B489C
:10200000046610BD70B5044600251CB1012C01D03A
:10201000022C00D104E04FF40E716AA0FEF73AFDE5
:102020006548456825F003052543456070BD624855
:10203000406800F00C00704770B5044600257CB184
:10204000802C0DD0902C0BD0A02C09D0B02C07D018
:10205000C02C05D0D02C03D0E02C01D0F02C00D126
:1020600004E04FF4197157A0FEF714FD524845687B
:1020700025F0F0052543456070BD70B50446002588
:102080005CB1B4F5806F08D0B4F5A06F05D0B4F59D
:10209000C06F02D0B4F5E06F00D104E040F27E21C1
:1020A00048A0FEF7F7FC4448456825F4E065254361
:1020B000456070BD70B5044600255CB1B4F5806F15
:1020C00008D0B4F5A06F05D0B4F5C06F02D0B4F558
:1020D000E06F00D104E04FF426713AA0FEF7DAFC7D
:1020E0003548456825F4605545EAC405456070BD2E
:1020F00070B504460D4604F0E00008B904B104E0F0
:1021000040F2BF212FA0FEF7C5FC0DB1012D00D17B
:1021100004E04FF430712BA0FEF7BCFC2DB1264833
:10212000407A20432449487204E02348407AA0437F
:102130002149487270BD10B504460CB1012C00D184
:1021400004E040F2DB211FA0FEF7A4FC2748D830B2
:10215000046010BD70B50446002544B1B4F5804F4D
:1021600005D0B4F5004F02D0B4F5404F00D104E0E3
:1021700040F2023113A0FEF78DFC0F48456825F4AC
:1021800040452543456070BD10B504461CB1012C87
:1021900001D0042C00D104E04FF4507109A0FEF7E7
:1021A00079FC0020044920310870034981F820009F
:1021B000012C1FD0042C1BE0001002400000FFF88F
:1021C000FFFFF6FE2E2E5C53544D333246313078ED
:1021D0005F46574C69625C7372635C73746D333233
:1021E000663130785F7263632E6300000000424204
:1021F00008D103E00120F449087004E00520F24909
:10220000087000E000BF00BF10BD10B504460CB15F
:10221000012C00D105E040F26131AFF25800FEF729
:1022200039FCEA48046010BD10B50446B4F5807F5F
:1022300005D0B4F5007F02D0B4F5407F00D105E0B1
:1022400040F27231AFF28400FEF724FCDE48203801
:10225000006A2043DC492039086210BD10B50446ED
:102260000CB1012C00D105E04FF46071AFF2AC006D
:10227000FEF710FCD5484438046010BD30B500218D
:10228000002200240023D04D203D6D6805F00C0194
:1022900021B1042905D0082926D105E0CC4D0560DF
:1022A00025E0CB4D056022E0C74D203D6D6805F46B
:1022B0007012C54D203D6D6805F48034022505EB94
:1022C00092421CB9C34D554305600CE0BE4D203D04
:1022D0006D6805F400351DB1BE4D5543056002E043
:1022E000BB4D5543056002E0B94D056000BF00BF1E
:1022F000B54D203D6D6805F0F0010909B64D6B5CE8
:102300000568DD404560B04D203D6D6805F4E06135
:10231000090AB14D6B5C4568DD408560AA4D203DE2
:102320006D6805F46051C90AAB4D6B5C4568DD40D2
:10233000C560A54D203D6D6805F44041890BA74D52
:102340006B5CC568B5FBF3F5056130BD70B504463F
:102350000D4640F2575024EA000008B904B105E0E8
:1023600040F22B41AFF2A410FEF794FB0DB1012D0A
:1023700000D105E040F22C41AFF2B810FEF78AFB25
:102380003DB191482038406920438F492039486148
:1023900006E08D4820384069A0438B4920394861C8
:1023A00070BD70B504460D468D48204008B904B193
:1023B00005E040F24A41AFF2F410FEF76BFB0DB1BD
:1023C000012D00D105E040F24B41AFF20820FEF7AD
:1023D00061FB3DB17C482038806920437A4920392F
:1023E000886106E0784820388069A0437649203922
:1023F000886170BD70B504460D467A48204008B922
:1024000004B105E040F26941AFF24820FEF742FB1B
:102410000DB1012D00D105E040F26A41AFF25C2020
:10242000FEF738FB3DB168482038C0692043664953
:102430002039C86106E064482038C069A043624979
:102440002039C86170BD70B504460D46644820400F
:1024500008B904B105E040F2A441AFF29820FEF7BC
:1024600019FB0DB1012D00D105E040F2A541AFF2FD
:10247000AC20FEF70FFB3DB153482038C068204325
:1024800051492039C86006E04F482038C068A04351
:102490004D492039C86070BD70B504460D4651489D
:1024A000204008B904B105E040F2C341AFF2EC208E
:1024B000FEF7F0FA0DB1012D00D105E040F2C44164
:1024C000AFF20030FEF7E6FA3DB13F482038006930
:1024D00020433D492039086106E03B482038006927
:1024E000A04339492039086170BD10B504460CB1CC
:1024F000012C00D105E04FF49B61AFF23830FEF7BC
:10250000C9FA32484038046010BD10B504460CB119
:10251000012C00D105E040F2E541AFF25830FEF762
:10252000B9FA3148C46410BD10B504463CB1052C5D
:1025300005D0042C03D0062C01D0072C00D105E0D7
:1025400040F20551AFF28430FEF7A4FA1E4820385D
:10255000C47110BD1C482038406A40F080701A4990
:1025600020394862704770B504460025012C09D017
:10257000022C07D0042C05D0082C03D0102C01D03D
:10258000802C00D105E040F27E51AFF2C830FEF75A
:1025900081FA0D4820388068204008B1012500E00C
:1025A0000025284670BD10B5044604F0600008B947
:1025B00004B105E040F2AB51AFF2F830FEF76AFA31
:1025C00001482038847210BD20100240800442422D
:1025D00000127A0000093D004C0000205C00002041
:1025E0000200C0FF003601810000424210B50446DF
:1025F000FE4884420BD0FE48844208D0FD48844205
:1026000005D0FD48844202D0FC48844200D103E05A
:102610008521FBA0FEF73EFAF448844209D101214E
:102620008803FFF710FF00214FF48040FFF70BFFF6
:1026300032E0EF48844209D101214804FFF72CFF22
:1026400000214FF40030FFF727FF25E0E9488442DE
:1026500009D101218804FFF71FFF00214FF48020DA
:10266000FFF71AFF18E0E448844209D10121C804A9
:10267000FFF712FF00214FF40020FFF70DFF0BE0E2
:10268000DE48844208D101210805FFF705FF00213B
:102690004FF48010FFF700FF10BD2DE9F04786B022
:1026A00005460C460026B24600BFB1460027CF487B
:1026B00085420BD0CE48854208D0CE48854205D011
:1026C000CD48854202D0CD48854200D103E0B821F3
:1026D000CBA0FEF7DFF9206820B1D44920688842FA
:1026E00000D203E0B921C6A0FEF7D4F9A08818B142
:1026F000A088B0F5805F00D103E0BA21C0A0FEF74A
:10270000C9F9E08858B1E088B0F5805F07D0E0886B
:10271000B0F5005F03D0E088B0F5405F00D103E082
:10272000BB21B7A0FEF7B6F9208938B12089B0F5F2
:10273000806F03D02089B0F5C06F00D103E0BC21C9
:10274000AFA0FEF7A7F960894FF6F371084010B902
:10275000608900B103E0BD21A9A0FEF79BF9A08923
:1027600058B1A089B0F5807F07D0A089B0F5007F6F
:1027700003D0A089B0F5407F00D103E0BE21A0A026
:10278000FEF788F9A08968B19848854205D0984835
:10279000854202D09748854200D103E0C22198A02B
:1027A000FEF778F92F462E8A4CF6FF700640E08837
:1027B00006432E82AE894EF6F3100640A08821898A
:1027C0000843618908430643AE81AE8A4FF6FF4055
:1027D0000640A0890643AE8201A8FFF74FFD83485B
:1027E000874202D1DDF810A001E0DDF80CA0A88935
:1027F00000F4004040B10AEBCA0000EB0A10216867
:102800004900B0FBF1F807E00AEBCA0000EB0A1040
:1028100021688900B0FBF1F86420B8FBF0F00601F4
:102820003009642101FB1089A88900F4004040B1FF
:10283000322000EBC900B0FBF1F000F007000643C6
:1028400008E0322000EB09106421B0FBF1F000F049
:102850000F0006432E8106B0BDE8F0874FF41651F5
:10286000016000218180C18001810C214181002112
:102870008181704770B505460C4600265B4885424D
:1028800005D05B48854202D05A48854200D104E019
:102890004FF499715AA0FEF7FDF8208818B12088EE
:1028A000B0F5006F00D104E040F2331154A0FEF700
:1028B000F1F8608818B16088B0F5806F00D104E04D
:1028C0004FF49A714EA0FEF7E5F8A08818B1A088E1
:1028D000B0F5007F00D104E040F2351148A0FEF7CA
:1028E000D9F8E08818B1E088B0F5807F00D104E025
:1028F0004FF49B7142A0FEF7CDF82E8A4FF2FF00F5
:102900000640208861880843A1880843E18808437D
:1029100006432E8270BD0021018041808180C180EC
:10292000704770B504460D46304884420BD030489D
:10293000844208D02F48844205D02F48844202D0D8
:102940002E48844200D104E04FF4B1712CA0FEF770
:10295000A1F80DB1012D00D104E040F2631128A0CF
:10296000FEF798F825B1A08940F40050A08104E05A
:10297000A0894DF6FF710840A08170BD2DE9F04798
:1029800005460C4617464FF00008C246C1460026D1
:10299000164885420BD01648854208D01548854216
:1029A00005D01548854202D01448854200D104E084
:1029B00040F2891112A0FEF76DF8282C3CD040F2AD
:1029C0002770844238D040F22660844234D040F2EE
:1029D0002550844230D040F2244084422CD040F62E
:1029E0004600844228D040F66A1021E000380140B9
:1029F0000044004000480040004C004000500040AF
:102A00002E2E5C53544D3332463130785F46574C4E
:102A100069625C7372635C73746D333266313078F3
:102A20005F75736172742E630000000021AA440078
:102A3000844201D0602C00D105E04FF4C571AFF2A3
:102A40004000FEF727F80FB1012F00D105E040F25A
:102A50008B11AFF25400FEF71DF840F66A10844265
:102A60000FD1F948854205D0F848854202D0F84890
:102A7000854200D105E040F28F11AFF27C00FEF7F5
:102A800009F82E46C4F3421804F01F0A012000FA88
:102A90000AF9B8F1010F01D10C3605E0B8F1020FC7
:102AA00001D1103600E0143627B1306840EA090041
:102AB000306003E0306820EA09003060BDE8F0874C
:102AC00070B504460D461646DF4884420BD0DF48F9
:102AD000844208D0DE48844205D0DE48844202D0D9
:102AE000DD48844200D105E040F2C311AFF2F000AE
:102AF000FDF7D0FF4FF63F70284008B905B105E05B
:102B00004FF4E271AFF20810FDF7C4FF0EB1012ED1
:102B100000D105E040F2C511AFF21C10FDF7BAFF7D
:102B20001EB1A08A2843A08202E0A08AA843A08206
:102B300070BD70B504460D46C34884420BD0C348EF
:102B4000844208D0C248844205D0C248844202D0A0
:102B5000C148844200D105E040F2DF11AFF26010BD
:102B6000FDF798FF0F2D00DC05E04FF4F071AFF298
:102B70007010FDF78FFF208A4FF6F0710840208219
:102B8000208A2843208270BD70B504460D46AE48A9
:102B900084420BD0AD48844208D0AD48844205D071
:102BA000AC48844202D0AC48844200D105E04FF4E6
:102BB000FB71AFF2B410FDF76DFF15B1B5F5006F05
:102BC00000D105E040F2F711AFF2CC10FDF762FF43
:102BD000A0894FF2FF710840A081A0892843A081FD
:102BE00070BD70B504460D46974884420BD0974897
:102BF000844208D09648844205D09648844202D048
:102C00009548844200D105E040F20921AFF210203E
:102C1000FDF740FF0DB1012D00D105E040F20A2182
:102C2000AFF22420FDF736FF25B1A08940F0020065
:102C3000A08104E0A0894FF6FD710840A08170BD1D
:102C400070B504460D46804884420BD07F488442CC
:102C500008D07F48844205D07E48844202D07E4816
:102C6000844200D105E040F22621AFF26C20FDF74E
:102C700011FF0DB1202D00D105E040F22721AFF268
:102C80008020FDF707FF208A4FF6DF710840208281
:102C9000208A2843208270BD70B504460D466A48DC
:102CA00084420BD06948844208D06948844205D0E8
:102CB0006848844202D06848844200D105E040F26E
:102CC0003921AFF2C420FDF7E5FE0DB1012D00D191
:102CD00005E040F23A21AFF2D820FDF7DBFE25B146
:102CE000208A40F48040208204E0208A4BF6FF7165
:102CF0000840208270BD70B504460D46524884429B
:102D00000BD05248844208D05148844205D05148E3
:102D1000844202D05048844200D105E040F2532161
:102D2000AFF22430FDF7B6FEB5F5007F00DA05E01E
:102D30004FF41571AFF23830FDF7ACFEC5F3080063
:102D4000A08070BD10B504463F4884420BD03F4878
:102D5000844208D03E48844205D03E48844202D096
:102D60003D48844200D105E04FF41971AFF2703054
:102D7000FDF790FEA088C0F3080010BD10B5044612
:102D8000314884420BD03148844208D030488442D4
:102D900005D03048844202D02F48844200D105E05B
:102DA0004FF41D71AFF2A830FDF774FEA08940F01A
:102DB0000100A08110BD70B504460D462248844232
:102DC00005D02248844202D02148844200D105E047
:102DD0004FF42171AFF2D830FDF75CFE208BC0B20A
:102DE0002083208B40EA0520208370BD70B5044607
:102DF0000D46154884420BD01448844208D014482C
:102E0000844205D01348844202D01348844200D142
:102E100005E04FF42671AFF21840FDF73BFE208B22
:102E200000F47F402083208B2843208370BD70B541
:102E300004460D460448844205D00448844202D02A
:102E4000034884420AD10FE00038014000440040AA
:102E500000480040004C00400050004040F2AB21D0
:102E6000AFF26440FDF716FE0DB1012D00D105E073
:102E70004FF42B71AFF27840FDF70CFE25B1A08A1C
:102E800040F02000A08204E0A08A4FF6DF710840E5
:102E9000A08270BD70B504460D46F948844205D045
:102EA000F848844202D0F848844200D105E04FF44B
:102EB0003171AFF2B440FDF7EDFD0DB1012D00D140
:102EC00005E040F2C521AFF2C840FDF7E3FD25B1B2
:102ED000A08A40F01000A08204E0A08A4FF6EF71B3
:102EE0000840A08270BD70B504460D46E448844297
:102EF0000BD0E448844208D0E348844205D0E3483C
:102F0000844202D0E248844200D105E040F2DE2152
:102F1000AFF21450FDF7BEFD0DB1012D00D105E05B
:102F200040F2DF21AFF22850FDF7B4FD25B1A08AB1
:102F300040F00800A08204E0A08A4FF6F771084034
:102F4000A08270BD70B504460D46CD4884420BD0BA
:102F5000CC48844208D0CC48844205D0CB48844237
:102F600002D0CB48844200D105E040F2FD21AFF20F
:102F70007050FDF78FFD0DB1012D00D105E040F23D
:102F8000FE21AFF28450FDF785FD25B1A08940F404
:102F90000040A08103E0A089C0F30E00A08170BDB5
:102FA00070B504460D46B64884420BD0B5488442FD
:102FB00008D0B548844205D0B448844202D0B44811
:102FC000844200D105E04FF44671AFF2CC50FDF7DA
:102FD00061FD0DB1012D00D105E040F21931AFF2D4
:102FE000E050FDF757FD25B1A08A40F40060A082B3
:102FF00004E0A08A4FF2FF710840A08270BD70B556
:1030000004460D469E4884420BD09E48844208D018
:103010009D48844205D09D48844202D09C48844209
:1030200000D105E040F23531AFF22C60FDF732FD02
:10303000042D00D005B905E040F23631AFF2406012
:10304000FDF728FDA08A4FF6FB710840A082A08AF8
:103050002843A08270BD70B504460D46884884425E
:103060000BD08848844208D08748844205D08748DE
:10307000844202D08648844200D105E04FF4527168
:10308000AFF28460FDF706FD0DB1012D00D105E022
:1030900040F24931AFF29860FDF7FCFC25B1A08AFF
:1030A00040F00200A08204E0A08A4FF6FD710840C3
:1030B000A08270BD70B505460C460026704885425A
:1030C0000BD07048854208D06F48854205D06F48C4
:1030D000854202D06E48854200D105E040F26E3153
:1030E000AFF2E460FDF7D6FC012C13D0802C11D098
:1030F000402C0FD0202C0DD0102C0BD0B4F5807F9D
:1031000008D0B4F5007F05D0082C03D0042C01D0E2
:10311000022C00D105E040F26F31AFF21C70FDF7D8
:10312000B9FCB4F5007F0FD15548854205D055480C
:10313000854202D05448854200D105E040F2733107
:10314000AFF24470FDF7A6FC2888204008B10126A4
:1031500000E00026304670BD70B504460D46484874
:1031600084420BD04748844208D04748844205D067
:103170004648844202D04648844200D105E040F2ED
:103180009E31AFF28470FDF785FC4FF69F402840DA
:1031900008B905B105E040F29F31AFF29C70FDF730
:1031A00079FC05F40070B0F5007F0FD134488442FB
:1031B00005D03448844202D03348844200D105E02F
:1031C00040F2A331AFF2C870FDF764FCE843208001
:1031D00070BD2DE9F04705460C4600270026B04695
:1031E000B146274885420BD02648854208D026485C
:1031F000854205D02548854202D02548854200D128
:1032000005E040F2C131AFF60800FDF743FC282C81
:1032100020D040F2277084421CD040F226608442C5
:1032200018D040F22550844214D040F22440844209
:1032300010D040F6460084420CD040F66A1084421A
:1032400008D0B4F5587F05D0B4F5187F02D0B4F596
:10325000B07F00D105E040F2C231AFF65C00FDF76F
:1032600019FC40F66A1084421AD10548854205D0FF
:103270000448854202D0044885420BD110E000008A
:10328000003801400044004000480040004C00402D
:103290000050004040F2C631AFF69C00FDF7FAFB4B
:1032A000C4F3421804F01F06012000FA06F6B8F134
:1032B000010F02D1A889064007E0B8F1020F02D140
:1032C000288A064001E0A88A06402712012000FA59
:1032D00007F7288807401EB117B14FF0010901E038
:1032E0004FF000094846BDE8F0872DE9F04104465B
:1032F0000D4600260027244884420BD023488442F0
:1033000008D02348844205D02248844202D0224873
:10331000844200D105E040F20A41AFF61C10FDF7EF
:10332000B9FB40F2266085420BD040F22550854221
:1033300007D040F64600854203D040F66A10854229
:1033400000D105E040F20B41AFF64C10FDF7A2FBB7
:1033500040F66A1085420FD10B48844205D00B48D5
:10336000844202D00A48844200D105E040F20F4175
:10337000AFF67410FDF78EFB2E120120B04087B21D
:10338000F8432080BDE8F08100380140004400404F
:1033900000480040004C00400050004070470000D2
:1033A0000FB4044910B503AA029800F0BBF910BC91
:1033B0005DF814FB480000202DE9F0410E4604465C
:1033C000002020622046E168884730B3252805D0D8
:1033D000D4E901219047206A401CF2E7E1682046C9
:1033E00000278847050018D0A5F14100192802D808
:1033F00020354FF400673246294620462760FCF707
:10340000D1FE40B1012804D0F61D26F0070608368B
:10341000D8E7361DD6E72846DAE7206ABDE8F0810E
:1034200070B50C460546012A05D02878800600D5DF
:10343000EA69002302E0012305E05B1C934202D20B
:10344000E05C0028F9D1A869E618C01AA861286ACA
:10345000184428622846AFF3008004E0D5E9012132
:1034600014F8010B9047B442F8D32846AFF300801C
:1034700070BD00002DE9F041064600241068752952
:10348000314616A510D0AFF30080002802DA404282
:1034900013A507E031688A0701D512A502E04907A4
:1034A00004D511A5012401E0AFF3008000210A2218
:1034B00006F1240709E0B0FBF2FCB0FBF2F302FBDB
:1034C0001C00303078541846491C0028F3D123469C
:1034D0002A463046BDE8F04100F0B4B800000000D4
:1034E0002D0000002B0000002000000030B5054634
:1034F0000B462A4613F8014B12F8010B08B1A04203
:10350000F8D01CB1002802D06D1CF1E7284630BD70
:1035100040EA0103024630B59B0710D14FF0013459
:1035200000E008C208C91D1B9D4315EAC41FF8D05E
:1035300013F0FF0102F8011B0DD01B0AF8E711F888
:10354000013B002B02F8013B05D011F8013B002B99
:1035500002F8013BF3D130BD032A40F2308010F075
:10356000030C00F0158011F8013BBCF1020F62441E
:1035700098BF11F801CB00F8013B38BF11F8013BAF
:10358000A2F1040298BF00F801CB38BF00F8013B5C
:1035900011F0030300F0D880083AC0F0088051F819
:1035A000043B083A51F804CBA0E80810F5E7121DD7
:1035B0005CBF51F8043B40F8043BAFF30080D207F6
:1035C00024BF11F8013B11F801CB48BF11F8012BC2
:1035D00024BF00F8013B00F801CB48BF00F8012BE5
:1035E00070474FF000020429C0F0128010F0030C65
:1035F00000F0DE80CCF1040CBCF1020F18BF00F823
:10360000012BA8BF20F8022BA1EB0C0100F0D0B8D1
:103610005FEAC17C24BF00F8012B00F8012B48BFF2
:1036200000F8012B7047704770477047704710B51E
:1036300000F0E4F8006810BD10B5044600F0DEF8B4
:10364000046010BD2DE9F0470D46994692460446A8
:1036500000F124080168880604D5E06921F0100112
:10366000216000E00120A84201DD471B00E00027A7
:10367000A1697A1902EB0900081AA0612078C00636
:1036800002D42046AFF30080002608E0D4E90121EF
:103690001AF806009047206A401C761C20624E45AE
:1036A000F4DB2078C0060AD52046AFF3008006E0A0
:1036B000D4E9012130209047206A401C2062381E46
:1036C000A7F10107F4DC07E0D4E9012118F80500AF
:1036D0009047206A401C2062281EA5F10105F3DCFA
:1036E0002046AFF300802078000602D50220BDE816
:1036F000F0870120FBE710B5436913B1AFF30080F9
:1037000001E0FFF78DFE012010BD127800F12401C9
:103710000A7000224A700122EDE711684FF0FF3273
:10372000E9E70000074B70B50D467B4400F06FF8E9
:103730000446284600F07EF810B14FF0FF3070BD0F
:10374000204670BD4FD3FFFF10B5203AC0F00B806C
:10375000B1E81850203AA0E81850B1E81850A0E895
:103760001850BFF4F5AF5FEA027C24BFB1E81850EF
:10377000A0E8185044BF18C918C0BDE810405FEA5F
:10378000827C24BF51F8043B40F8043B08BF7047DB
:10379000D20728BF31F8023B48BF11F8012B28BFE0
:1037A00020F8023B48BF00F8012B70474FF00002A1
:1037B00000B5134694469646203922BFA0E80C5027
:1037C000A0E80C50B1F12001BFF4F7AF090728BF02
:1037D000A0E80C5048BF0CC05DF804EB890028BF7E
:1037E00040F8042B08BF704748BF20F8022B11F0A7
:1037F000804F18BF00F8012B704700000048704749
:10380000C001002001694A1C02610878704700B5B8
:103810008FB0CDE901310021059105497944CDE909
:10382000031011466846FFF7C7FD0FB000BD00004A
:10383000E5FFFFFF007B00F0800070470048704705
:10384000C00100207546FFF7F9FFAE460500694646
:10385000534620F00700854618B020B5FDF77CFCE4
:10386000BDE820404FF000064FF000074FF0000881
:103870004FF0000B21F00701AC46ACE8C009ACE802
:10388000C009ACE8C009ACE8C0098D4670470446E1
:10389000AFF300802046FCF79DFC490050EAC120B0
:1038A00018BF04204A0D18BF40F0010040F2FF721B
:1038B000B2EB515F08BF40F00200012808BF0520AD
:1038C00070472DE9F0414F1E00EBC7010446D1E9D6
:1038D000000115461E4637F006020DD02A46334633
:1038E00001F02EF87F1E04EBC703D3E9002300F09C
:1038F00091FD37F00602F1D1022F25D0042F13D00D
:10390000062F18BFBDE8F0812A46334601F018F8AB
:10391000D4E90A2300F07EFD2A46334601F010F870
:10392000D4E9082300F076FD2A46334601F008F872
:10393000D4E9062300F06EFD2A46334601F000F874
:10394000D4E9042300F066FD2A46334600F0F8FF70
:10395000D4E9022300F05EFD2A46334600F0F0FF72
:10396000D4E90023BDE8F04100F054BD0022134625
:103970001046014900F00ABE0000F03F00F04ABDC9
:10398000002213461046114600F000BE40F20132FC
:1039900000204FF0E04101F032BB0000024A00205D
:1039A000110701F02CBB000001FDFFFF2DE9F04DD8
:1039B00016460F4694B01C4621F0004123F0004209
:1039C000002814BF4FF0010C4FF0000C0CEB470C1B
:1039D000FE4B0CEB03054FEA630C65452BD335001A
:1039E00018BF012505EB44051D44F94B9D4222D328
:1039F000F84B52EA060C02D09F4205D148B914B0E8
:103A000000201946BDE8F08D002808BF4FF0000CDB
:103A100001D04FF0010C0CEB470313F5001F0AD83F
:103A2000002E14BF4FF0010C4FF0000C0CEB4403C0
:103A300013F5001F07D914B0324623463946BDE8B6
:103A4000F04DFFF79BBFDFF890834FF0000A002F87
:103A5000B8BF424523DAE14B9A42A8BF4FF0020AB1
:103A60001DDADC4B93421ADCDD4B03EB2253142BA3
:103A700008DDC3F1340C26FA0CF303FA0CFCB44550
:103A80000DD108E05EB9C3F1140C22FA0CF303FA6D
:103A90000CFC944503D103F00103C3F1020A51EA7F
:103AA00000031BD1002C19DA002F18BFBAF1020F46
:103AB00002D0BAF1010F07D00220FFF7BDFD14B00C
:103AC000BDE8F04DFFF752BF0220FFF7B5FDFFF74D
:103AD0004DFF14B081F00041BDE8F08D330070D18E
:103AE000424525D107F1804212F5801201BF00281E
:103AF0000020B84914B008BFBDE8F08DB548884231
:103B000007DC002CA1BF1846214614B0BDE8F08D9B
:103B100007E0002CBFBF184684F0004114B0BDE898
:103B2000F08DB0497944D1E9000114B0BDE8F08DC1
:103B3000DFF8A0C262452AD1002C24DA39B1414510
:103B400017D1002804BF002002461CD106E040B176
:103B50000220FFF771FDFFF719FF0A46394600F012
:103B6000D7BA9D4A394614B0002062F31E01BDE861
:103B7000F08D08DA14B03B46BDE8F04D0246002057
:103B8000614600F003BD14B03946BDE8F08D4145F3
:103B900017DAB4F1804F0CD0A4F10053B3F1FF5306
:103BA0000FD13B1E0DDB14B01946BDE8F04D00F0FF
:103BB000D9BB3B4614B00246BDE8F04D194600F0B3
:103BC000BFBE050027F000433AD1E1B1414537D1EE
:103BD000002F06DD002CA1BF0020414614B0BDE837
:103BE000F08D002F01DD002C1FDB002F16DA002CDA
:103BF00014DBBAF1010F4FF0000014BF76497A4987
:103C000014B0BDE8F08DBAF1020F18BF002F0CD030
:103C1000BAF1010F09D1002F07DA0BE0002FB8BF6E
:103C2000002C0DDABAF1010F04D0002014B00146C7
:103C3000BDE8F08D14B000204FF00041BDE8F08DDC
:103C40004FF0010808EBE77CCDF814C05CEA0A0CE1
:103C50000DD0DFF898C162457EDDDFF894C1654B79
:103C6000624512DD8B420ADB002C18DB23E00120C9
:103C7000FFF7E2FC14B0BDE8F04DFFF781BE554AF6
:103C80008A4202DC002C0ADC15E0994202DA002CA0
:103C900011DA04E04F4B994219DD002C0BDD0220B4
:103CA000FFF7CAFCFFF772FE4B4A14B061F31E0225
:103CB0001146BDE8F08D0220FFF7BEFCFFF76EFE57
:103CC000444A14B061F31E021146BDE8F08D002293
:103CD000394601F05BF807460D466FF0010201F02E
:103CE0008EF94FF05532444B00F05EFF3A462B46BA
:103CF00000F026FE0022414B00F056FF80468B4626
:103D00003A462B461046194600F01AFE42465B46DC
:103D100000F016FE88460E904FF0C042384B3846F1
:103D2000294600F00DFE83460091364A344B414649
:103D30000E9800F005FE80460191334A334B384619
:103D4000294600F0FDFD4246019B01F01FF80D469B
:103D500002460B460C9000E011E05846009900F036
:103D600059FB002788465A463846009B01F00EF85A
:103D70002B460C9A00F018FF024600F079B900209B
:103D8000B1F5801F07DA35222846194601F037F9C8
:103D900005466FF0340000EB2150A0F2FF30019097
:103DA000C1F3130040F07F6141F040510291184986
:103DB0008842D8BF4FF0000B35DD16498142C8BF9D
:103DC0004FF0010B2FDC4FF0000B25E0FFFF1F0031
:103DD000FFFF0F000000F03F0000F07F00004043B5
:103DE00001FCFFFFF01500000000F0FF0000E041C3
:103DF0000000F043FFFFEF3F5555D53F0000E03F87
:103E00004715F73FFE822B6544DF5DF80BAE543E4D
:103E10008E9803007AB60B000198401C019002981E
:103E2000A0F580100290FF480299784400EBCB0087
:103E30000991D0E9002328460B93129200F0A6FFC7
:103E400000910A9028460B9B129A099900F0E2FA19
:103E500002460B460020F44900F098FBCDE90C0126
:103E60000B46024600990A9800F06AFD0690EF485A
:103E70008846002778440299006810904FF000505F
:103E800040EA610000EB8B4000F5002102910B9BA2
:103E9000129A109800F07AFF2A46099B00F084FEDF
:103EA0003A46434600F04CFD089112903846414690
:103EB000029B109A00F044FD009B0A9A00F074FEE9
:103EC000089B129A00F062FFDDE90C2300F038FD38
:103ED0000B91069A129043461046194600F030FDA9
:103EE00005460246D2480B460A9106217844FFF760
:103EF000E8FC0A9B2A46089102901046194600F0F9
:103F00001FFD089B029A00F01BFD054609914346E0
:103F100038461946069A00F07DFA0B9B129A00F07B
:103F20000FFD2A46099B00F075FACDE908013A46D3
:103F300043461046194600F003FD0A910022BD4B8E
:103F4000009000F067FADDE9082300F063FA0D46FF
:103F50003A46B84B384600F019FF0A9B009A00F029
:103F600015FFDDE9082300F01FFECDE908013A4600
:103F70002B461046414600F0E3FC00910A90DDE933
:103F800008014346069A00F0DBFC069088462B4663
:103F90003A460B99129800F0D3FC4346069A00F07B
:103FA00039FA80460B4602460D9100990A9800F0B6
:103FB00031FA00200F460546009B0A9A00F0E6FE03
:103FC00042460D9B00F0F0FD88460E904FF0604297
:103FD000994B2846394600F0B3FC02910090974A6D
:103FE000954B41460E9800F0ABFC80460391944AF5
:103FF000944B2846394600F0A3FC4246039B00F050
:1040000009FA914A7A4402EBCB03D3E9002300F08A
:1040100001FA05460791019800F03FFC0C900391CE
:104020002A46079B0299009800F0F4F9874A7A44DF
:1040300002EBCB03D3E900239346019300F0EAF9A6
:10404000039B0C9A00F0E6F9002788463846039B4C
:104050000C9A00F09BFE5A46019B00F097FE029BD3
:10406000009A00F093FE2A46079B00F09DFD024651
:104070000020069005986C4DAAF10103184301D168
:10408000734D069000200B4604903046214600F008
:1040900057FC82468B46234630461946049A00F068
:1040A00075FE3A46434600F04BFC52465B4600F034
:1040B000B1F906468A463A4643462146049800F03E
:1040C0003FFC04460F463246534600F0A3F9614ACE
:1040D0008B46914221DBABEB020353EA000210D185
:1040E00022463B4600F052FE804603915A4A5B4B03
:1040F0003046514600F08EF94246039B00F01EFD0B
:1041000027D20220FFF798FAFFF740FC0A4629461B
:1041100014B062F31E01BDE8F08D514B2BF000424C
:104120009A4216D34F4A0BEB020353EA000208D11E
:1041300022463B4600F02AFE3246534600F0FEFC83
:1041400007D80220FFF778FAFFF728FC0A4629462D
:10415000DEE72BF000404449444A01EB20514FF088
:104160000008824223DA481C4FF4801121FA00F043
:1041700058443F4AC0F30A517A443E4BA1F2FF3102
:10418000CB4020EA0303C0F3130040F4801CC1F1CC
:10419000140012682CFA00F8BBF1000FB8BFC8F188
:1041A00000082046394600F0F1FD04460F4622463D
:1041B0003B463046514600F02DF94FF0000B5A4671
:1041C0002D4B5846039100F0BBFB00910A902B4AFF
:1041D0002B4B5846039900F0B3FB04910290224602
:1041E0003B465846039900F0D1FD3246534600F055
:1041F000DBFC244A244B00F0A3FB049B029A00F052
:1042000009F907468A46009B0A9A00F003F904461A
:104210000E46009B0A9A00F0B9FD3A46534600F05C
:10422000C3FC33E0621200000000F03FA012000067
:10423000D01100000000084009C7EE3FFD033ADC42
:10424000F5015B14E02F3EBEA81000006E100000C8
:104250000000F0BF00009040FE822B654715973CA0
:1042600000CC904000346F3F01FCFFFF0000E03FB6
:104270009C0F0000FFFF0F00432EE63F396CA80C97
:10428000615C20BEEF39FAFE422EE63F0746224629
:1042900033460F911046194600F052FB8346024602
:1042A0002E488A460B4605217844FFF70AFB5A46FA
:1042B000534600F045FB2246334600F075FC82462B
:1042C0008B463A46204631460F9B00F039FB3A4672
:1042D0000F9B00F09FF80F460A9000224FF080439A
:1042E0005046594600F052FD0391009052465B46FD
:1042F0002046314600F024FB039B009A00F046F96B
:104300003B460A9A00F042FD2246334600F03EFD4D
:104310000022134B00F048FC0E46044601EB085106
:104320000815002810DC42462046314600F067FEA2
:10433000FFF7B3FA042808BFFFF730FB42462046D8
:10434000314600F05CFE044606980B4614B0224647
:104350002946BDE8F04D00F0F3BA0000440E00001D
:104360000000F03F2DE9F04106460F4600F028FC22
:1043700004000D4618BF0120284320F00040C0F182
:104380007F6000F1E040C00F0ED0301C18BF01204C
:10439000384320F00040C0F17F6000F1E040C00FE2
:1043A00004BF0120FFF748F920462946BDE8F08107
:1043B00021F00042A2F16052B2F5801F01F00043EB
:1043C00028BFD2F17F6C0BD95FEA001C43EAC2021E
:1043D00042EB507018BF704728BF20F001007047B3
:1043E000B2F5801FBCBF184670474FEA410C1CF560
:1043F000001F02D2084600F0CBBD70B500F04AFBAA
:1044000000000089FFF7F6BF4FF00040A0F58000E4
:104410007047000010B591EA030F48BF83F00043D6
:1044200000F1BC84841A71EB030C05D2121943EB22
:104430000C03001B61EB0C01DFF824E14FEA11547F
:10444000A4EB135C1EEA430F18BF9EEA445F73D0CF
:1044500023EA0E03DCF1200E21EA045143F4801319
:1044600032D322FA0CFE10EB0E0023FA0CFE41EBC5
:104470000E01CCF1200E03FA0EFE10EB0E0051F1EE
:104480000001B1F5801FCCF1200E32D201EB0451B6
:1044900012FA0EF2BDE8104058BF7047401C38BFFA
:1044A0005FEA420218BF7047002814BF20F00100E5
:1044B00041F100014FEA410313F5001F38BF704777
:1044C000A1F1C04100F034BB012A43EB0302ACF17F
:1044D000200CDCF11F0E32BF4FF0000E23FA0CF35C
:1044E00010EB030041EB0451B4EB115FD0D0A1EB12
:1044F000045101F5801149085FEA300001EB0451D5
:104500000ED350F1000038BF12FA0EFE08D1BDE8FC
:104510001040C9E7401C38BF5FEA4202CAD1C3E776
:10452000BDE810404FEA410313F5001F38BF704744
:10453000A1F1C04100F0FCBA9EEA445F08D011EA44
:104540005E0FBDE8104004BF01F00041002070473D
:10455000BDE8104070B500F09DFA00BF64FBBE3EA0
:104560000000E0FF02494FF0000000F016BD00BF60
:104570000000F87F491058BFC1F140415B1058BF9F
:10458000C3F140438B42EFF3008070472DE9C041F7
:1045900030B4DFF8A0C23CEA111418BF3CEA13148F
:1045A00000F0EC8081EA03051CEA111444EAD5749A
:1045B00018BF1CEA131500F0C780A4EB05044FF0E8
:1045C000004545EAC12145EAC32341EA505143EA87
:1045D000525304F17F74994204F500344FEAC0202D
:1045E0004FEAC22208BF904200F09C804FEA136558
:1045F0000FF24016765D4FEA134506FB05F7C7F14B
:10460000807706FB07F74FEAD737A7FB03687642A8
:10461000C8F58038A7FB06CE38BFA8F1010807FB14
:1046200008E64FF0000EA6FB028CE6FB03CEDCF1A1
:10463000000CCEF1004E38BFAEF1010EA6FB0C58B7
:104640004FF000074FF00005E6FB0E87A1FB08C600
:10465000A0FB07CE16EB0E0645F10005E1FB076552
:1046600015F1E04E7EBFA4F580345FEA46066D4149
:1046700016F1800745F100054FEA17274FEA066655
:1046800047EA0567A6F1DE46B6F1805F4FEA1525D9
:104690001FD9384624F0010C05EBC471BCF1FE6F44
:1046A00001EB0C1102D8F0BCBDE8008124425CBFD4
:1046B00001F5801E9EEAC47F02D4F0BCBDE80081F3
:1046C000244238D4F0BCA1F1C041BDE8004100F063
:1046D0002FBA4FEAD22242EA43524FEAD323A7FB32
:1046E00002864FEAD02040EA415007FB03661EEAEB
:1046F0000E0F4FEAD12105FB026658BFA6EB00560C
:10470000B6EB00564FEA520E4EEAC37E18EB0E0E81
:1047100056EB530EBDD518EB02085E417F1C55F1D8
:104720000005B6E74FF480154FF000074FF0000684
:104730004FF00008ADE7F0BC4FF0000001F1C041C0
:1047400001F00041BDE8008111EA0C1F0CEA1315CD
:1047500000D00CE013EA0C1F00F025804FF00000A1
:10476000F0BC81EA030101F00041BDE80081F0BC2A
:10477000BDE8004181EA030100F0DAB9F0BCBDE810
:10478000004170B500F086F9097EFC3E00F007B8E4
:1047900081EA03014FF0000001F00041704781EA17
:1047A000030100F0C5B9F0BCBDE800414FF00000C6
:1047B00021497047FFFDFBF9F7F5F4F2F0EEEDEB60
:1047C000E9E8E6E4E3E1E0DEDDDBDAD8D7D5D4D30F
:1047D000D1D0CFCDCCCBCAC8C7C6C5C4C2C1C0BF5B
:1047E000BEBDBCBBBAB9B8B7B6B5B4B3B2B1B0AF61
:1047F000AEADACABAAA9A8A8A7A6A5A4A3A3A2A145
:10480000A09F9F9E9D9C9C9B9A99999897979695FF
:1048100095949393929191908F8F8E8E8D8C8C8B9B
:104820008B8A898988888787868585848483838223
:10483000828181800000FF070000F87F4FEA41037A
:104840004FEA5353A3F58063D3F11E03C8BFD3F1DE
:10485000210C0CDD4FF0004242EAC12242EA5052E4
:1048600032FA03FC8CEAE17CACEBE1707047102B70
:10487000C4BF0020704703F5787CBCF1FF3F04D033
:104880006FF0004282EA2100704770B500F002F933
:104890004992248000207047F2E710F0004248BFA0
:1048A0004042B0FA80F310FA03F10AD0C3F11D03BD
:1048B00003F580634FEA415002EB035202EBD12132
:1048C00070474FF00000704751EA030C17D41CF5F5
:1048D000801F58BFBCF5801F00F10680994218BFA9
:1048E000704708BF9042704707D711F5801F58BF27
:1048F00013F5801F19D499427047894270471CF5FF
:10490000801F08D5BCF5801FF7D58B4218BF7047B4
:1049100008BF824270474FF4001C1CEB410F38BFA8
:104920001CEB430F01D28B42704770B500F0B2F818
:10493000922449004FF000514FF08053FFF71ABE08
:10494000DFF848C170B51CEA111E1EBF1CEA131522
:104950009EEA0C0F95EA0C0F00F06F8081EA0304C9
:1049600023EA4C134EEAD47E21EA4C1141F4801123
:1049700043F48013AE44A1FB024CA0FB0365AEF1EF
:104980007F7E361955EB0C05A1FB034C4CF100035F
:10499000A0FB021C16EB0C06654153F10003094213
:1049A00018BF46F0010613F4007F0BD14FEA033124
:1049B0004FEA0530340341EA155140EA16506FF0D2
:1049C00003020AE04FEAC3214FEAC520F40241EA9C
:1049D000555140EA56506FF0020202EB2E4201EBB5
:1049E000025585EACE710AD05FEA440C18BF24F064
:1049F000004450F1000041F1000120EAD47040F27F
:104A0000FE7C624500D270BDA84214BF4FF08044C6
:104A10004FF04044002E08BF0024BEF1806FA8BFB5
:104A2000A1F1C041BDE8704080F282804FF00000EB
:104A300001F1C04101F0004170479EEA0C0F0CEA01
:104A4000131518BF95EA0C0F06D04FF0000081EA4D
:104A5000030E0EF0004170BD00F01CF88900013E0D
:104A600000F007B800F009B84FEA430C5FEA5C5C5D
:104A700008D081EA030100F05BB84FEA410C5FEA1D
:104A80005C5CF6D14FF00000014970470000FF0761
:104A90000000F87F0EF1020E2EF0030E5EF8046B9C
:104AA000364205D4012A43EB030515F5001F12D841
:104AB000012841EB010C1CF5001F0CD80ED14FEA68
:104AC000D17C15F5001F0CEB4C0C0CF1020C08BF4F
:104AD0004CEBD37C04E04FF0080C01E04FEAD37CB0
:104AE0000CEB4C0526FA05F606F00706B6F1040CA9
:104AF00006D20EEB860CBDE870404CF0010C60470E
:104B0000DFE80CF0090B02024FF000414FF000000B
:104B1000A1F5002170BD19461046012851EB010492
:104B200018BFD4F5001484BF002001F0004170BD0F
:104B30000808A0F500114FEA3101704753EA010C53
:104B400017D41CF5801F58BFBCF5801F00F10680EC
:104B50008B4218BF704708BF8242704707D713F5D2
:104B6000801F58BF11F5801F19D48B4270479B429C
:104B700070471CF5801F08D5BCF5801FF7D59942FA
:104B800018BF704708BF904270474FF4001C1CEBE1
:104B9000430F38BF1CEB410F01D2994270470FB44D
:104BA0000CBC03BCFFF7C1BE91EA030F10B581F046
:104BB00000413FF537AC83F0004300F0EFB8000050
:104BC0002DE9F04101F5801CBCF5001FC0F2C38047
:104BD0004FEA115C21EA0C510CF1FD0C41F48011FB
:104BE0005FEA5C0C0CF5C07C01D3400049413DA458
:104BF000890241EA905187028E0E0A0CA45D04FBE3
:104C000004F602FB06F6C6F14046A4FB0662F60D6A
:104C100046EA422606FB06F4A4FB01235242C3F1F6
:104C2000404338BF5B1EA6FB02420024E6FB032480
:104C3000D20B42EA4446A6FB0623A1FB02E2A3FBF9
:104C400007E4A4184FF0000252F10002E3FB014216
:104C50006442C2F1404E38BFAEF1010EA6FB042300
:104C60004FF00002E6FB0E32A2FB03464FF00004B9
:104C7000B61954F10004E2FB0264A1FB06E6A4FBB2
:104C800007E816EB08064FF0000858F10008E4FBAF
:104C900001687642C8F1405838BFA8F10108A2FB6C
:104CA00006E4A3FB08E52D194FF0000454F10004BD
:104CB000E2FB0854A1FB05E6A7FB04E818EB060895
:104CC0004FF0000656F10006E1FB048618F12005BE
:104CD00056F10006A809A8F11B08B10908F03F0821
:104CE000B8F10A0F40EA86601CD901EB0C51BDE80F
:104CF000F08100BFFCF5EEE8E2DDD8D3CFCBC7C32F
:104D0000C0BDB9B6B4B1AEACA9A7A5A3A19F9D9BE8
:104D10009A9896959392908F8D8C8B8988878685AB
:104D200084838281A0FB006800FB01F208EB42084B
:104D3000B8EB872807D5341858EB0104D5D5401CAB
:104D400051F10001D1E7341A78EB0104CDD4401EB3
:104D500071F10001C9E75FEA4C0C5FEA9C5C0DD180
:104D600005D34FF0000001F00041BDE8F081BDE83F
:104D7000F04170B5FFF78EFE6DDBFFBEBDE8F04180
:104D80004FF00000004970470000F87F10B591EA2D
:104D9000030F48BF83F000433FF544AB841A71EB27
:104DA000030C07D212198CF0004C43EB0C03001BD0
:104DB00061EB0C01DFF8A4E14FEA1154A4EB135CA2
:104DC0001EEA430F18BF9EEA445F00F0B08023EA5A
:104DD0006E03524221EA0451C3EB6E0338BF5B1EDF
:104DE000DCF1200E25D322FA0CFE10EB0E0043FA64
:104DF0000CFE41EB0E01CCF1200E03FA0EFE10EB7F
:104E00000E0051F10001CCF1200E29D412FA0EF25D
:104E100001EB0451BDE8104058BF7047401C1CBF57
:104E2000B2F1004F704700280CBF491C20F0010070
:104E3000704712EB020E43EB030218BF4FF0010E56
:104E40004EEA4202ACF1200CDCF11E0E54D943FABA
:104E50000CFE10EB0E0051F1FF31CCF11E0ED5D53A
:104E60000EF1010E12FA0EFE404141EB010101EB81
:104E7000445C5FEA5C5C10D910EBDE7001EB04511E
:104E800038BFBEF1004FBDE8104018BF7047002882
:104E90000CBF491C20F00100704730D24FEAD42CDF
:104EA00011F5001124F400641BD0B1FA81F20B3A21
:104EB000A41AA41ED2F12003914030FA03F319433F
:104EC000904001EBCC71002C01EB0451BDE8104087
:104ED000A8BF704701F1C0414FF0000001F0004150
:104EE0007047B0FA80F310FA03F100D110BDE41A54
:104EF000173C4805C90AE4E701EB045110BD49100D
:104F000001EB0451BDE810404FEA300002E04FF0E1
:104F1000000170474A0008BF0042F8D0B2F5001FF8
:104F200028BF704701F000414FF0000070479EEA33
:104F3000445F07D011EA5E0FBDE8104004BF0021B6
:104F400000207047BDE8104070B5FFF7A3FD00BF1B
:104F500040DFF63E83F00041104670470000E0FF5E
:104F600010F0004148BF4042B0FA80F310FA03F25B
:104F7000C3F19D030BD051EAC35101EB122053063C
:104F800038BF704700F1010008BF20F001007047F2
:104F9000FF2141EAD050C00570470CF00F03092BE8
:104FA00008BF082000F059800A2B0BD0082B18BF2F
:104FB000704708BF1CF0400F0AD04FF000004FF0C0
:104FC000000170471CF0400F18BF4FF000407047C1
:104FD0001CF0100F08D020F0704300F07F4242EA2E
:104FE000D3014FEA4370704700F0604021F07F42E8
:104FF00042EA000201F07F4040EA727070474FF0D1
:10500000FF0C4CF4E06C1CEA11531CBF9CEA030C2F
:105010009445C2BFDA4201EB02517047002B0DD01C
:10502000BCF1000F0FD0002A01F00041A4BF41F0F5
:10503000E04141F07F614FF00000704701F0004116
:105040004FF00000704750EA01334FF09B0C18BF3F
:105050004CF0806C7FF486AA70471CF4801F11D03E
:105060001CF4E02F03D06FEACC31490070474FF0B9
:105070004050EFF3008222F0704242EA000282F3D5
:10508000008870474FF000007047000000000000EB
:10509000000000000000F03F000000000000F83FAA
:1050A00000000000000000000000004003B8E23FE4
:1050B000000000000000000006D0CF43EBFD4C3E96
:1050C000033333333333E33FFFAB6FDBB66DDB3F8B
:1050D0004D268F515555D53F01411DA96074D13FD3
:1050E00065DBC9934A86CD3FEF4E454A287ECA3FCD
:1050F0003E5555555555C53F93BDBE166CC166BF4F
:105100002CDE25AF6A56113FF16BD2C541BDBBBE47
:10511000D0A4BE726937663E0000000000000000A7
:105120004051000800000020600000006C010008F1
:10513000A051000860000020C0070000880100089E
:1051400000A24A0400000000000000000102030465
:105150000607080900000000000000000000000031
:10516000000000000000000000000000000000003F
:10517000000000000000000000000000000000002F
:10518000000000000000000000000000000000001F
:1051900001020304010203040607080902040608C9
:0400000508000131BD
:00000001FF
