:020000040800F2
:1000000010090020E9220008D5030008D7030008E2
:10001000DB030008DF030008E30300080000000022
:10002000000000000000000000000000E7030008DE
:10003000E903000800000000EB030008ED030008DE
:1000400003230008032300080323000803230008F8
:1000500003230008032300080323000803230008E8
:1000600003230008032300080323000803230008D8
:1000700003230008032300080323000803230008C8
:1000800003230008032300080323000803230008B8
:1000900003230008032300080323000803230008A8
:1000A0000323000803230008032300080323000898
:1000B0000323000849210008032300080323000844
:1000C0000323000803230008032300080323000878
:1000D00003230008DF1A0008032300080323000895
:1000E0000323000803230008032300080323000858
:1000F0000323000803230008032300080323000848
:100100000323000803230008032300080323000837
:10011000B11C0008531B0008032300080323000838
:100120000323000803230008032300080323000817
:1001300000F002F800F050F80AA090E8000C8244A9
:100140008344AAF10107DA4501D100F045F8AFF286
:10015000090EBAE80F0013F0010F18BFFB1A43F0A5
:10016000010318473CC500005CC50000103A24BFDD
:1001700078C878C1FAD8520724BF30C830C144BF0C
:1001800004680C607047000000230024002500264E
:10019000103A28BF78C1FBD8520728BF30C148BFEA
:1001A0000B60704766290CF03481642909F04083A4
:1001B000782909F07983732909F0A787002070470F
:1001C0001FB509F0EBFF0400002000210BF0A4FA9A
:1001D000E0601FBD10B510BD0AF0E4F81146FFF74E
:1001E000EFFF00F009F80AF002F903B4FFF7F2FF9D
:1001F00003BC01F00BFC000090B05B4903C9CDE9E2
:100200000E012E2102A809F0B4FC574808300068FE
:100210000190002401F090FB4FF4A06002F084F8FC
:100220004FF4165001F00FFC4FF4165001F0F1FCA2
:100230004FF4165001F09CFC01F075FD00F064FFD6
:100240000020052306220721009001F095FF41F6CA
:100250001F4141F2873001F039FF44A009F078FADC
:1002600000F0B6F900F060FB01F06AF800F0D3FD91
:1002700042A009F06DFA76E04448007850B10020C1
:10028000424908704248006808B9012000E0002097
:100290003F49086000F056FA00F032FC3D48007813
:1002A00000283FD000203B4908703BA101A809F07D
:1002B000D5FB39A000F0C9FD01A93BA009F048FA1F
:1002C0003BA101A809F0CAFB3A4800680CF012F8FB
:1002D00005462A460B4638A10DF1070009F044FAFD
:1002E00001A800F0B2FD01A92FA009F031FA33A155
:1002F00001A809F0B3FB334800680BF0FBFF05468B
:100300002A460B462CA10DF1070009F02DFA01A891
:1003100000F09BFD01A924A009F01AFA00F017FAD9
:1003200001F00EF801F0DEFAE8B108210EA801F0A4
:1003300087FF25A101A809F091FB002407E02448CC
:10034000005D3030C1B2201D01AA1154641C062C7E
:10035000F5DB00208DF80E0001A800F076FD01A964
:1003600011A009F0F5F987E708C5000853797374FF
:10037000656D20496E69740D0A0000004465766958
:1003800063657320496E69740D0A000062000020E5
:1003900090012242610000204649442C41444E32E3
:1003A000333433345300000025730D0A000000007D
:1003B00050612C003C0000202566000054656D70E3
:1003C0002C000000380000205549442C000000009B
:1003D0009F020020704700BFFEE700BFFEE700BF9E
:1003E000FEE700BFFEE770477047704770470000A8
:1003F0000CB50020019000906C48006840F48030FB
:100400006A49086000BF6948006800F40030009045
:100410000198401C0190009818B90198B0F5A06FA0
:10042000F1D16248006800F4003010B10120009062
:1004300001E0002000900098012843D15C4800684A
:1004400040F010005A4908600846006820F0030098
:1004500008600846006840F00200086053484068A1
:10046000524948600846406848600846406840F481
:10047000806048600846406820F47C104860084668
:10048000406840F4E81048600846006840F080701A
:10049000086000BF4548006800F000700028F9D0EF
:1004A0004248406820F003004049486008464068E0
:1004B00040F00200486000BF3C48406800F00C007B
:1004C0000828F9D10CBD10B5FFF792FF10BD10B58B
:1004D0003648006840F0010034490860084640682A
:1004E00034490840314948600846006832490840AC
:1004F0002E4908600846006820F4802008600846FD
:10050000406820F4FE0048604FF41F008860FFF749
:10051000DAFF4FF000602949086010BD10B50021D6
:1005200000200022214B5B6803F00C0121B104295B
:1005300006D0082928D107E0214B224C236027E070
:100540001F4B204C236023E0184B5B6803F47010B2
:10055000164B5B6803F48032022303EB904022B910
:10056000194B4343174C23600DE0104B5B6803F4B9
:10057000003323B1144B4343124C236003E0104B70
:100580004343104C236003E00D4B0E4C236000BF2F
:1005900000BF064B5B68C3F303130C4CE15C094BD3
:1005A0001B68CB40074C236010BD000000100240C8
:1005B000002002400000FFF8FFFFF6FE08ED00E01B
:1005C00000127A000000002000093D000400002015
:1005D00008B50121102002F0BAFF1020ADF800008C
:1005E0008DF8030003208DF802006946034801F0EE
:1005F000FFFF1021014802F0CEF908BD00100140B4
:1006000010B50446242C02D1002087490880864872
:1006100001880088401C844A108084484454007833
:1006200024281ED1814800794D281AD17F4840796D
:10063000432816D10A2C14D150217D4809F077FAAD
:100640007948028879497A4809F02CFA01207849DA
:1006500081F85000002074490880C821734809F0CF
:1006600066FA71480088C82802DBC8206E490880F5
:1006700010BDF8B500266E4890F85000002860D0F4
:1006800000206B4981F8500000BF58E02EB969A1E5
:10069000674809F0D1F904464FE0641C65A1204683
:1006A00009F0CAF9050048D0072E2ED2DFE806F07F
:1006B0002D040B11181F26002A1B21465C485230BE
:1006C00009F0F0F922E02A1B2146684609F0EAF910
:1006D0001CE02A1B214656485D3009F0E3F915E07D
:1006E0002A1B21465248683009F0DCF90EE02A1B2B
:1006F00021464F486A3009F0D5F907E02A1B214608
:100700004B48763009F0CEF900E000BF00BF2C4620
:100710000120474981F851009DF80000412803D18C
:10072000012081F8780007E09DF80000562803D1E9
:1007300000203F4981F8780000BF701CC6B2062E29
:10074000A4DDF8BD10B5FFF794FF002010BD10B573
:10075000374890F85100002865D00020344981F8CE
:10076000510035A1374809F079F9314952313548FE
:10077000083009F073F9334800F067FB314932A0C3
:1007800008F0E6FF2A4890F87800002848D00020BA
:10079000274981F878002EA12A4809F05FF92449F9
:1007A0005D312848093009F059F9264800F04DFB21
:1007B000244925A008F0CCFF28A1224809F04EF9D1
:1007C0001B4968311F48001D09F048F91D4800F019
:1007D0003CFB1C491CA008F0BBFF22A1194809F0F2
:1007E0003DF913496A3117480A3009F037F91548BD
:1007F00000F02BFB134914A008F0AAFF1CA111481C
:1008000009F02CF90A4976310E48001D09F026F945
:100810000C4800F01AFB0B490BA008F099FF02E00E
:1008200015A008F095FF10BD14000020F100002075
:10083000780000202C00000055544354696D652C4D
:1008400000000000B901002025730D0A000000001F
:100850006C617469747564652C0000004E5F532CE4
:10086000000000006C6F6E6769747564652C000091
:10087000455F572C0000000047505320444154412D
:10088000206973206E6F742075736566756C6C21BA
:100890000D0A000038B504466B4602222146772037
:1008A00001F0D3FB9DF801009DF8001040EA012003
:1008B00005B2284638BD10B5AA20FFF7EBFF9849CE
:1008C0000880AC20FFF7E6FF96490880AE20FFF7CE
:1008D000E1FF95490880B020FFF7DCFF93490880CD
:1008E000B220FFF7D7FF92490880B420FFF7D2FF6C
:1008F00090490880B620FFF7CDFF8F490880B820C7
:10090000FFF7C8FF8D490880BA20FFF7C3FF8C4965
:100910000880BC20FFF7BEFF8A490880BE20FFF791
:10092000B9FF8949088010BD10B5FFF7C4FF10BD9D
:1009300010B500243422F421772001F031FBF62198
:10094000772001F00AFB044600BF204610BD10B519
:100950002E22F421772001F023FBF620FFF79AFFE7
:100960000446204610BD10B5D021772001F0F5FADD
:1009700010BD2DE9F04F8FB081468A466D48008842
:10098000A9EB00006A4909884843C4136D48B0F9CF
:100990000000C0026C49B1F90010214490FBF1F550
:1009A00060190C900C98083000110B900B980BF00C
:1009B0003EF90022654BCDE906010AF0B1FFCDE911
:1009C00008010AF0BFFE624908600C98A0F57A663B
:1009D0005A48B0F9000070437043C4155148B0F94B
:1009E00000007043C51204EB050B4D49B1F900102E
:1009F0000BEB8101881CC11700EB917189100D91DF
:100A00004948B0F900007043441306FB06F0001398
:100A10004949B1F90010484305146019801C4FEA98
:100A2000A00B424800880BF500414843C00B0A90D8
:100A30000D98AAEB00004CF2503100FB01F8B8F120
:100A4000004F05D24FEA48010A98B1FBF0F703E0E6
:100A50000A98B8FBF0F0470038460BF0E8F800229F
:100A60003C4BCDE902010AF05BFFCDE906013846B7
:100A70000BF0DDF80022374BCDE902010AF050FF00
:100A8000CDE90401DDE906230BF024F9CDE90801E5
:100A90000BF09EF8044640F6DE30604304142E4806
:100AA00078430514601900F6CF6007EB201738462D
:100AB0000BF04CFC2949086038460BF0B8F80022CE
:100AC000274BCDE900010AF02BFF264A264BCDE942
:100AD00002010AF01FF90022244BCDE904010BF0BA
:100AE0002DFA0022224BCDE906010BF0F3F8CDE9F7
:100AF00008010AF027FE1F4908600FB0BDE8F08F1B
:100B000010B5FFF724FF1C490860FFF711FF1B49D0
:100B100008600846016818480068FFF72AFF10BD02
:100B2000180000201A0000201C0000201E000020D9
:100B300020000020220000202400002026000020A9
:100B4000280000202A0000202C0000200000244063
:100B5000380000200000704043E3FFFF3C0000200D
:100B6000D0BCF8406C45D9CC955BC83F0000F03F45
:100B700040A5E54040000020340000203000002067
:100B8000BB490A780978491CB94B1970B94988548E
:100B900019460978C82902DB00211A4611707047EE
:100BA000B548007870B1B5480078401CC0B2B34970
:100BB0000870022806DB00200870B1480078401C4D
:100BC000AF490870704710B504460BE000BF4021E4
:100BD000AC4803F045FB0028F9D014F8011BA948E4
:100BE00003F05FF920780028F0D110BD10B504465D
:100BF00000BF4021A34803F033FB0028F9D0214671
:100C0000A04803F04EF910BD002004E00021994AED
:100C10001154411C88B2C828F8DB0021944A117095
:100C200070472DE9F04104460E4615462746FFF76A
:100C3000EBFF0020924908708F4908702EE0314682
:100C40008C4808F0F9FE00BB8B48007878B93C4628
:100C50002046FFF7B8FF8CA0FFF7B5FF00208749BB
:100C600008708749087001208349087016E084489D
:100C70000078A84212DB0020814908707E49087084
:100C8000FFF7C2FF0020BDE8F08100207C4908701A
:100C900079490870FFF7B8FF0120F4E7CFE72DE9A5
:100CA000F04106460F4690461C4600250DE06420A4
:100CB00000F07FFE424639463046FFF7B2FF10B1E2
:100CC0000120BDE8F081681CC5B2A542EFDD00201F
:100CD000F7E710B56DA0FFF776FF032314226FA18D
:100CE00070A0FFF7DCFF20B971A008F031FD0020F3
:100CF00010BD03230A2274A174A0FFF7D0FF20B90E
:100D000076A008F025FD0020F2E703230A226EA159
:100D100078A0FFF7C4FF20B97DA008F019FD0020DE
:100D2000E6E703230A2268A17FA0FFF7B8FF20B9F6
:100D300080A008F00DFD0020DAE703230A2262A15B
:100D400082A0FFF7ACFF20B986A008F001FD0020CB
:100D5000CEE703230A225CA18AA0FFF7A0FF20B9F7
:100D60008CA008F0F5FC0020C2E703230A2256A15C
:100D700090480068FFF793FF20B98FA008F0E8FCC7
:100D80000020B5E7642000F014FEFFF73DFF0120CE
:100D9000AEE710B503224CA18DA0FFF742FF10BDB6
:100DA00070B50025FFF730FF8BA0FFF70CFF4FF465
:100DB000FA7000F0FEFD00BF29E0002423E02D487A
:100DC000005D3A2814D12B49201D085C312803D03E
:100DD000201D085C352801D1012070BDC72C10DB17
:100DE0007DA0FFF7F0FE4FF4FA7000F0E2FD08E09E
:100DF000C72C06DB78A0FFF7E6FE4FF4FA7000F090
:100E0000D8FD601CC4B2C82CD9DB681CC5B21E2D2D
:100E1000D3DB0020E1E710B5FFF7C2FF20B971A0D6
:100E200008F096FC002010BDFFF7B3FFFFF751FF5D
:100E300020B970A008F08CFC0020F4E7022273A116
:100E400073A0FFF7EEFEFF20EDE710B504464FF468
:100E50007A7000F0AEFD02226CA16DA0FFF7E1FEFA
:100E60002046FFF7B0FE6DA0FFF7ADFE002010BDDD
:100E700044000020D701002047000020450000204A
:100E800046000020004C00400D0A000041542B4356
:100E90004950434C4F53453D310000005348555491
:100EA000204F4B0041542B434950534855540000A8
:100EB00053494D20B9D8B1D5D2C6B6AFB3A1BEB053
:100EC000CAA7B0DC0D0A00004F4B000041542B4371
:100ED00047434C4153533D224222000053494D2089
:100EE000C9E8D6C3D2C6B6AFC6BDCCA8CAA7B0DCC7
:100EF0000D0A000041542B434744434F4E543D31AB
:100F00002C224950222C22434D4E455422000000F1
:100F100053494D20C9E8D6C3504450C9CFCFC2CEA3
:100F2000C4CAA7B0DC0D0A0041542B4347415454B6
:100F30003D31000053494D20B8BDD7C547505253ED
:100F4000D2B5CEF1CAA7B0DC0D0A000041542B4344
:100F50004950435347503D312C22434D4E45542276
:100F60000000000053494D20C9E8D6C3CEAA47501F
:100F70005253C1ACBDD3C4A3CABDCAA7B0DC0D0ACD
:100F80000000000041542B434950484541443D3145
:100F90000000000053494D20C9E8D6C3BDD3CAD5CF
:100FA000CAFDBEDDCFD4CABE4950CDB7CAA7B0DC9A
:100FB0000D0A00004800002053494D20C9E8D6C35F
:100FC000B7FECEF1C6F74950CAA7B0DC0D0A000043
:100FD000415445300000000041542B435245473FE7
:100FE0000D0A000053494D20D7A2B2E1CAA7B0DCD8
:100FF0000D0A000053494D20C1ACBDD3B7FECEF160
:10100000C6F7CAA7B0DC0D0A000000003E000000D1
:1010100041542B43495053454E4400001A000000F0
:10102000002103E000BF00BF00BF491C8142F9D38B
:101030007047014600BFFE48008800F0020000280B
:10104000F9D0FB48001D018000BFF948008800F07E
:1010500001000028F9D0F648001D0088C0B2704792
:1010600070B50546002405E0601CC4B2C82C01DD43
:10107000002070BD0221EE48083807F00EFA002863
:10108000F2D02946EA48083807F0B6F8002405E00F
:10109000601CC4B2C82C01DD0020EAE70121E4484D
:1010A000083807F0FAF90028F2D0E148083807F0CC
:1010B000B8F8C0B2DDE710B504466CB1082C0BD00F
:1010C000102C09D0182C07D0202C05D0282C03D0A8
:1010D000302C01D0382C00D103E05A21D5A000F0EB
:1010E000A5FCD348083800884FF6C7710840D0499E
:1010F0000839088008460088204308800121CC4830
:10110000083806F09EFF10BD00B587B001214820C9
:1011100002F01DFA0121880302F042FA0320ADF823
:10112000180010208DF81B0003208DF81A0006A966
:10113000C74801F05DFA0221C54801F057FC4FF4A1
:101140006040ADF8180018208DF81B0003208DF8C2
:101150001A0006A9BF4801F04BFA4FF46041BD48A0
:1011600001F019FC0020ADF804004FF48270ADF8D6
:1011700006000020ADF80800ADF80A00ADF80C003C
:101180004FF40070ADF80E003820ADF810000020CC
:10119000ADF812000720ADF8140001A9A4480838E2
:1011A00006F0BCFD0121A248083806F04AFF07B04E
:1011B00000BD10B502460B460120A5491431086058
:1011C0007E2000EA42042046FFF733FF1846FFF76F
:1011D00030FF01209E491031086010BD10B5024655
:1011E000002401209A49143108607E2000EA420060
:1011F00040F080031846FFF71CFF0020FFF719FF9F
:1012000004460120924910310860204610BD70B597
:1012100005460C4600262846FFF7E0FF064646EA4C
:1012200004012846FFF7C5FF70BD10B51420FFF775
:10123000D5FF044604F0030018B903211420FFF77A
:10124000E6FF10BD70B505460C4600262846FFF7A0
:10125000C5FF064626EA04012846FFF7AAFF70BD2F
:1012600010B50446412C26D108210846FFF7EAFFB5
:101270003D211120FFF79DFF86211720FFF799FFE1
:101280007F212620FFF795FF1E212D20FFF791FFDC
:1012900000212C20FFF78DFF8D212A20FFF789FFE9
:1012A0003E212B20FFF785FF4FF47A70FFF7B8FE41
:1012B000FFF7BBFF01E0012010BD0020FCE700B5F7
:1012C00003211420FFF7BEFF00BD00B502206049D6
:1012D000103108600A20FFF7A3FE02205C49143198
:1012E00008600A20FFF79CFE02205949103108606F
:1012F0000A20FFF795FE0F210120FFF75AFF0F216B
:101300000120FFF756FF0A20FFF78AFE3D2111203A
:10131000FFF74FFF1E212D20FFF74BFF00212C2050
:10132000FFF747FF8D212A20FFF743FF3E212B20A7
:10133000FFF73FFF40211520FFF73BFF002000BDD6
:1013400010B5FFF7C2FFFFF7BAFF032000F031FB33
:10135000FFF76BFF4120FFF783FF10BD10B5FFF7CC
:10136000B4FFFFF7ACFF022000F023FBFFF75DFFA7
:1013700010BD2DE9FE4F0646884691469A46DDF897
:1013800030B0022002900020019000900C2E06D078
:101390000E2E09D1122001901020009005E0772038
:1013A00001903020009000E000BF00BF019840F0A5
:1013B00080010220FFF7FDFE80210420FFF742FF9D
:1013C00000210120FFF7F5FE80210A20FFF71FFF13
:1013D000002506E018F805100920FFF7EAFE681C52
:1013E00085B24D45F6DB31460120FFF7E2FE0C2EBB
:1013F00003D180210D20FFF70AFF4FF4FA6500BFEB
:101400000420FFF7EBFE0446681E85B235B104F0F8
:10141000010018B9009820400028F1D080210D204B
:10142000FFF710FF002D4DD00620FFF7D7FE13E089
:10143000083800402E2E5C48415244574152455CCA
:10144000524649445C72633532322E63000000001C
:1014500000180140000C014000F01B0078BB002088
:1014600002900198204000F0010008B10120029094
:101470000C2E27D10A20FFF7B1FE04460C20FFF7FF
:10148000ADFE00F007072FB1601E07EBC0008BF820
:10149000000003E0E006000E8BF8000004B9012410
:1014A000122C00DD1224002506E00920FFF796FE2D
:1014B0000AF80500681C85B2A542F6DB02E0FFE7EA
:1014C0000220029080210C20FFF7A1FE00210120C4
:1014D000FFF76FFE0298BDE8FE8F70B587B0054636
:1014E0000C4608210846FFF7ADFE07210D20FFF747
:1014F00060FE03211420FFF78AFE8DF8045006A831
:1015000001AB012201A900900C20FFF732FF064633
:1015100056B99DF81800102806D19DF804002070D7
:101520009DF80500607000E00226304607B070BDEF
:10153000F0B587B00546002708210846FFF782FE70
:1015400000210D20FFF735FE80210E20FFF77AFEE7
:1015500093208DF8040020208DF8050006A801AB2B
:10156000022201A900900C20FFF703FF064686B96E
:10157000002407E001A8005D285501A8005D474050
:10158000601CC4B2042CF5DB01A8005DB84200D099
:10159000022680210E20FFF73AFE304607B0F0BD4C
:1015A0002DE9F04107468846154604210520FFF73E
:1015B00049FE00210120FFF7FCFD80210A20FFF7F2
:1015C00026FE002405E0395D0920FFF7F2FD601CCE
:1015D000C4B24445F7DB03210120FFF7EAFDFF24F5
:1015E00000BF0520FFF7FAFD0646601EC4B21CB11D
:1015F00006F004000028F4D02220FFF7EFFD287049
:101600002120FFF7EBFD6870BDE8F08170B587B071
:10161000054693208DF8040070208DF80500002009
:101620008DF80A0000240BE0295D01AAA01C1154CA
:101630009DF80A00295D48408DF80A00601CC4B27C
:10164000042CF1DB0DF10B02072101A8FFF7A8FF25
:1016500008210846FFF7F6FD06A801AB092201A9FB
:1016600000900C20FFF785FE06462EB99DF8180065
:10167000182801D1002600E00226304607B070BDD0
:101680002DE9F04187B004460D4616461F468DF8F9
:1016900004408DF805503068CDF80600B088ADF8EC
:1016A0000A003868039006A801AB0C2201A900903B
:1016B0000E20FFF75EFE8046B8F1000F05D108202E
:1016C000FFF78CFD00F0080008B94FF00208404613
:1016D00007B0BDE8F081F0B587B005460E46302072
:1016E0008DF804008DF805500DF10602022101A8C5
:1016F000FFF756FF06A801AB042201A900900C20B9
:10170000FFF737FE07466FB99DF81800902809D1FA
:10171000002404E001A8005D3055601CC4B2102C08
:10172000F8DB00E00227384607B0F0BDF0B587B01F
:1017300006460F46A0208DF804008DF805600DF1D7
:101740000602022101A8FFF72BFF06A801AB042225
:1017500001A900900C20FFF70CFE05464DB99DF83D
:101760001800042805D19DF8040000F00F000A2895
:1017700000D0022515BB002404E0385D01A90855FE
:10178000601CC4B2102CF8DB05AA102101A8FFF7D9
:1017900007FF06A801AB122201A900900C20FFF759
:1017A000E8FD05464DB99DF81800042805D19DF8BF
:1017B000040000F00F000A2800D00225284607B0D8
:1017C000F0BD00B587B050208DF8040000208DF8E2
:1017D00005000DF10602022101A8FFF7E1FE06A8AF
:1017E00001AB042201A900900C20FFF7C2FD0020EC
:1017F00007B000BD2DE9F84307460D469046082680
:1018000043495220FFF769FE044624B902244148A7
:10181000FFF78EFE04467CB902243E48C078009053
:101820003C488378427801783BA007F091FF394823
:10183000FFF7ECFE044602E0FF20BDE8F8833CB968
:101840000224344B3A4A09216020FFF719FF04466D
:1018500054B9022429463046FFF73DFF0446294685
:101860003046FFF763FF04460CB90020E5E7FF2090
:10187000E3E72DE9F04107460D4690460826244946
:101880005220FFF72AFE04462CB902242148FFF714
:101890004FFE044602E0FF20BDE8F0812CB902248F
:1018A0001C48FFF7B3FE044601E0FF20F4E744B90B
:1018B0000224184B1E4A09216020FFF7E1FE04466E
:1018C00001E0FF20E8E734B9022429463046FFF75B
:1018D00002FF044601E0FF20DEE70CB90020DBE751
:1018E000FF20D9E730B5002400250A22114910460F
:1018F000FFF7BFFF0546FF2D03D034B901240120B7
:1019000030BD14B100240020FAE70020F8E7000001
:101910004C0000204E00002049443A253032782007
:1019200025303278202530327820253032780A0070
:10193000520000209F02002010B56FF0040000F05C
:10194000A2FD2E4800682E49B0FBF1F02D49087029
:101950000846007800EB4001C1EBC0104FF6FF7164
:1019600001EAC0002849088010BD0146254A1278C6
:101970004A434FF0E0235A6100229A611A461269E5
:1019800042F001021A6100BF4FF0E022106900F03E
:1019900001021AB100F48032002AF5D04FF0E022A3
:1019A000126922F001024FF0E0231A6100229A61CD
:1019B00070470146144A12884A434FF0E0235A61A7
:1019C00000229A611A46126942F001021A6100BFB0
:1019D0004FF0E022106900F001021AB100F48032E9
:1019E000002AF5D04FF0E022126922F001024FF0F8
:1019F000E0231A6100229A61704700000000002075
:101A000000127A00580000205A000020014600BF52
:101A10000020704700BFB74A128802F04002002A37
:101A2000F9D0C2B2B34B1B1D1A80704704460D4655
:101A300008E04FF4FA70FFF7BCFF2A462146AEA03B
:101A400007F086FEF5E710B586B00446012144F2A2
:101A5000040001F07CFD4FF40070ADF81400032089
:101A60008DF8160018208DF8170005A9A64800F07B
:101A7000BFFD4FF48060ADF8140004208DF817000E
:101A800005A9A14800F0B4FD25208DF80000032031
:101A90008DF801008DF8020001208DF803006846E2
:101AA00000F05DFC01940020ADF80800ADF80A00DC
:101AB000ADF80C00ADF810000C20ADF80E0001A937
:101AC0008C4801F0C0FE012240F22551894802F005
:101AD0002BF80121874801F0FAFF06B010BD10B5C0
:101AE00040F22551834802F04AFC80B1814802F05F
:101AF000FFF9C4B200BF4021844802F0B1FB0028C6
:101B0000F9D02146621CD4B2804802F0CAF910BD57
:101B100010B504460BE000BF4021764802F0A0FB60
:101B20000028F9D02178734802F0BBF9641C2078B2
:101B30000028F0D110BD10B5044600BF40216D480B
:101B400002F08EFB0028F9D021466A4802F0A9F97C
:101B500010BD10B540F225516D4802F010FC30B1B7
:101B60006B4802F0C5F9C4B22046FEF749FD10BD2E
:101B700010B586B004460121080501F011FD0121D0
:101B8000102001F0E4FC0121202001F0E0FC4FF4E2
:101B90008050ADF8140003208DF8160018208DF841
:101BA000170005A95B4800F023FD0420ADF81400E0
:101BB0008DF8170005A9584800F01AFD35208DF85A
:101BC000000004208DF801008DF8020001208DF83E
:101BD0000300684600F0C3FB01940020ADF8080044
:101BE000ADF80A00ADF80C00ADF810000C20ADF80F
:101BF0000E0001A9464801F026FE012240F22551BF
:101C0000434801F091FF0121414801F060FF06B017
:101C100010BD10B586B004460121C80401F0C0FC17
:101C20000121102001F093FC4FF48060ADF8140006
:101C300003208DF8160018208DF8170005A93548E7
:101C400000F0D6FC4FF40060ADF8140004208DF8CD
:101C5000170005A92F4800F0CBFC34208DF80000B8
:101C600003208DF801008DF8020001208DF803009B
:101C7000684600F074FB01940020ADF80800ADF850
:101C80000A00ADF80C00ADF810000C20ADF80E0005
:101C900001A91E4801F0D7FD012240F225511B4841
:101CA00001F042FF0121194801F011FF06B010BDFB
:101CB00010B540F22551154802F061FB30B11348D0
:101CC00002F016F9C4B22046FEF75AFF10BD10B557
:101CD00004460BE000BF40210C4802F0C1FA002886
:101CE000F9D014F8011B094802F0DBF8207800282D
:101CF000F0D110BD003801404572726F723A257301
:101D00000925640D0A00000000080140004C004055
:101D100000500040001001400014014010B50220A6
:101D2000FFF723FE10BD08B50121082001F00FFCCC
:101D3000C020ADF8000010208DF8030003208DF8BE
:101D400002006946DE4800F053FCC021DC4800F088
:101D500022FE08BD10B5DA48006820F07040D8496E
:101D600008600846006840F0405008600120D549EE
:101D70000860D549C1F89801FFF7D0FF0020D1498C
:101D80000860FFF7CBFF0020CF49C1F8980110BDD4
:101D900010B5CB48006820F07040C949086008467B
:101DA000006840F0405008600020C649091F0860E4
:101DB000C549C1F89C01FFF7B1FF0120C149091FC6
:101DC0000860C149C1F89C01FFF7A8FF10BD10B51C
:101DD0000024BB48006820F07040B94908600846FC
:101DE000006840F0004008600120B6490860FFF735
:101DF00095FF0120B449C1F89801FFF78FFF07E074
:101E0000601CC4B2FA2C03DDFFF7C2FF012010BD35
:101E1000AC48803800680028F2D1AA49091F086040
:101E200000BFF4E710B50020A649091F0860A448C8
:101E3000006820F07040A24908600846006840F041
:101E4000405008600020A049C1F89C01FFF766FFE0
:101E500001209C49091F0860FFF760FF00209A4994
:101E6000C1F8980110BD10B500209649091F0860FF
:101E70009348006820F07040914908600846006867
:101E800040F04050086001208F49C1F89C01FFF7E5
:101E900045FF01208B49091F0860FFF73FFF002025
:101EA0008949C1F8980110BD70B50446844800689E
:101EB00020F07040824908600846006840F04050B9
:101EC000086000207F49091F0860002512E0E00932
:101ED0007C4908606006040E01207B49C1F8980126
:101EE000FFF71CFF00207749091F0860FFF716FF66
:101EF000681CC5B2082DEADB70BD70B5054600242C
:101F00006F48006820F070406D490860084600681E
:101F100040F000400860002615E000206949091FD4
:101F20000860FFF7FBFE01206749C1F898016006D1
:101F3000040E64488038006808B1601CC4B2FFF722
:101F4000EDFE701CC6B2082EE7DB15B9FFF78BFF5C
:101F500001E0FFF767FF204670BD70B504460D46EF
:101F6000FFF7F8FEFE2101EA4400FFF79DFFFFF7AF
:101F70002EFF2846FFF798FFFFF729FFFFF7EAFE3D
:101F8000012101EB4401C8B2FFF78EFFFFF71FFFED
:101F90000020FFF7B2FF0646FFF7FAFE304670BD9D
:101FA00070B504460D461646FFF7D4FEFE2101EA41
:101FB0004400FFF779FFFFF70AFF18B1FFF7E8FECB
:101FC000012070BD2846FFF76FFFFFF700FF304686
:101FD000FFF76AFFFFF7FBFE18B1FFF7D9FE0120FC
:101FE000EFE7FFF7D5FE0020EBE72DE9F0410546CE
:101FF0000E4617469846FFF7ADFE002141EA45011F
:10200000C8B2FFF751FFFFF7E2FE20B1FFF7C0FEB5
:102010000120BDE8F0813046FFF746FFFFF7D7FE0D
:1020200000240CE018F80400FFF73EFFFFF7CFFE96
:1020300018B1FFF7ADFE0120EBE7601CC4B2BC4253
:10204000F0DBFFF7A5FE0020E3E72DE9F0410646AF
:102050000F4614461D46FFF77DFE002141EA46016A
:10206000C8B2FFF721FFFFF7B2FE20B1FFF790FEE5
:102070000120BDE8F0813846FFF716FFFFF7A7FE05
:10208000FFF768FE012101EB4601C8B2FFF70CFF24
:10209000FFF79DFE0DE0012C04D10020FFF72DFF7E
:1020A000287003E00120FFF728FF2870601EC4B2EB
:1020B0006D1C002CEFD1FFF76BFE0020D9E700006C
:1020C000000C01409C812142008021427FB50546E1
:1020D0000C460121022001F063FAADF80850ADF87A
:1020E00004400020ADF80A00ADF8060001A91E4822
:1020F00002F036FB1D208DF8000001208DF8010054
:1021000003208DF8020001208DF80300684600F0DE
:1021100026F901221146144803F0FAFB0121124866
:1021200003F071FB7FBD11480078401CC0B20F491D
:102130000870062804DB0020087001200C49087094
:1021400001200C490870704710B50121064805F0C0
:10215000E0FC38B10121044805F041FDFEF720FD07
:10216000FFF7E1FF10BD0000000400406000002008
:1021700061000020620000202DE9F04188B0044693
:102180000D4616461F46DDF838800121042001F077
:10219000DEF90121480601F003FA4FF48050ADF852
:1021A0001C0003208DF81E0018208DF81F0007A9C1
:1021B0004B4800F01DFA4FF40060ADF81C004820B9
:1021C0008DF81F0007A9464800F012FA00208DF88C
:1021D00016008DF817008DF8180001208DF81900F1
:1021E00000208DF81A008DF81B008DF812808DF8F4
:1021F00013408DF814608DF81550ADF8107004A9D7
:10220000384806F037FA00208DF80A008DF80B00E8
:1022100001208DF80C000020ADF80000ADF80200A0
:10222000ADF80400ADF80600ADF8080001208DF807
:102230000D00684606F02FFB002008B0BDE8F081D5
:10224000F0B585B007460D4600241220009001909D
:1022500000208DF808008DF809008DF80A5000BFA5
:1022600005E0395D0DF10B000155601C84B2AC42F4
:10227000F7DB69461B4806F086FC0646002401E0B1
:10228000601C84B23146174806F05AFD18B940F672
:10229000FF708442F4DB40F6FF70844202DB0120D1
:1022A00005B0F0BD0020FBE730B585B00546002144
:1022B0000C4806F099FE10B9002005B030BD6A4602
:1022C0000021084806F0D9FD002404E00DF10B00C0
:1022D000005D2855641C082CF8D39DF80A00ECE733
:1022E0000008014000640040094880470948004751
:1022F000FEE7FEE7FEE7FEE7FEE7FEE7FEE7FEE7B6
:10230000FEE7FEE704480549054A064B7047000012
:10231000CF0400083101000810030020100900203C
:10232000100500201005002010B50446B4F5E06F3C
:102330000BD0B4F5C06F08D0B4F5A06F05D0B4F5DC
:10234000806F02D0B4F5407F00D103E063215DA02F
:10235000FFF76CFB634820436349086010BD2DE91B
:10236000F0410446002500270F26E07810B1E07800
:10237000012800D103E0752152A0FFF757FB6078D8
:10238000102800DA03E076214EA0FFF74FFBA0787B
:10239000102800DA03E077214AA0FFF747FBE07836
:1023A00000B35148006800F4E060C0F5E060050A41
:1023B000C5F10407EE40607800FA07F5A0783040D8
:1023C00005432D01494822788554207800F01F01EB
:1023D0000120884021784911890001F1E021C1F8EC
:1023E000000109E0207800F01F01012088404049E9
:1023F0002278521141F82200BDE8F08170B5044600
:102400000D46B4F1005F02D0B4F1006F00D103E0DB
:102410009F212CA0FFF70AFB3648854200D203E03B
:10242000A02128A0FFF702FB334905EA0100204361
:102430002D49091F086070BD70B504460D46102C6B
:1024400003D0042C01D0022C00D103E0B2211DA046
:10245000FFF7ECFA0DB1012D00D103E0B32119A073
:10246000FFF7E4FA3DB12048001D006820431E49F3
:10247000091D086006E01C48001D0068A0431A49B9
:10248000091D086070BD10B50446042C01D0601D04
:1024900000B903E0CA210BA0FFF7C8FA042C08D149
:1024A0004FF0E020006940F004004FF0E0210861A7
:1024B00007E04FF0E020006920F004004FF0E02139
:1024C000086110BD2E2E5C53544D333246313078A6
:1024D0005F46574C69625C7372635C6D6973632E0F
:1024E000630000000000FA050CED00E000E400E0ED
:1024F00080E100E0FFFF0F0080FFFF1F10B50446E2
:10250000FC48844211D0FC4884420ED0FB488442EF
:102510000BD0FB48844208D0FA48844205D0FA48E0
:10252000844202D0F948844200D103E06F21F8A030
:10253000FFF77CFAEF48844208D10121042001F022
:1025400058F80021042001F054F846E0EA4884429B
:1025500008D10121082001F04CF80021082001F0E9
:1025600048F83AE0E548844208D10121102001F002
:1025700040F80021102001F03CF82EE0E0488442B1
:1025800008D10121202001F034F80021202001F0A1
:1025900030F822E0DB48844208D10121402001F0DC
:1025A00028F80021402001F024F816E0D6488442A3
:1025B00008D10121802001F01CF80021802001F0C9
:1025C00018F80AE0D148844207D10121801501F0B2
:1025D00010F80021A01501F00CF810BD10B5012174
:1025E000084601F006F80021012001F002F810BDB4
:1025F0002DE9F05F05460C464FF00009CA4600265B
:102600000027B046B346BB48854211D0BA48854240
:102610000ED0BA4885420BD0B948854208D0B94897
:10262000854205D0B848854202D0B848854200D1DD
:1026300003E0B221B6A0FFF7F9F9E078A0B1E078A5
:10264000042811D0E07828280ED0E07848280BD054
:10265000E078142808D0E078102805D0E0781C280D
:1026600002D0E078182800D103E0B321A8A0FFF73A
:10267000DDF9002010B9208800B103E0B421A4A046
:10268000FFF7D4F9E07800F00F09E07800F01000CF
:1026900080B1A078012805D0A078022802D0A078C7
:1026A000032800D103E0BB2199A0FFF7BFF9A07870
:1026B00040EA0909207838B3D5F8008000261FE0E9
:1026C000012000FA06F7208800EA070ABA4516D169
:1026D000B7000F2000FA07FB28EA0B0809FA07F0F9
:1026E00040EA0808E078282803D10120B04068615A
:1026F00005E0E078482802D10120B0402861761C2E
:10270000082EDDD3C5F800802088FF282BDDD5F802
:102710000480002623E006F10800012101FA00F7F9
:10272000208800EA070ABA4518D1B7000F2000FA3E
:1027300007FB28EA0B0809FA07F040EA0808E078E6
:10274000282803D106F1080081406961E078482813
:1027500004D106F10800012181402961761C082E70
:10276000D9D3C5F80480BDE8F09F4FF6FF71018012
:10277000022181700421C170704770B505460C4676
:1027800000265C48854211D05B4885420ED05B48EC
:1027900085420BD05A48854208D05A48854205D018
:1027A0005948854202D05948854200D104E04FF48F
:1027B0008F7157A0FFF73AF9012C25D0022C23D0B6
:1027C000042C21D0082C1FD0102C1DD0202C1BD065
:1027D000402C19D0802C17D0B4F5807F14D0B4F5DC
:1027E000007F11D0B4F5806F0ED0B4F5006F0BD020
:1027F000B4F5805F08D0B4F5005F05D0B4F5804F24
:1028000002D0B4F5004F00D104E040F21F1140A007
:10281000FFF70CF9A868204008B1012600E0002667
:10282000304670BD10B504463248844211D032485B
:1028300084420ED0314884420BD03148844208D0C3
:102840003048844205D03048844202D02F48844228
:1028500000D104E04FF49A712DA0FFF7E7F8A068CB
:1028600080B210BD70B505460C4600262148854251
:1028700011D0214885420ED0204885420BD02048F7
:10288000854208D01F48854205D01F48854202D0A6
:102890001E48854200D104E04FF4A2711CA0FFF74E
:1028A000C5F8012C25D0022C23D0042C21D0082CD3
:1028B0001FD0102C1DD0202C1BD0402C19D0802CC8
:1028C00017D0B4F5807F14D0B4F5007F11D0B4F5E3
:1028D000806F0ED0B4F5006F0BD0B4F5805F08D0D8
:1028E000B4F5005F05D0B4F5804F02D0B4F5004FC9
:1028F00022D127E000080140000C014000100140F7
:102900000014014000180140001C0140002001405B
:102910002E2E5C53544D3332463130785F46574C3F
:1029200069625C7372635C73746D333266313078E4
:102930005F6770696F2E630040F24511AFF230009F
:10294000FFF774F8E868204008B1012600E000268F
:10295000304670BD10B50446FE48844211D0FE4892
:1029600084420ED0FD4884420BD0FD48844208D0FA
:10297000FC48844205D0FC48844202D0FB48844293
:1029800000D105E04FF4AD71AFF27C00FFF74EF8D7
:10299000E06880B210BD70B504460D46ED48844233
:1029A00011D0ED4884420ED0EC4884420BD0EC4864
:1029B000844208D0EB48844205D0EB48844202D0E0
:1029C000EA48844200D105E040F26911AFF2C0004C
:1029D000FFF72CF8002008B905B105E04FF4B571F8
:1029E000AFF2D400FFF722F8256170BD70B5044640
:1029F0000D46D848844211D0D74884420ED0D748DB
:102A000084420BD0D648844208D0D648844205D0B0
:102A1000D548844202D0D548844200D105E040F236
:102A20007911AFF21410FFF701F8002008B905B1D1
:102A300005E04FF4BD71AFF22810FEF7F7FF6561B6
:102A400070BD70B505460C461646C248854211D089
:102A5000C14885420ED0C14885420BD0C04885424E
:102A600008D0C048854205D0BF48854202D0BF4843
:102A7000854200D105E040F28D11AFF26C10FEF7F7
:102A8000D5FF012C25D0022C23D0042C21D0082CDA
:102A90001FD0102C1DD0202C1BD0402C19D0802CE6
:102AA00017D0B4F5807F14D0B4F5007F11D0B4F501
:102AB000806F0ED0B4F5006F0BD0B4F5805F08D0F6
:102AC000B4F5005F05D0B4F5804F02D0B4F5004FE7
:102AD00000D105E04FF4C771AFF2CC10FEF7A6FFAE
:102AE0000EB1012E00D105E040F28F11AFF2E010DF
:102AF000FEF79CFF0EB12C6100E06C6170BD70B5FB
:102B000004460D469348844211D0934884420ED027
:102B1000924884420BD09248844208D09148844223
:102B200005D09148844202D09048844200D105E00B
:102B30004FF4D271AFF22820FEF778FFE56070BD48
:102B400070B504460D464FF480368248844211D059
:102B5000814884420ED0814884420BD08048844210
:102B600008D08048844205D07F48844202D07F4804
:102B7000844200D105E040F2B511AFF26C20FEF7BF
:102B800055FF002008B905B105E04FF4DB71AFF245
:102B90008020FEF74BFF2E43A661A561A661A669C2
:102BA000A66970BD70B505460C4600263DB1012DE5
:102BB00005D0022D03D0032D01D0042D00D105E056
:102BC0004FF4E971AFF2B820FEF730FFECB1012C01
:102BD0001BD0022C19D0032C17D0042C15D0052C97
:102BE00013D0062C11D0072C0FD0082C0DD0092C97
:102BF0000BD00A2C09D00B2C07D00C2C05D00D2C97
:102C000003D00E2C01D00F2C00D105E040F2D311DF
:102C1000AFF20430FEF70AFF554806684FF68070A1
:102C2000064046EA051626435148066070BD10B5B9
:102C300004460CB1012C00D105E04FF4F371AFF262
:102C40003030FEF7F3FE4B48C46110BD2DE9F0476C
:102C500004460E460027B8460025A946012C77D029
:102C6000022C75D0042C73D0082C71D042488442B9
:102C70006ED04148203084426AD04048844267D0B8
:102C80003E488030844263D03D48844260D03D4815
:102C900084425DD03C4884425AD03C48844257D05C
:102CA0003B48844254D0B4F5805F51D0B4F5EA1F5C
:102CB0004ED0B4F5EB1F4BD0B4F5004F48D035489B
:102CC000844245D0401C844242D0801C84427FD044
:102CD000001D84427CD02F480F30844278D0B4F15C
:102CE000201F75D04FEAF030844271D02A488442C8
:102CF0006ED02A4884426BD02948844268D0294843
:102D0000844265D02848844262D0B4F5011F5FD068
:102D1000264884425CD0401C844259D0801C8442A6
:102D200056D0001D844253D020480F3084424FD0EB
:102D30001E481F3084424BD01C483F30844247D04D
:102D40001A487F30844243D01848FF3084422FE035
:102D50003EE0000000080140000C0140001001406E
:102D60000014014000180140001C014000200140F7
:102D70000000014000002042100014004000160036
:102D800000011800000218000003180000081A00D3
:102D9000000C1A0001002000000130000002300089
:102DA00000043000001120000020200001000080FD
:102DB0000ED0664884420BD06548844208D06548EE
:102DC000844205D06448844202D06448844200D1E1
:102DD00005E040F22A21AFF2C840FEF727FE0EB10F
:102DE000012E00D105E040F22B21AFF2DC40FEF7CE
:102DF0001DFE04F00040B0F1004F02D15848C569F3
:102E000001E057484568C4F30349A7B204F44010F1
:102E1000B0F5401F08D125F070655148406820F09A
:102E200070604F49486013E004F48010B0F5801FD3
:102E300007D1032000FA09F825EA080545F0706576
:102E400006E0600D000107FA00F0854345F070656B
:102E500026B1600D010107FA01F0054304F00040BE
:102E6000B0F1004F02D13E48C56101E03C484560E9
:102E7000BDE8F08770B505460C4600265DB1012D12
:102E800009D0022D07D0032D05D0042D03D0052D28
:102E900001D0062D00D105E040F26521AFF290503F
:102EA000FEF7C4FDECB1012C1BD0022C19D0032C71
:102EB00017D0042C15D0052C13D0062C11D0072CBC
:102EC0000FD0082C0DD0092C0BD00A2C09D00B2CBC
:102ED00007D00C2C05D00D2C03D00E2C01D00F2CBC
:102EE00000D105E040F26621AFF2DC50FEF79EFD16
:102EF000A007010F0F2000FA01F619480830A110B1
:102F000050F82100B04316490831A21041F82200C0
:102F10000846A11050F82100A107090F05FA01F198
:102F200008430F490831A21041F8220070BD10B5C6
:102F300004460CB1012C00D105E04FF41E71AFF234
:102F40003060FEF773FD0748046010BD000200808A
:102F50000004008000080080001000800020008035
:102F600000000140DC002042FE48006840F0010003
:102F7000FC49086008464068FB490840F949486038
:102F800008460068F9490840F649086008460068A4
:102F900020F4802008600846406820F4FE00486065
:102FA0004FF41F008860704710B504462CB1B4F58B
:102FB000803F02D0B4F5802F00D104E040F211111F
:102FC000EBA0FEF733FDE748006820F48030E549C8
:102FD00008600846006820F480200860B4F5803F4F
:102FE00003D0B4F5802F0ED106E0DE48006840F42F
:102FF0008030DC49086007E0DA48006840F4A0202F
:10300000D849086000E000BF00BF10BD2DE9F041C5
:103010000446002500260027212C13D0312C11D086
:10302000392C0FD0412C0DD0612C0BD07A2C09D02B
:103030007B2C07D07C2C05D07D2C03D07E2C01D09E
:103040007F2C00D104E040F23451C9A0FEF7EEFC21
:103050006511012D02D1C348066806E0022D02D198
:10306000C048066A01E0BF48466A04F01F05012017
:10307000A840304008B1012700E000273846BDE8ED
:10308000F08138B5002000900024002500BF3120D9
:10309000FFF7BCFF05460098401C00900098B0F573
:1030A000A06F01D0002DF2D03120FFF7AFFF08B1A3
:1030B000012400E00024204638BD70B504460025F8
:1030C0001F2C00DC04E04FF4A971A9A0FEF7AEFCB0
:1030D000A448056825F0F80545EAC405056070BDFB
:1030E00010B504460CB1012C00D104E040F265118A
:1030F0009FA0FEF79BFCA848046010BD70B5054674
:103100000C4600262DB1B5F5803F02D0B5F5403F05
:1031100000D104E040F27F1195A0FEF787FC4CB38C
:10312000B4F5802F26D0B4F5002F23D0B4F5402F6E
:1031300020D0B4F5801F1DD0B4F5A01F1AD0B4F56F
:10314000C01F17D0B4F5E01F14D0B4F5001F11D084
:10315000B4F5101F0ED0B4F5201F0BD0B4F5301FFE
:1031600008D0B4F5401F05D0B4F5501F02D0B4F517
:10317000601F00D104E04FF4C0717DA0FEF756FC43
:103180007848466826F47C1645EA040006437548EC
:10319000466070BD10B504460CB1012C00D104E0AE
:1031A0004FF4CA7172A0FEF741FC7B48046610BD63
:1031B00070B5044600251CB1012C01D0022C00D1B1
:1031C00004E04FF40E716AA0FEF730FC65484568D4
:1031D00025F003052543456070BD6248406800F056
:1031E0000C00704770B5044600257CB1802C0DD0D2
:1031F000902C0BD0A02C09D0B02C07D0C02C05D01F
:10320000D02C03D0E02C01D0F02C00D104E04FF4FE
:10321000197157A0FEF70AFC5248456825F0F005E1
:103220002543456070BD70B5044600255CB1B4F51A
:10323000806F08D0B4F5A06F05D0B4F5C06F02D090
:10324000B4F5E06F00D104E040F27E2148A0FEF723
:10325000EDFB4448456825F4E0652543456070BDB5
:1032600070B5044600255CB1B4F5806F08D0B4F5A4
:10327000A06F05D0B4F5C06F02D0B4F5E06F00D1F7
:1032800004E04FF426713AA0FEF7D0FB35484568BC
:1032900025F4605545EAC405456070BD70B5044627
:1032A0000D4604F0E00008B904B104E040F2BF218B
:1032B0002FA0FEF7BBFB0DB1012D00D104E04FF4B0
:1032C00030712BA0FEF7B2FB2DB12648407A204387
:1032D0002449487204E02348407AA04321494872B7
:1032E00070BD10B504460CB1012C00D104E040F2D1
:1032F000DB211FA0FEF79AFB2748D830046010BDE1
:1033000070B50446002544B1B4F5804F05D0B4F53E
:10331000004F02D0B4F5404F00D104E040F202313A
:1033200013A0FEF783FB0F48456825F4404525436D
:10333000456070BD10B504461CB1012C01D0042CB1
:1033400000D104E04FF4507109A0FEF76FFB00209C
:10335000044920310870034981F82000012C1FD056
:10336000042C1BE0001002400000FFF8FFFFF6FEF7
:103370002E2E5C53544D3332463130785F46574CD5
:1033800069625C7372635C73746D3332663130787A
:103390005F7263632E6300000000424208D103E0C5
:1033A0000120F449087004E00520F249087000E0AB
:1033B00000BF00BF10BD10B504460CB1012C00D1F8
:1033C00005E040F26131AFF25800FEF72FFBEA480A
:1033D000046010BD10B50446B4F5807F05D0B4F587
:1033E000007F02D0B4F5407F00D105E040F2723199
:1033F000AFF28400FEF71AFBDE482038006A204353
:10340000DC492039086210BD10B504460CB1012C0E
:1034100000D105E04FF46071AFF2AC00FEF706FB9F
:10342000D5484438046010BD30B500210022002486
:103430000023D04D203D6D6805F00C0121B1042919
:1034400005D0082926D105E0CC4D056025E0CB4DFF
:10345000056022E0C74D203D6D6805F47012C54D32
:10346000203D6D6805F48034022505EB92421CB9BD
:10347000C34D554305600CE0BE4D203D6D6805F41D
:1034800000351DB1BE4D5543056002E0BB4D5543AF
:10349000056002E0B94D056000BF00BFB54D203D9D
:1034A0006D6805F0F0010909B64D6B5C0568DD40FB
:1034B0004560B04D203D6D6805F4E061090AB14DED
:1034C0006B5C4568DD408560AA4D203D6D6805F464
:1034D0006051C90AAB4D6B5C4568DD40C560A54DC8
:1034E000203D6D6805F44041890BA74D6B5CC568B4
:1034F000B5FBF3F5056130BD70B504460D4640F2ED
:10350000575024EA000008B904B105E040F22B410D
:10351000AFF2A410FEF78AFA0DB1012D00D105E03B
:1035200040F22C41AFF2B810FEF780FA3DB191485D
:103530002038406920438F492039486106E08D4892
:1035400020384069A0438B492039486170BD70B56F
:1035500004460D468D48204008B904B105E040F20C
:103560004A41AFF2F410FEF761FA0DB1012D00D11E
:1035700005E040F24B41AFF20820FEF757FA3DB1AB
:103580007C482038806920437A492039886106E0E8
:10359000784820388069A04376492039886170BD19
:1035A00070B504460D467A48204008B904B105E0DC
:1035B00040F26941AFF24820FEF738FA0DB1012D13
:1035C00000D105E040F26A41AFF25C20FEF72EFA2E
:1035D0003DB168482038C069204366492039C86138
:1035E00006E064482038C069A04362492039C861B8
:1035F00070BD70B504460D466448204008B904B15A
:1036000005E040F2A441AFF29820FEF70FFA0DB1A9
:10361000012D00D105E040F2A541AFF2AC20FEF74C
:1036200005FA3DB153482038C0682043514920393C
:10363000C86006E04F482038C068A0434D49203993
:10364000C86070BD70B504460D465148204008B9A9
:1036500004B105E040F2C341AFF2EC20FEF7E6F919
:103660000DB1012D00D105E040F2C441AFF20030B0
:10367000FEF7DCF93DB13F482038006920433D4961
:103680002039086106E03B4820380069A0433949E9
:103690002039086170BD10B504460CB1012C00D171
:1036A00005E04FF49B61AFF23830FEF7BFF93248C6
:1036B0004038046010BD10B504460CB1012C00D197
:1036C00005E040F2E541AFF25830FEF7AFF931487E
:1036D000C46410BD10B504463CB1052C05D0042CC3
:1036E00003D0062C01D0072C00D105E040F2055193
:1036F000AFF28430FEF79AF91E482038C47110BD2D
:103700001C482038406A40F080701A4920394862CD
:10371000704770B504460025012C09D0022C07D053
:10372000042C05D0082C03D0102C01D0802C00D103
:1037300005E040F27E51AFF2C830FEF777F90D4850
:1037400020388068204008B1012500E00025284687
:1037500070BD10B5044604F0600008B904B105E07E
:1037600040F2AB51AFF2F830FEF760F90148203873
:10377000847210BD201002408004424200127A0080
:1037800000093D0063000020730000200200C0FF1C
:10379000003601810000424210B50446FE488442D2
:1037A0000BD0FE48844208D0FD48844205D0FD4835
:1037B000844202D0FC48844200D103E08521FBA072
:1037C000FEF734F9F448844209D101218803FFF758
:1037D00010FF00214FF48040FFF70BFF32E0EF486D
:1037E000844209D101214804FFF72CFF00214FF446
:1037F0000030FFF727FF25E0E948844209D1012185
:103800008804FFF71FFF00214FF48020FFF71AFF05
:1038100018E0E448844209D10121C804FFF712FFEF
:1038200000214FF40020FFF70DFF0BE0DE4884423B
:1038300008D101210805FFF705FF00214FF4801092
:10384000FFF700FF10BD2DE9F04786B005460C4696
:103850000026B24600BFB1460027CF4885420BD0B4
:10386000CE48854208D0CE48854205D0CD48854215
:1038700002D0CD48854200D103E0B821CBA0FEF7AD
:10388000D5F8206820B1D4492068884200D203E0EE
:10389000B921C6A0FEF7CAF8A08818B1A088B0F573
:1038A000805F00D103E0BA21C0A0FEF7BFF8E08836
:1038B00058B1E088B0F5805F07D0E088B0F5005FD0
:1038C00003D0E088B0F5405F00D103E0BB21B7A092
:1038D000FEF7ACF8208938B12089B0F5806F03D0AD
:1038E0002089B0F5C06F00D103E0BC21AFA0FEF786
:1038F0009DF860894FF6F371084010B9608900B1F6
:1039000003E0BD21A9A0FEF791F8A08958B1A089D4
:10391000B0F5807F07D0A089B0F5007F03D0A089E3
:10392000B0F5407F00D103E0BE21A0A0FEF77EF8F5
:10393000A08968B19848854205D09848854202D050
:103940009748854200D103E0C22198A0FEF76EF8A7
:103950002F462E8A4CF6FF700640E08806432E82E2
:10396000AE894EF6F3100640A0882189084361898C
:1039700008430643AE81AE8A4FF6FF400640A08959
:103980000643AE8201A8FFF74FFD8348874202D16C
:10399000DDF810A001E0DDF80CA0A88900F40040DB
:1039A00040B10AEBCA0000EB0A1021684900B0FBE5
:1039B000F1F807E00AEBCA0000EB0A102168890061
:1039C000B0FBF1F86420B8FBF0F006013009642187
:1039D00001FB1089A88900F4004040B1322000EBBF
:1039E000C900B0FBF1F000F00700064308E0322008
:1039F00000EB09106421B0FBF1F000F00F0006436A
:103A00002E8106B0BDE8F0874FF416510160002109
:103A10008180C18001810C21418100218181704719
:103A200070B505460C4600265B48854205D05B48CC
:103A3000854202D05A48854200D104E04FF4997182
:103A40005AA0FDF7F3FF208818B12088B0F5006F69
:103A500000D104E040F2331154A0FDF7E7FF608885
:103A600018B16088B0F5806F00D104E04FF49A710E
:103A70004EA0FDF7DBFFA08818B1A088B0F5007F4D
:103A800000D104E040F2351148A0FDF7CFFFE088F7
:103A900018B1E088B0F5807F00D104E04FF49B714D
:103AA00042A0FDF7C3FF2E8A4FF2FF000640208898
:103AB00061880843A1880843E188084306432E82B1
:103AC00070BD0021018041808180C180704770B548
:103AD00004460D46304884420BD03048844208D01A
:103AE0002F48844205D02F48844202D02E48844279
:103AF00000D104E04FF4B1712CA0FDF797FF0DB198
:103B0000012D00D104E040F2631128A0FDF78EFFE3
:103B100025B1A08940F40050A08104E0A0894DF6B1
:103B2000FF710840A08170BD2DE9F04705460C46A5
:103B300017464FF00008C246C14600261648854287
:103B40000BD01648854208D01548854205D0154847
:103B5000854202D01448854200D104E040F2891128
:103B600012A0FDF763FF282C3CD040F2277084425E
:103B700038D040F22660844234D040F2255084424E
:103B800030D040F2244084422CD040F6460084429B
:103B900028D040F66A1021E000380140004400407F
:103BA00000480040004C0040005000402E2E5C5366
:103BB000544D3332463130785F46574C69625C73FE
:103BC00072635C73746D3332663130785F75736124
:103BD00072742E630000000021AA4400844201D0C8
:103BE000602C00D105E04FF4C571AFF24000FDF745
:103BF0001DFF0FB1012F00D105E040F28B11AFF294
:103C00005400FDF713FF40F66A1084420FD1F948C3
:103C1000854205D0F848854202D0F848854200D157
:103C200005E040F28F11AFF27C00FDF7FFFE2E465B
:103C3000C4F3421804F01F0A012000FA0AF9B8F18F
:103C4000010F01D10C3605E0B8F1020F01D1103699
:103C500000E0143627B1306840EA0900306003E024
:103C6000306820EA09003060BDE8F08770B504468E
:103C70000D461646DF4884420BD0DF48844208D008
:103C8000DE48844205D0DE48844202D0DD488442CA
:103C900000D105E040F2C311AFF2F000FDF7C6FE1F
:103CA0004FF63F70284008B905B105E04FF4E271C6
:103CB000AFF20810FDF7BAFE0EB1012E00D105E0FB
:103CC00040F2C511AFF21C10FDF7B0FE1EB1A08A84
:103CD0002843A08202E0A08AA843A08270BD70B5EC
:103CE00004460D46C34884420BD0C348844208D0E2
:103CF000C248844205D0C248844202D0C1488442AE
:103D000000D105E040F2DF11AFF26010FDF78EFE4A
:103D10000F2D00DC05E04FF4F071AFF27010FDF7ED
:103D200085FE208A4FF6F07108402082208A2843C1
:103D3000208270BD70B504460D46AE4884420BD05B
:103D4000AD48844208D0AD48844205D0AC48844296
:103D500002D0AC48844200D105E04FF4FB71AFF2D1
:103D6000B410FDF763FE15B1B5F5006F00D105E0A5
:103D700040F2F711AFF2CC10FDF758FEA0894FF2D8
:103D8000FF710840A081A0892843A08170BD70B553
:103D900004460D46974884420BD09748844208D089
:103DA0009648844205D09648844202D09548844281
:103DB00000D105E040F20921AFF21020FDF736FEF8
:103DC0000DB1012D00D105E040F20A21AFF224200F
:103DD000FDF72CFE25B1A08940F00200A08104E08F
:103DE000A0894FF6FD710840A08170BD70B50446F2
:103DF0000D46804884420BD07F48844208D07F48DB
:103E0000844205D07E48844202D07E48844200D15C
:103E100005E040F22621AFF26C20FDF707FE0DB160
:103E2000202D00D105E040F22721AFF28020FDF7E0
:103E3000FDFD208A4FF6DF7108402082208A28434A
:103E4000208270BD70B504460D466A4884420BD08E
:103E50006948844208D06948844205D06848844251
:103E600002D06848844200D105E040F23921AFF227
:103E7000C420FDF7DBFD0DB1012D00D105E040F2BE
:103E80003A21AFF2D820FDF7D1FD25B1208A40F4C8
:103E90008040208204E0208A4BF6FF710840208297
:103EA00070BD70B504460D46524884420BD052484E
:103EB000844208D05148844205D05148844202D0FF
:103EC0005048844200D105E040F25321AFF2243043
:103ED000FDF7ACFDB5F5007F00DA05E04FF4157194
:103EE000AFF23830FDF7A2FDC5F30800A08070BD29
:103EF00010B504463F4884420BD03F48844208D066
:103F00003E48844205D03E48844202D03D48844227
:103F100000D105E04FF41971AFF27030FDF786FD66
:103F2000A088C0F3080010BD10B504463148844293
:103F30000BD03148844208D03048844205D0304804
:103F4000844202D02F48844200D105E04FF41D7115
:103F5000AFF2A830FDF76AFDA08940F00100A08112
:103F600010BD70B504460D462248844205D0224853
:103F7000844202D02148844200D105E04FF42171EF
:103F8000AFF2D830FDF752FD208BC0B22083208BDA
:103F900040EA0520208370BD70B504460D461548E3
:103FA00084420BD01448844208D01448844205D07F
:103FB0001348844202D01348844200D105E04FF4F4
:103FC0002671AFF21840FDF731FD208B00F47F40E1
:103FD0002083208B2843208370BD70B504460D4696
:103FE0000448844205D00448844202D003488442F5
:103FF0000AD10FE000380140004400400048004072
:10400000004C00400050004040F2AB21AFF2644051
:10401000FDF70CFD0DB1012D00D105E04FF42B7122
:10402000AFF27840FDF702FD25B1A08A40F02000F4
:10403000A08204E0A08A4FF6DF710840A08270BD24
:1040400070B504460D46F948844205D0F8488442CC
:1040500002D0F848844200D105E04FF43171AFF24C
:10406000B440FDF7E3FC0DB1012D00D105E040F2B5
:10407000C521AFF2C840FDF7D9FC25B1A08A40F0B8
:104080001000A08204E0A08A4FF6EF710840A082E1
:1040900070BD70B504460D46E44884420BD0E44838
:1040A000844208D0E348844205D0E348844202D0E9
:1040B000E248844200D105E040F2DE21AFF2145024
:1040C000FDF7B4FC0DB1012D00D105E040F2DF2178
:1040D000AFF22850FDF7AAFC25B1A08A40F00800F5
:1040E000A08204E0A08A4FF6F7710840A08270BD5C
:1040F00070B504460D46CD4884420BD0CC4884426E
:1041000008D0CC48844205D0CB48844202D0CB486A
:10411000844200D105E040F2FD21AFF27050FDF77E
:1041200085FC0DB1012D00D105E040F2FE21AFF27A
:104130008450FDF77BFC25B1A08940F40040A081AC
:1041400003E0A089C0F30E00A08170BD70B50446E5
:104150000D46B64884420BD0B548844208D0B548D5
:10416000844205D0B448844202D0B448844200D18D
:1041700005E04FF44671AFF2CC50FDF757FC0DB19E
:10418000012D00D105E040F21931AFF2E050FDF70A
:104190004DFC25B1A08A40F40060A08204E0A08A12
:1041A0004FF2FF710840A08270BD70B504460D4605
:1041B0009E4884420BD09E48844208D09D48844249
:1041C00005D09D48844202D09C48844200D105E03D
:1041D00040F23531AFF22C60FDF728FC042D00D001
:1041E00005B905E040F23631AFF24060FDF71EFC44
:1041F000A08A4FF6FB710840A082A08A2843A082C3
:1042000070BD70B504460D46884884420BD088487E
:10421000844208D08748844205D08748844202D02F
:104220008648844200D105E04FF45271AFF28460B9
:10423000FDF7FCFB0DB1012D00D105E040F2493145
:10424000AFF29860FDF7F2FB25B1A08A40F00200C2
:10425000A08204E0A08A4FF6FD710840A08270BDE4
:1042600070B505460C460026704885420BD0704854
:10427000854208D06F48854205D06F48854202D0FC
:104280006E48854200D105E040F26E31AFF2E46045
:10429000FDF7CCFB012C13D0802C11D0402C0FD07B
:1042A000202C0DD0102C0BD0B4F5807F08D0B4F5A5
:1042B000007F05D0082C03D0042C01D0022C00D1A3
:1042C00005E040F26F31AFF21C70FDF7AFFBB4F5C3
:1042D000007F0FD15548854205D05548854202D010
:1042E0005448854200D105E040F27331AFF244708A
:1042F000FDF79CFB2888204008B1012600E000263D
:10430000304670BD70B504460D46484884420BD017
:104310004748844208D04748844205D046488442F2
:1043200002D04648844200D105E040F29E31AFF20F
:104330008470FDF77BFB4FF69F40284008B905B11C
:1043400005E040F29F31AFF29C70FDF76FFB05F482
:104350000070B0F5007F0FD13448844205D0344856
:10436000844202D03348844200D105E040F2A331B8
:10437000AFF2C870FDF75AFBE843208070BD2DE90D
:10438000F04705460C4600270026B046B1462748B0
:1043900085420BD02648854208D02648854205D064
:1043A0002548854202D02548854200D105E040F2EB
:1043B000C131AFF60800FDF739FB282C20D040F2C0
:1043C000277084421CD040F22660844218D040F20C
:1043D0002550844214D040F22440844210D040F64C
:1043E000460084420CD040F66A10844208D0B4F5EE
:1043F000587F05D0B4F5187F02D0B4F5B07F00D156
:1044000005E040F2C231AFF65C00FDF70FFB40F66D
:104410006A1084421AD10548854205D00448854275
:1044200002D0044885420BD110E000000038014062
:104430000044004000480040004C00400050004054
:1044400040F2C631AFF69C00FDF7F0FAC4F3421813
:1044500004F01F06012000FA06F6B8F1010F02D1A0
:10446000A889064007E0B8F1020F02D1288A064069
:1044700001E0A88A06402712012000FA07F72888E1
:1044800007401EB117B14FF0010901E04FF00009DC
:104490004846BDE8F0872DE9F04104460D46002668
:1044A0000027244884420BD02348844208D0234864
:1044B000844205D02248844202D02248844200D15E
:1044C00005E040F20A41AFF61C10FDF7AFFA40F2EA
:1044D000266085420BD040F22550854207D040F639
:1044E0004600854203D040F66A10854200D105E0BF
:1044F00040F20B41AFF64C10FDF798FA40F66A1007
:1045000085420FD10B48844205D00B48844202D02B
:104510000A48844200D105E040F20F41AFF6741022
:10452000FDF784FA2E120120B04087B2F8432080B4
:10453000BDE8F081003801400044004000480040E0
:10454000004C00400050004010B50446F84884423A
:104550002FD0B4F1804F2CD0F648844229D0F648B1
:10456000844226D0F548844223D0F548844220D0A6
:10457000F44884421DD0F44884421AD0F34884425F
:1045800017D0F348844214D0F248844211D0F24844
:1045900084420ED0F14884420BD0F148844208D0C6
:1045A000F048844205D0F048844202D0EF4884426B
:1045B00000D103E07D21EEA0FDF738FADC4884420B
:1045C00008D10121C014FFF714F80021E014FFF70F
:1045D00010F8C4E0B4F1804F08D101210846FFF77C
:1045E00031F800210120FFF72DF8B8E0D1488442CE
:1045F00008D101210220FFF725F800210220FFF752
:1046000021F8ACE0CC48844208D101210420FFF716
:1046100019F800210420FFF715F8A0E0C7488442EC
:1046200008D101210820FFF70DF800210820FFF72D
:1046300009F894E0C248844208D101211020FFF714
:1046400001F800211020FEF7FDFF88E0BD488442FC
:1046500008D101212020FEF7F5FF00212020FEF7E0
:10466000F1FF7CE0B848844208D101214014FEF7F4
:10467000C0FF00216014FEF7BCFF70E0B348844225
:1046800009D10121C804FEF7B4FF00214FF4002036
:10469000FEF7AFFF63E0AE48844209D1012108056F
:1046A000FEF7A7FF00214FF48010FEF7A2FF56E0AF
:1046B000A848844209D101214805FEF79AFF00214C
:1046C0004FF40010FEF795FF49E0A348844208D15B
:1046D00001214020FEF7B6FF00214020FEF7B2FF87
:1046E0003DE09E48844208D101218020FEF7AAFFC8
:1046F00000218020FEF7A6FF31E09948844208D1CE
:1047000001218015FEF79EFF0021A015FEF79AFFFC
:1047100025E09448844209D101210804FEF769FF8D
:1047200000214FF48030FEF764FF18E08E48844289
:1047300009D101214804FEF75CFF00214FF400304D
:10474000FEF757FF0BE08948844208D10121880415
:10475000FEF74FFF00214FF48020FEF74AFF10BD07
:1047600070B504460D460026714884422FD0B4F13E
:10477000804F2CD06F48844229D06F48844226D085
:104780006E48844223D06E48844220D06D488442D3
:104790001DD06D4884421AD06C48844217D06C48B2
:1047A000844214D06B48844211D06B4884420ED0AE
:1047B0006A4884420BD06A48844208D069488442DF
:1047C00005D06948844202D06848844200D103E0A1
:1047D000E72167A0FDF72AF9688858B16888102892
:1047E00008D06888202805D06888402802D06888CA
:1047F000602800D103E0E8215DA0FDF717F9E88803
:1048000038B1E888B0F5807F03D0E888B0F5007F44
:1048100000D103E0E92156A0FDF708F926884448B5
:1048200084420ED0484884420BD0B4F1804F08D067
:104830004048844205D04048844202D03F488442E8
:1048400004D14FF68F700640688806433C48844286
:1048500007D03C48844204D04FF6FF400640E88829
:1048600006432680A888A085288820853048844271
:104870000BD03548844208D03A48844205D03A48A3
:10488000844202D03948844201D1287A208601200E
:10489000A08270BD2DE9F04104460D464FF000089E
:1048A000002600272248844229D0B4F1804F26D028
:1048B0002048844223D02048844220D01F4884428C
:1048C0001DD0214884421AD02048844217D0204865
:1048D000844214D01F48844211D01F4884420ED015
:1048E0001E4884420BD01E48844208D01D48844292
:1048F00005D01D48844202D01C48844200D104E007
:104900004FF48E711AA0FDF791F8288870B12888AD
:1049100010280BD02888202808D02888302805D0D7
:104920002888602802D02888702835D13AE0000015
:10493000002C01400004004000080040000C004032
:10494000001000400014004000340140004C0140C1
:10495000005001400054014000180040001C00407D
:104960000020004000400140004401400048014058
:104970002E2E5C53544D3332463130785F46574CBF
:1049800069625C7372635C73746D33326631307864
:104990005F74696D2E63000040F21D11AFF23000AC
:1049A000FDF744F8688810B16888012800D105E057
:1049B0004FF48F71AFF24800FDF738F8288910B135
:1049C0002889022800D105E040F21F11AFF26000F3
:1049D000FDF72CF8208C4FF6FE7108402084268CC1
:1049E000A788B4F818804FF68F7008EA0008881E70
:1049F00008EA0008288840EA0808481E0640288976
:104A0000064368880643FE4884420BD0FD48844232
:104A100008D0FD48844205D0FC48844202D0FC48BE
:104A2000844245D1A88810B1A888042800D105E0A7
:104A30004FF49E71AFF2C800FCF7F8FF688910B11F
:104A40006889082800D105E040F23D11AFF2E0008E
:104A5000FCF7ECFFE889B0F5007F01D0E88900B9E8
:104A600005E04FF49F71AFF2F800FCF7DFFFA88973
:104A7000B0F5807F01D0A88900B905E040F23F1170
:104A8000AFF21410FCF7D2FF4FF6F77006406889BA
:104A900006434FF6FB700640A88806434FF6FF60BA
:104AA00007404FF6FF500740A8890743E8890743AE
:104AB000A780A4F81880E888A0862684BDE8F08145
:104AC0002DE9F04105460C464FF00008002600276E
:104AD000CB48854217D0B5F1804F14D0CD488542E0
:104AE00011D0CD4885420ED0CC4885420BD0C54868
:104AF000854208D0CA48854205D0CA48854202D0BE
:104B0000C148854200D105E040F26F11AFF2A0101C
:104B1000FCF78CFF208870B1208810280BD02088EB
:104B2000202808D02088302805D02088602802D08E
:104B30002088702800D105E04FF4B871AFF2D01092
:104B4000FCF774FF608810B16088012800D105E08F
:104B500040F27111AFF2E810FCF768FF208910B144
:104B60002089022800D105E04FF4B971AFF200208E
:104B7000FCF75CFF288C4FF6EF71084028842E8CE0
:104B8000AF88B5F8188048F6FF7008EA00084FF6BD
:104B9000FF4008EA000820884FF6FF7101EA002074
:104BA00040EA08084FF6DF700640208901EA00104D
:104BB0000643608801EA001006439148854202D00E
:104BC000904885424FD1A08810B1A088042800D118
:104BD00005E040F28F11AFF26820FCF727FF6089F3
:104BE00010B16089082800D105E04FF4C871AFF218
:104BF0008020FCF71BFFE089B0F5007F01D0E08941
:104C000000B905E040F29111AFF29C20FCF70EFFD5
:104C1000A089B0F5807F01D0A08900B905E04FF4EC
:104C2000C971AFF2B420FCF701FF4FF67F70064068
:104C300060894FF6FF7101EA001006434FF6BF701E
:104C40000640A08801EA001006434FF6FF300740F7
:104C50004FF2FF700740A08901EA80000743E08916
:104C600001EA80000743AF80A5F81880E088288714
:104C70002E84BDE8F0812DE9F04105460C464FF049
:104C80000008002600275E4885420ED0B5F1804F0F
:104C90000BD06048854208D05F48854205D05F4808
:104CA000854202D05748854200D105E040F2C1114B
:104CB000AFF24430FCF7BAFE208870B1208810288B
:104CC0000BD02088202808D02088302805D02088C4
:104CD000602802D02088702800D105E04FF4E171EF
:104CE000AFF27430FCF7A2FE608810B16088012832
:104CF00000D105E040F2C311AFF28C30FCF796FE14
:104D0000208910B12089022800D105E04FF4E2711A
:104D1000AFF2A430FCF78AFE288C4FF6FF61084002
:104D200028842E8CAF88B5F81C804FF68F7008EA67
:104D300000084FF6FC7008EA0008208840EA0808DE
:104D40004FF6FF50064020894FF6FF7101EA002020
:104D50000643608801EA002006432948854202D0C4
:104D60002848854264D1A08810B1A088042800D1C9
:104D700005E04FF4F071AFF20840FCF757FE608990
:104D800010B16089082800D105E040F2E111AFF2CE
:104D90002040FCF74BFEE089B0F5007F01D0E089B0
:104DA00000B905E04FF4F171AFF23C40FCF73EFE74
:104DB000A089B0F5807F01D0A08900B905E040F25C
:104DC000E311AFF25440FCF731FE4FF2FF700640A2
:104DD00060894FF6FF7101EA002006434FF6FF306D
:104DE0000640A08801EA002006434EF6FF70074007
:104DF0004DF6FF700740A08901EA0010074313E059
:104E0000002C0140003401400040014000440140BA
:104E1000004801400004004000080040000C004031
:104E2000004C014000180040E08901EA00100743EF
:104E3000AF80A5F81C80E088A8872E84BDE8F081AB
:104E40002DE9F04104460D4600270026B046F848FB
:104E500084420ED0B4F1804F0BD0F648844208D083
:104E6000F548844205D0F548844202D0F448844293
:104E700000D105E04FF40471AFF20C50FCF7D6FD01
:104E8000288870B1288810280BD02888202808D0BE
:104E90002888302805D02888602802D028887028E3
:104EA00000D105E040F21121AFF23C50FCF7BEFD0D
:104EB000688810B16888012800D105E040F212210D
:104EC000AFF25450FCF7B2FD288910B128890228AE
:104ED00000D105E040F21321AFF26C50FCF7A6FDC3
:104EE000208C4EF6FF7108402084268CB4F8048094
:104EF000A78B48F6FF7007404FF6FF400740288811
:104F00004FF6FF7101EA002007434DF6FF7006409F
:104F1000288901EA00300643688801EA0030064328
:104F2000C348844202D0C648844217D1A889B0F54C
:104F3000807F01D0A88900B905E04FF40C71AFF271
:104F4000D050FCF773FD4BF6FF7008EA0008A88903
:104F50004FF6FF7101EA801040EA0808A4F80480C7
:104F6000A783E888A4F840002684BDE8F08170B5E6
:104F700004460D46AE4884420ED0B4F1804F0BD0AB
:104F8000AC48844208D0AC48844205D0AB48844247
:104F900002D0AB48844200D105E040F67611AFF272
:104FA0003060FCF743FD2DB1042D03D0082D01D056
:104FB0000C2D00D105E040F67711AFF24C60FCF704
:104FC00035FDA08B4FF2FF310840A083A08B4FF638
:104FD000FF7101EA05210843A08370BDF0B50C46BE
:104FE0001546002200210026078C4EF6FF7C07EABA
:104FF0000C070784828B018C4FF6FF7707EA043693
:1050000040F6FF473A404FF6FF7707EA05273A4355
:105010004FF6FF7707EA03373A43854FB8420ED081
:10502000874FB8420BD0B0F1804F08D0814FB842C3
:1050300005D0814FB84202D0804FB84206D14DF61C
:10504000FF77394046F48057394305E047F6FF576C
:10505000394044F48057394382830184F0BD70B5F0
:1050600004460D46724884420ED0B4F1804F0BD0F6
:105070007048844208D07048844205D06F4884420A
:1050800002D06F48844200D105E04FF41661AFF2C0
:105090002070FCF7CBFC2DB1042D03D0082D01D0DE
:1050A0000C2D00D105E040F66111AFF23C70FCF729
:1050B000BDFCA08B4FF6F3710840A083A08B284362
:1050C000A08370BDF0B50C461546002200210026D5
:1050D000078C4FF6FF6C07EA0C070784828B018C64
:1050E0004FF6FF7707EA04264FF60C773A404FF663
:1050F000FF7707EA03172F433A434D4FB8420ED0CC
:105100004F4FB8420BD0B0F1804F08D0494FB84252
:1051100005D0494FB84202D0484FB84206D14FF6A9
:10512000FF57394046F48077394305E04FF2FF5787
:10513000394044F48077394382830184F0BD70B5EF
:1051400004460D463A48844217D0B4F1804F14D03B
:105150003848844211D0384884420ED037488442BF
:105160000BD03748844208D03648844205D03648B0
:10517000844202D03548844200D105E040F64A110D
:10518000AFF61400FCF752FC2DB1042D03D0082D0E
:1051900001D00C2D00D105E040F64B11AFF63000E8
:1051A000FCF744FC208B4FF2FF3108402083208B1A
:1051B0004FF6FF7101EA05210843208370BDF0B569
:1051C0000C461546002200210026078C4FF6EF7C86
:1051D00007EA0C070784028B018C4FF6FF7707EA7A
:1051E000041640F6FF473A404FF6FF7707EA0337C9
:1051F0003A434FF6FF7707EA05273A430C4FB84288
:105200000ED00F4FB8420BD0B0F1804F08D0094FED
:10521000B84205D0084FB84202D0084FB84217D163
:105220004FF6DF77394046F01007394316E00000AB
:10523000002C01400004004000080040000C004029
:1052400000340140004C0140001800400040014083
:105250004FF65F77394044F01007394302830184E9
:10526000F0BD70B504460D46FB48844229D0B4F128
:10527000804F26D0F948844223D0F948844220D078
:10528000F84884421DD0F84884421AD0F748844236
:1052900017D0F748844214D0F648844211D0F6481B
:1052A00084420ED0F54884420BD0F548844208D0A1
:1052B000F448844205D0F448844202D0F348844242
:1052C00000D105E040F63411AFF65C10FCF7AEFB00
:1052D0002DB1042D03D0082D01D00C2D00D105E0F7
:1052E00040F63511AFF67810FCF7A0FB208B4FF697
:1052F000F37108402083208B2843208370BDF0B5D4
:105300000C46154600220021068C4FF6FE773E40E3
:105310000684028B018C4FF60C7632407E1C06EA26
:1053200003162E433243CC4EB0420ED0CE4EB04286
:105330000BD0B0F1804F08D0C84EB04205D0C84E57
:10534000B04202D0C74EB04206D14FF6FD76314092
:1053500044F00106314305E04FF6F576314044F064
:105360000106314302830184F0BD70B504460D4649
:10537000288840B12888042805D02888082802D029
:1053800028880C2800D105E040F24E21AFF62020FD
:10539000FCF74CFBA888012805D0A888022802D079
:1053A000A888032800D105E040F24F21AFF6402045
:1053B000FCF73CFBE88840B1E888042805D0E88881
:1053C000082802D0E8880C2800D105E04FF41471B9
:1053D000AFF66420FCF72AFB28890F2800DC05E0E3
:1053E00040F25121AFF67820FCF720FB9A48844226
:1053F0000ED09D4884420BD0B4F1804F08D097481E
:10540000844205D09648844202D0964884420CD10A
:10541000688810B16888022800D115E040F2562152
:10542000AFF6B420FCF702FB0EE0688828B168886C
:10543000022802D068880A2800D105E040F25A21EB
:10544000AFF6D420FCF7F2FA2888E0BB8248844209
:1054500029D0B4F1804F26D08048844223D08048A0
:10546000844220D07F4884421DD07F4884421AD095
:105470007E48844217D07E48844214D07D488442BE
:1054800011D07D4884420ED07C4884420BD07C48A9
:10549000844208D07B48844205D07B48844202D0B5
:1054A0007A48844200D105E040F25E21AFF64030F8
:1054B000FCF7BCFA2B89AA8869882046FFF71FFFF2
:1054C000E988204600E002E0FFF7CBFE79E028887B
:1054D00004282CD16048844217D0B4F1804F14D0F6
:1054E0005E48844211D05E4884420ED05D488442BA
:1054F0000BD05D48844208D05C48844205D05E48A9
:10550000844202D05F48844200D105E04FF41A7112
:10551000AFF6A430FCF78AFA2B89AA88698820465E
:10552000FFF74DFEE9882046FFF709FE49E028888D
:10553000082823D1484884420ED0B4F1804F0BD0C4
:105540004648844208D04648844205D045488442B3
:1055500002D04548844200D105E040F27221AFF606
:10556000F030FCF763FA2B89AA8869882046FFF798
:10557000A9FDE9882046FFF772FD22E03648844203
:105580000ED0B4F1804F0BD03448844208D0344858
:10559000844205D03348844202D03348844200D14B
:1055A00005E04FF41F71AFF63840FCF73FFA2B8946
:1055B000AA8869882046FFF711FDE9882046FFF791
:1055C000D6FC70BD2DE9F04105460C4600260127AA
:1055D0002148854217D0B5F1804F14D01F4885422D
:1055E00011D01F4885420ED01E4885420BD01E4860
:1055F000854208D01D48854205D01F48854202D00B
:105600002048854200D105E040F29321AFF6A0404A
:10561000FCF70CFA608808B9022600E00026A08892
:10562000012801D1022700E00127208880BB2389BF
:10563000A28861882846FFF762FEE1882846FFF7C6
:1056400010FE23893A4631462846FFF7B8FDE18827
:105650002846FFF774FD30E0002C014000040040B4
:1056600000080040000C004000340140004C0140A4
:10567000005001400054014000180040001C004050
:10568000002000400040014000440140004801402B
:10569000FFE72389A28861882846FFF790FDE1880B
:1056A0002846FFF74CFD23893A4631462846FFF746
:1056B00026FEE1882846FFF7D4FDBDE8F08170B5ED
:1056C00005460C46FE4885420BD0FE48854208D070
:1056D000FD48854205D0FD48854202D0FC48854200
:1056E00000D105E040F2CB21AFF67C50FCF79EF9EB
:1056F0002088B0F5006F01D0208800B905E04FF494
:105700003371AFF69450FCF791F96088B0F5806F73
:1057100001D0608800B905E040F2CD21AFF6B0506D
:10572000FCF784F9A08858B1A088B0F5807F07D035
:10573000A088B0F5007F03D0A088B0F5407F00D1ED
:1057400005E040F2CE21AFF6D850FCF76FF9208982
:10575000B0F5805F01D0208900B905E040F2CF218B
:10576000AFF6F450FCF762F9608918B16089B0F5C2
:10577000005F00D105E04FF43471AFF60C60FCF728
:1057800055F9A089B0F5804F01D0A08900B905E096
:1057900040F2D121AFF62860FCF748F920886188F3
:1057A0000843A1880843E1880843218908436189A7
:1057B0000843A1890843A5F8440070BD4FF6FF7166
:1057C000818000210180C1804180017270470021E9
:1057D000018041808180C180018141818181C181BD
:1057E0007047002101804180012181800021C1801A
:1057F000018170470021018041808180C180018149
:1058000041818181704770B504460D46AC488442A1
:105810002FD0B4F1804F2CD0AE48844229D0AE486E
:10582000844226D0AD48844223D0AD48844220D063
:10583000AC4884421DD0A34884421AD0AA4884426E
:1058400017D0AA48844214D0A948844211D0A9484C
:1058500084420ED0A84884420BD0A848844208D085
:105860009948844205D09948844202D0984884429D
:1058700000D105E040F22931AFF60C70FCF7D6F804
:105880000DB1012D00D105E040F22A31AFF62070B4
:10589000FCF7CCF825B1208840F00100208004E01E
:1058A00020884FF6FE710840208070BD70B5044618
:1058B0000D46834884420BD08248844208D08248F7
:1058C000844205D08148844202D08148844200D17C
:1058D00005E040F24231AFF66870FCF7A7F80DB171
:1058E000012D00D105E040F24331AFF67C70FCF7AA
:1058F0009DF835B1B4F8440040F40040A4F84400E9
:1059000005E0B4F84400C0F30E00A4F8440070BDF4
:1059100070B504460D461646694884422FD0B4F14E
:10592000804F2CD06B48844229D06B48844226D0CB
:105930006A48844223D06A48844220D0694884421D
:105940001DD0604884421AD06748844217D0674807
:10595000844214D06648844211D0664884420ED0F6
:10596000654884420BD06548844208D0564884423A
:1059700005D05648844202D05548844200D104E004
:1059800040F26B315E48FCF751F805F47F4008B9EE
:1059900005B104E04FF45B715948FCF747F80EB1CC
:1059A000012E00D104E040F26D315548FCF73EF87D
:1059B0001EB1A0892843A08102E0A089A843A0814C
:1059C00070BD70B504460D463D4884422FD0B4F1F9
:1059D000804F2CD03F48844229D03F48844226D073
:1059E0003E48844223D03E48844220D03D488442F1
:1059F0001DD0344884421AD03B48844217D03B48DB
:105A0000844214D03A48844211D03A4884420ED09D
:105A1000394884420BD03948844208D02A4884420D
:105A200005D02A48844202D02948844200D104E0AB
:105A30004FF464713248FBF7F9FF05F47F4008B971
:105A400005B104E040F291312D48FBF7EFFFA5824C
:105A500070BD70B506460C4615461948864217D0EB
:105A6000B6F1804F14D01B48864211D01A488642A6
:105A70000ED01A4886420BD01248864208D01248EF
:105A8000864205D01148864202D01148864200D194
:105A900004E04FF46B711A48FBF7C8FF94B3012C74
:105AA00045D0022C43D0032C41D0042C3FD0052CF0
:105AB0003DD0062C3BD0072C39D0082C37D022E023
:105AC000002C0140003401400040014000440140EE
:105AD000004801400004004000080040000C004065
