:020000040800F2
:10000000C8080020ED0F0008590200085B02000834
:100010005F02000863020008670200080000000099
:100020000000000000000000000000006B0200085B
:100030006D020008000000006F0200087102000855
:100040000710000807100008071000080710000834
:100050000710000807100008071000080710000824
:100060000710000807100008071000080710000814
:100070000710000807100008071000080710000804
:1000800007100008071000080710000807100008F4
:1000900007100008071000080710000807100008E4
:1000A00007100008071000080710000807100008D4
:1000B00007100008CF0F00080710000807100008FD
:1000C00007100008071000080710000807100008B4
:1000D00007100008370D0008071000080710000877
:1000E0000710000807100008071000080710000894
:1000F0000710000807100008071000080710000884
:100100000710000807100008071000080710000873
:10011000090F0008AB0D00080710000807100008C1
:100120000710000807100008071000080710000853
:1001300000F002F800F042F80AA090E8000C8244B7
:100140008344AAF10107DA4501D100F037F8AFF294
:10015000090EBAE80F0013F0010F18BFFB1A43F0A5
:1001600001031847606D0000806D0000103A24BF45
:1001700078C878C1FAD8520724BF30C830C144BF0C
:1001800004680C607047000000230024002500264E
:10019000103A28BF78C1FBD8520728BF30C148BFEA
:1001A0000B607047642906F07384732906F0B885E4
:1001B000002070471FB51FBD10B510BD06F040FEF2
:1001C0001146FFF7F7FF00F009F806F05EFE03B4F2
:1001D000FFF7F2FF03BC00F045FD000000F0D8FC83
:1001E0004FF4A06000F022FF00F034F94FF41650F5
:1001F00000F055FD4FF4165000F037FE41F61F4158
:1002000041F2873000F0B6FE0AA006F0D7FB00F0FE
:10021000C0FB0CA006F0D2FB0BE04FF4FA7000F02C
:10022000F4FC0C48006808B9012000E000200949EE
:100230000860F2E753797374656D20496E69740D37
:100240000A0000004465766963657320496E69742D
:100250000D0A000090012242704700BFFEE700BF78
:10026000FEE700BFFEE700BFFEE77047704770473C
:10027000704700000CB50020019000906C480068A9
:1002800040F480306A49086000BF6948006800F4A3
:10029000003000900198401C0190009818B9019816
:1002A000B0F5A06FF1D16248006800F4003010B1E1
:1002B0000120009001E0002000900098012843D127
:1002C0005C48006840F010005A4908600846006821
:1002D00020F0030008600846006840F00200086053
:1002E000534840685249486008464068486008469C
:1002F000406840F4806048600846406820F47C1004
:1003000048600846406840F4E810486008460068C5
:1003100040F08070086000BF4548006800F0007041
:100320000028F9D04248406820F003004049486066
:100330000846406840F00200486000BF3C48406802
:1003400000F00C000828F9D10CBD10B5FFF792FFA2
:1003500010BD10B53648006840F00100344908600F
:1003600008464068344908403149486008460068FA
:10037000324908402E4908600846006820F4802071
:1003800008600846406820F4FE0048604FF41F00F3
:100390008860FFF7DAFF4FF000602949086010BD60
:1003A00010B5002100200022214B5B6803F00C01F6
:1003B00021B1042906D0082928D107E0214B224C7D
:1003C000236027E01F4B204C236023E0184B5B6821
:1003D00003F47010164B5B6803F48032022303EBC6
:1003E000904022B9194B4343174C23600DE0104B4A
:1003F0005B6803F4003323B1144B4343124C236076
:1004000003E0104B4343104C236003E00D4B0E4CB4
:10041000236000BF00BF064B5B68C3F303130C4CA3
:10042000E15C094B1B68CB40074C236010BD00000A
:1004300000100240002002400000FFF8FFFFF6FE1F
:1004400008ED00E000127A000000002000093D00E5
:100450000400002008B50121102001F0FAFE102050
:10046000ADF800008DF8030003208DF80200694606
:10047000034800F03FFF1021014801F00EF908BDCC
:100480000010014010B50446242C02D10020804900
:1004900008807F4801880088401C7D4A10807D4884
:1004A0004454007824281ED17A4800794D281AD166
:1004B00078484079432816D10A2C14D15021764827
:1004C00006F09DFB724802887249734806F052FBA1
:1004D0000120714981F8500000206D490880C82131
:1004E0006C4806F08CFB6A480088C82802DBC820EC
:1004F0006749088010BDF8B50026674890F850009D
:10050000002860D00020644981F8500000BF58E006
:100510002EB962A1604806F0F7FA04464FE0641C69
:100520005EA1204606F0F0FA050048D0072E2ED234
:10053000DFE806F02D040B11181F26002A1B2146A8
:100540005548523006F016FB22E02A1B2146684629
:1005500006F010FB1CE02A1B21464F485D3006F0D8
:1005600009FB15E02A1B21464B48683006F002FBC8
:100570000EE02A1B214648486A3006F0FBFA07E0E5
:100580002A1B21464448763006F0F4FA00E000BF0A
:1005900000BF2C460120404981F851009DF8000021
:1005A000412803D1012081F8780007E09DF8000080
:1005B000562803D10020384981F8780000BF701C0C
:1005C000C6B2062EA4DDF8BD10B5FFF794FF0020DB
:1005D00010BD10B5304890F85100002856D00020CA
:1005E0002D4981F851002EA1304806F09FFA2A4982
:1005F00052312E48083006F099FA2C492CA006F00A
:10060000DDF9254890F8780000283CD000202249E8
:1006100081F8780028A1254806F088FA1E495D3146
:100620002248093006F082FA204921A006F0C6F9D6
:1006300024A11E4806F07AFA174968311B48001DAC
:1006400006F074FA19491AA006F0B8F91FA1174864
:1006500006F06CFA10496A3114480A3006F066FA5E
:10066000124913A006F0AAF91BA1104806F05EFA81
:10067000094976310D48001D06F058FA0B490CA0C7
:1006800006F09CF902E016A006F098F910BD0000F3
:1006900014000020B50000203C0000202C000000C9
:1006A00055544354696D652C000000007D01002005
:1006B00025730D0A000000006C617469747564652F
:1006C0002C0000004E5F532C000000006C6F6E6722
:1006D00069747564652C0000455F572C00000000AC
:1006E0004750532044415441206973206E6F742059
:1006F00075736566756C6C210D0A0000B8490A783F
:100700000978491CB64B1970B649885419460978BE
:10071000C82902DB00211A4611707047B2480078E0
:1007200070B1B2480078401CC0B2B04908700228CD
:1007300006DB00200870AE480078401CAC49087009
:10074000704710B504460BE000BF4021A94802F0F5
:1007500009FC0028F9D014F8011BA64802F023FA7E
:1007600020780028F0D110BD10B5044600BF40210C
:10077000A04802F0F7FB0028F9D021469D4802F07E
:1007800012FA10BD002004E00021964A1154411CC9
:1007900088B2C828F8DB0021914A117070472DE912
:1007A000F04104460E4615462746FFF7EBFF0020B2
:1007B0008F4908708C4908702EE03146894806F050
:1007C000A3F900BB8848007878B93C462046FFF77B
:1007D000B8FF89A0FFF7B5FF00208449087084495D
:1007E000087001208049087016E081480078A8420E
:1007F00012DB00207E4908707B490870FFF7C2FFBA
:100800000020BDE8F0810020794908707649087021
:10081000FFF7B8FF0120F4E7CFE72DE9F0410646E6
:100820000F4690461C4600250DE0642000F0EDF9CF
:10083000424639463046FFF7B2FF10B10120BDE80D
:10084000F081681CC5B2A542EFDD0020F7E710B5C6
:100850006AA0FFF776FF032314226CA16DA0FFF7B7
:10086000DCFF20B96EA006F0A9F8002010BD03231C
:100870000A2271A171A0FFF7D0FF20B973A006F082
:100880009DF80020F2E703230A226BA175A0FFF771
:10089000C4FF20B97AA006F091F80020E6E7032310
:1008A0000A2265A17CA0FFF7B8FF20B97DA006F061
:1008B00085F80020DAE703230A225FA17FA0FFF773
:1008C000ACFF20B983A006F079F80020CEE703231F
:1008D0000A2259A187A0FFF7A0FF20B989A006F03E
:1008E0006DF80020C2E703230A2253A18D48006857
:1008F000FFF793FF20B98CA006F060F80020B5E761
:10090000642000F082F9FFF73DFF0120AEE710B54B
:10091000032249A18AA0FFF742FF10BD70B5002550
:10092000FFF730FF88A0FFF70CFF4FF4FA7000F0DC
:100930006CF900BF29E0002423E02A48005D3A2832
:1009400014D12849201D085C312803D0201D085CE3
:10095000352801D1012070BDC72C10DB7AA0FFF72C
:10096000F0FE4FF4FA7000F050F908E0C72C06DBF7
:1009700075A0FFF7E6FE4FF4FA7000F046F9601C30
:10098000C4B2C82CD9DB681CC5B21E2DD3DB002035
:10099000E1E710B5FFF7C2FF20B96EA006F00EF830
:1009A000002010BDFFF7B3FFFFF751FF10B96DA096
:1009B00006F004F8FF20F4E710B504464FF47A700F
:1009C00000F023F902226DA16DA0FFF7E8FE20469A
:1009D000FFF7B7FE6DA0FFF7B4FE002010BD0000CA
:1009E000180000209B0100201B000020190000209F
:1009F0001A000020004C00400D0A000041542B4317
:100A00004950434C4F53453D310000005348555425
:100A1000204F4B0041542B4349505348555400003C
:100A200053494D20B9D8B1D5D2C6B6AFB3A1BEB0E7
:100A3000CAA7B0DC0D0A00004F4B000041542B4305
:100A400047434C4153533D224222000053494D201D
:100A5000C9E8D6C3D2C6B6AFC6BDCCA8CAA7B0DC5B
:100A60000D0A000041542B434744434F4E543D313F
:100A70002C224950222C22434D4E45542200000086
:100A800053494D20C9E8D6C3504450C9CFCFC2CE38
:100A9000C4CAA7B0DC0D0A0041542B43474154544B
:100AA0003D31000053494D20B8BDD7C54750525382
:100AB000D2B5CEF1CAA7B0DC0D0A000041542B43D9
:100AC0004950435347503D312C22434D4E4554220B
:100AD0000000000053494D20C9E8D6C3CEAA4750B4
:100AE0005253C1ACBDD3C4A3CABDCAA7B0DC0D0A62
:100AF0000000000041542B434950484541443D31DA
:100B00000000000053494D20C9E8D6C3BDD3CAD563
:100B1000CAFDBEDDCFD4CABE4950CDB7CAA7B0DC2E
:100B20000D0A00001C00002053494D20C9E8D6C31F
:100B3000B7FECEF1C6F74950CAA7B0DC0D0A0000D7
:100B4000415445300000000041542B435245473F7B
:100B50000D0A000053494D20D7A2B2E1CAA7B0DC6C
:100B60000D0A000053494D20C1ACBDD3B7FECEF1F4
:100B7000C6F7CAA7B0DC0D0A000000003E00000066
:100B800041542B43495053454E4400001A00000085
:100B900010B56FF0040000F0F8FA2E4800682E49F6
:100BA000B0FBF1F02D4908700846007800EB4001D9
:100BB000C1EBC0104FF6FF7101EAC0002849088060
:100BC00010BD0146254A12784A434FF0E0235A618E
:100BD00000229A611A46126942F001021A6100BFAE
:100BE0004FF0E022106900F001021AB100F48032E7
:100BF000002AF5D04FF0E022126922F001024FF0F6
:100C0000E0231A6100229A6170470146144A128853
:100C10004A434FF0E0235A6100229A611A46126952
:100C200042F001021A6100BF4FF0E022106900F0AB
:100C300001021AB100F48032002AF5D04FF0E02210
:100C4000126922F001024FF0E0231A6100229A613A
:100C5000704700000000002000127A0020000020F1
:100C600022000020014600BF0020704700BFB74AA5
:100C7000128802F04002002AF9D0C2B2B34B1B1D09
:100C80001A80704704460D4608E04FF4FA70FFF7EB
:100C9000BCFF2A462146AEA005F090FEF5E710B550
:100CA00086B00446012144F2040001F0D2FA4FF468
:100CB0000070ADF8140003208DF8160018208DF890
:100CC000170005A9A64800F015FB4FF48060ADF8A9
:100CD000140004208DF8170005A9A14800F00AFBB4
:100CE00025208DF8000003208DF801008DF802000A
:100CF00001208DF80300684600F0B3F9019400204C
:100D0000ADF80800ADF80A00ADF80C00ADF8100021
:100D10000C20ADF80E0001A98C4801F016FC012250
:100D200040F22551894801F081FD0121874801F0F9
:100D300050FD06B010BD10B540F22551834802F0B9
:100D4000A0F980B1814801F055FFC4B200BF402135
:100D5000844802F007F90028F9D02146621CD4B279
:100D6000804801F020FF10BD10B504460BE000BF25
:100D70004021764802F0F6F80028F9D0217873482F
:100D800001F011FF641C20780028F0D110BD10B5CF
:100D9000044600BF40216D4802F0E4F80028F9D075
:100DA00021466A4801F0FFFE10BD10B540F2255102
:100DB0006D4802F066F930B16B4801F01BFFC4B218
:100DC0002046FFF75FFB10BD10B586B00446012139
:100DD000080501F067FA0121102001F03AFA01211B
:100DE000202001F036FA4FF48050ADF814000320B3
:100DF0008DF8160018208DF8170005A95B4800F043
:100E000079FA0420ADF814008DF8170005A95848A8
:100E100000F070FA35208DF8000004208DF80100F4
:100E20008DF8020001208DF80300684600F019F9E2
:100E300001940020ADF80800ADF80A00ADF80C00F0
:100E4000ADF810000C20ADF80E0001A9464801F0E5
:100E50007CFB012240F22551434801F0E7FC0121CF
:100E6000414801F0B6FC06B010BD10B586B004468E
:100E70000121C80401F016FA0121102001F0E9F95E
:100E80004FF48060ADF8140003208DF81600182090
:100E90008DF8170005A9354800F02CFA4FF40060D2
:100EA000ADF8140004208DF8170005A92F4800F0B4
:100EB00021FA34208DF8000003208DF801008DF810
:100EC000020001208DF80300684600F0CAF8019482
:100ED0000020ADF80800ADF80A00ADF80C00ADF840
:100EE00010000C20ADF80E0001A91E4801F02DFBEA
:100EF000012240F225511B4801F098FC01211948BC
:100F000001F067FC06B010BD10B540F22551154840
:100F100002F0B7F830B1134801F06CFEC4B22046BD
:100F2000FFF7ECFB10BD10B504460BE000BF4021FD
:100F30000C4802F017F80028F9D014F8011B0948F2
:100F400001F031FE20780028F0D110BD00380140BA
:100F50004572726F723A25730925640D0A0000000C
:100F600000080140004C00400050004000100140CB
:100F7000001401407FB505460C460121022001F016
:100F800091F9ADF80850ADF804400020ADF80A0022
:100F9000ADF8060001A9144802F064FA1D208DF88E
:100FA000000001208DF8010003208DF802000120CF
:100FB0008DF80300684600F054F8012211460A48F3
:100FC00003F028FB0121084803F09FFA7FBD10B50C
:100FD0000121054805F01FFC28B10121024805F058
:100FE00080FCFFF79BFB10BD0004004009488047D0
:100FF00009480047FEE7FEE7FEE7FEE7FEE7FEE7FB
:10100000FEE7FEE7FEE7FEE704480549054A064B12
:10101000704700005303000831010008C802002097
:10102000C8080020C8040020C804002010B50446E9
:10103000B4F5E06F0BD0B4F5C06F08D0B4F5A06F75
:1010400005D0B4F5806F02D0B4F5407F00D103E045
:1010500063215DA0FFF716FE6348204363490860E3
:1010600010BD2DE9F0410446002500270F26E07849
:1010700010B1E078012800D103E0752152A0FFF7FC
:1010800001FE6078102800DA03E076214EA0FFF719
:10109000F9FDA078102800DA03E077214AA0FFF7D5
:1010A000F1FDE07800B35148006800F4E060C0F55D
:1010B000E060050AC5F10407EE40607800FA07F524
:1010C000A078304005432D01494822788554207886
:1010D00000F01F010120884021784911890001F1A9
:1010E000E021C1F8000109E0207800F01F01012093
:1010F000884040492278521141F82200BDE8F08131
:1011000070B504460D46B4F1005F02D0B4F1006F33
:1011100000D103E09F212CA0FFF7B4FD36488542A3
:1011200000D203E0A02128A0FFF7ACFD334905EA77
:10113000010020432D49091F086070BD70B50446A9
:101140000D46102C03D0042C01D0022C00D103E05A
:10115000B2211DA0FFF796FD0DB1012D00D103E0D6
:10116000B32119A0FFF78EFD3DB12048001D006896
:1011700020431E49091D086006E01C48001D006848
:10118000A0431A49091D086070BD10B50446042C1F
:1011900001D0601D00B903E0CA210BA0FFF772FD6A
:1011A000042C08D14FF0E020006940F004004FF01B
:1011B000E021086107E04FF0E020006920F0040022
:1011C0004FF0E021086110BD2E2E5C53544D333298
:1011D000463130785F46574C69625C7372635C6D70
:1011E0006973632E630000000000FA050CED00E057
:1011F00000E400E080E100E0FFFF0F0080FFFF1F40
:1012000010B50446FC48844211D0FC4884420ED0FC
:10121000FB4884420BD0FB48844208D0FA48844201
:1012200005D0FA48844202D0F948844200D103E054
:101230006F21F8A0FFF726FDEF48844208D1012175
:10124000042001F058F80021042001F054F846E091
:10125000EA48844208D10121082001F04CF800211D
:10126000082001F048F83AE0E548844208D101211D
:10127000102001F040F80021102001F03CF82EE091
:10128000E048844208D10121202001F034F80021F7
:10129000202001F030F822E0DB48844208D101210F
:1012A000402001F028F80021402001F024F816E049
:1012B000D648844208D10121802001F01CF8002189
:1012C000802001F018F80AE0D148844207D10121BA
:1012D000801501F010F80021A01501F00CF810BDE8
:1012E00010B50121084601F006F80021012001F0A7
:1012F00002F810BD2DE9F05F05460C464FF00009DD
:10130000CA4600260027B046B346BB48854211D0E6
:10131000BA4885420ED0BA4885420BD0B9488542BA
:1013200008D0B948854205D0B848854202D0B848AF
:10133000854200D103E0B221B6A0FFF7A3FCE0781C
:10134000A0B1E078042811D0E07828280ED0E07809
:1013500048280BD0E078142808D0E078102805D071
:10136000E0781C2802D0E078182800D103E0B321EF
:10137000A8A0FFF787FC002010B9208800B103E087
:10138000B421A4A0FFF77EFCE07800F00F09E0781C
:1013900000F0100080B1A078012805D0A0780228C4
:1013A00002D0A078032800D103E0BB2199A0FFF769
:1013B00069FCA07840EA0909207838B3D5F80080A4
:1013C00000261FE0012000FA06F7208800EA070A3D
:1013D000BA4516D1B7000F2000FA07FB28EA0B0820
:1013E00009FA07F040EA0808E078282803D101202C
:1013F000B040686105E0E078482802D10120B040A3
:101400002861761C082EDDD3C5F800802088FF28CF
:101410002BDDD5F80480002623E006F10800012129
:1014200001FA00F7208800EA070ABA4518D1B70088
:101430000F2000FA07FB28EA0B0809FA07F040EA38
:101440000808E078282803D106F108008140696186
:10145000E078482804D106F1080001218140296183
:10146000761C082ED9D3C5F80480BDE8F09F4FF64E
:10147000FF710180022181700421C170704770B535
:1014800005460C4600265C48854211D05B488542E3
:101490000ED05B4885420BD05A48854208D05A4846
:1014A000854205D05948854202D05948854200D12D
:1014B00004E04FF48F7157A0FFF7E4FB012C25D017
:1014C000022C23D0042C21D0082C1FD0102C1DD08E
:1014D000202C1BD0402C19D0802C17D0B4F5807F45
:1014E00014D0B4F5007F11D0B4F5806F0ED0B4F5F0
:1014F000006F0BD0B4F5805F08D0B4F5005F05D065
:10150000B4F5804F02D0B4F5004F00D104E040F2B2
:101510001F1140A0FFF7B6FBA868204008B10126C4
:1015200000E00026304670BD10B5044632488442C3
:1015300011D0324884420ED0314884420BD0314819
:10154000844208D03048844205D03048844202D0DA
:101550002F48844200D104E04FF49A712DA0FFF788
:1015600091FBA06880B210BD70B505460C46002600
:101570002148854211D0214885420ED0204885421D
:101580000BD02048854208D01F48854205D01F480F
:10159000854202D01E48854200D104E04FF4A2717A
:1015A0001CA0FFF76FFB012C25D0022C23D0042CAC
:1015B00021D0082C1FD0102C1DD0202C1BD0402C4B
:1015C00019D0802C17D0B4F5807F14D0B4F5007FEB
:1015D00011D0B4F5806F0ED0B4F5006F0BD0B4F518
:1015E000805F08D0B4F5005F05D0B4F5804F02D01D
:1015F000B4F5004F22D127E000080140000C014063
:10160000001001400014014000180140001C01407E
:10161000002001402E2E5C53544D33324631307839
:101620005F46574C69625C7372635C73746D3332EE
:10163000663130785F6770696F2E630040F2451144
:10164000AFF23000FFF71EFBE868204008B101262A
:1016500000E00026304670BD10B50446FE488442C6
:1016600011D0FE4884420ED0FD4884420BD0FD4884
:10167000844208D0FC48844205D0FC48844202D011
:10168000FB48844200D105E04FF4AD71AFF27C001D
:10169000FFF7F8FAE06880B210BD70B504460D4659
:1016A000ED48844211D0ED4884420ED0EC4884428B
:1016B0000BD0EC48844208D0EB48844205D0EB487C
:1016C000844202D0EA48844200D105E040F2691128
:1016D000AFF2C000FFF7D6FA002008B905B105E067
:1016E0004FF4B571AFF2D400FFF7CCFA256170BDAD
:1016F00070B504460D46D848844211D0D74884427C
:101700000ED0D74884420BD0D648844208D0D64861
:10171000844205D0D548844202D0D548844200D1C5
:1017200005E040F27911AFF21410FFF7ABFA002098
:1017300008B905B105E04FF4BD71AFF22810FFF70D
:10174000A1FA656170BD70B505460C461646C248E3
:10175000854211D0C14885420ED0C14885420BD088
:10176000C048854208D0C048854205D0BF48854260
:1017700002D0BF48854200D105E040F28D11AFF2A2
:101780006C10FFF77FFA012C25D0022C23D0042CFB
:1017900021D0082C1FD0102C1DD0202C1BD0402C69
:1017A00019D0802C17D0B4F5807F14D0B4F5007F09
:1017B00011D0B4F5806F0ED0B4F5006F0BD0B4F536
:1017C000805F08D0B4F5005F05D0B4F5804F02D03B
:1017D000B4F5004F00D105E04FF4C771AFF2CC1063
:1017E000FFF750FA0EB1012E00D105E040F28F1143
:1017F000AFF2E010FFF746FA0EB12C6100E06C6129
:1018000070BD70B504460D469348844211D093488C
:1018100084420ED0924884420BD09248844208D031
:101820009148844205D09148844202D09048844235
:1018300000D105E04FF4D271AFF22820FFF722FA71
:10184000E56070BD70B504460D464FF480368248A1
:10185000844211D0814884420ED0814884420BD00A
:101860008048844208D08048844205D07F48844222
:1018700002D07F48844200D105E040F2B511AFF2BA
:101880006C20FFF7FFF9002008B905B105E04FF41F
:10189000DB71AFF28020FFF7F5F92E43A661A56159
:1018A000A661A669A66970BD70B505460C460026FE
:1018B0003DB1012D05D0022D03D0032D01D0042D03
:1018C00000D105E04FF4E971AFF2B820FFF7DAF983
:1018D000ECB1012C1BD0022C19D0032C17D0042CF6
:1018E00015D0052C13D0062C11D0072C0FD0082CA6
:1018F0000DD0092C0BD00A2C09D00B2C07D00C2CA6
:1019000005D00D2C03D00E2C01D00F2C00D105E0FA
:1019100040F2D311AFF20430FFF7B4F9554806682E
:101920004FF68070064046EA051626435148066089
:1019300070BD10B504460CB1012C00D105E04FF488
:10194000F371AFF23030FFF79DF94B48C46110BD21
:101950002DE9F04704460E460027B8460025A94663
:10196000012C77D0022C75D0042C73D0082C71D0A8
:10197000424884426ED04148203084426AD0404878
:10198000844267D03E488030844263D03D488442E0
:1019900060D03D4884425DD03C4884425AD03C48A7
:1019A000844257D03B48844254D0B4F5805F51D034
:1019B000B4F5EA1F4ED0B4F5EB1F4BD0B4F5004F91
:1019C00048D03548844245D0401C844242D0801CD7
:1019D00084427FD0001D84427CD02F480F30844247
:1019E00078D0B4F1201F75D04FEAF030844271D026
:1019F0002A4884426ED02A4884426BD029488442C7
:101A000068D02948844265D02848844262D0B4F521
:101A1000011F5FD0264884425CD0401C844259D0CC
:101A2000801C844256D0001D844253D020480F3081
:101A300084424FD01E481F3084424BD01C483F3058
:101A4000844247D01A487F30844243D01848FF3040
:101A500084422FE03EE0000000080140000C0140FD
:101A6000001001400014014000180140001C01401A
:101A7000002001400000014000002042100014003E
:101A800040001600000118000002180000031800B2
:101A900000081A00000C1A000100200000013000AC
:101AA000000230000004300000112000002020005F
:101AB000010000800ED0664884420BD06548844205
:101AC00008D06548844205D06448844202D0644806
:101AD000844200D105E040F22A21AFF2C840FFF76E
:101AE000D1F80EB1012E00D105E040F22B21AFF26A
:101AF000DC40FFF7C7F804F00040B0F1004F02D11E
:101B00005848C56901E057484568C4F30349A7B27E
:101B100004F44010B0F5401F08D125F0706551481D
:101B2000406820F070604F49486013E004F4801072
:101B3000B0F5801F07D1032000FA09F825EA08054F
:101B400045F0706506E0600D000107FA00F085437E
:101B500045F0706526B1600D010107FA01F00543FB
:101B600004F00040B0F1004F02D13E48C56101E0F1
:101B70003C484560BDE8F08770B505460C46002638
:101B80005DB1012D09D0022D07D0032D05D0042D04
:101B900003D0052D01D0062D00D105E040F26521CE
:101BA000AFF29050FFF76EF8ECB1012C1BD0022C75
:101BB00019D0032C17D0042C15D0052C13D0062CCB
:101BC00011D0072C0FD0082C0DD0092C0BD00A2CCB
:101BD00009D00B2C07D00C2C05D00D2C03D00E2CCB
:101BE00001D00F2C00D105E040F26621AFF2DC50AD
:101BF000FFF748F8A007010F0F2000FA01F6194877
:101C00000830A11050F82100B04316490831A21045
:101C100041F822000846A11050F82100A107090F41
:101C200005FA01F108430F490831A21041F82200DA
:101C300070BD10B504460CB1012C00D105E04FF485
:101C40001E71AFF23060FFF71DF80748046010BD49
:101C50000002008000040080000800800010008066
:101C60000020008000000140DC002042FE480068A7
:101C700040F00100FC49086008464068FB49084004
:101C8000F949486008460068F9490840F649086083
:101C90000846006820F4802008600846406820F468
:101CA000FE0048604FF41F008860704710B504467E
:101CB0002CB1B4F5803F02D0B4F5802F00D104E000
:101CC00040F21111EBA0FEF7DDFFE748006820F4B9
:101CD0008030E54908600846006820F480200860EC
:101CE000B4F5803F03D0B4F5802F0ED106E0DE4876
:101CF000006840F48030DC49086007E0DA4800689A
:101D000040F4A020D849086000E000BF00BF10BD2B
:101D10002DE9F0410446002500260027212C13D090
:101D2000312C11D0392C0FD0412C0DD0612C0BD07F
:101D30007A2C09D07B2C07D07C2C05D07D2C03D0AD
:101D40007E2C01D07F2C00D104E040F23451C9A098
:101D5000FEF798FF6511012D02D1C348066806E021
:101D6000022D02D1C048066A01E0BF48466A04F06D
:101D70001F050120A840304008B1012700E00027DE
:101D80003846BDE8F08138B50020009000240025D9
:101D900000BF3120FFF7BCFF05460098401C0090B3
:101DA0000098B0F5A06F01D0002DF2D03120FFF7E0
:101DB000AFFF08B1012400E00024204638BD70B513
:101DC000044600251F2C00DC04E04FF4A971A9A0F3
:101DD000FEF758FFA448056825F0F80545EAC40554
:101DE000056070BD10B504460CB1012C00D104E0B3
:101DF00040F265119FA0FEF745FFA848046010BDA2
:101E000070B505460C4600262DB1B5F5803F02D0D1
:101E1000B5F5403F00D104E040F27F1195A0FEF7F8
:101E200031FF4CB3B4F5802F26D0B4F5002F23D06A
:101E3000B4F5402F20D0B4F5801F1DD0B4F5A01FFD
:101E40001AD0B4F5C01F17D0B4F5E01F14D0B4F504
:101E5000001F11D0B4F5101F0ED0B4F5201F0BD009
:101E6000B4F5301F08D0B4F5401F05D0B4F5501FAD
:101E700002D0B4F5601F00D104E04FF4C0717DA022
:101E8000FEF700FF7848466826F47C1645EA040011
:101E900006437548466070BD10B504460CB1012C70
:101EA00000D104E04FF4CA7172A0FEF7EBFE7B484C
:101EB000046610BD70B5044600251CB1012C01D08C
:101EC000022C00D104E04FF40E716AA0FEF7DAFE96
:101ED0006548456825F003052543456070BD6248A7
:101EE000406800F00C00704770B5044600257CB1D6
:101EF000802C0DD0902C0BD0A02C09D0B02C07D06A
:101F0000C02C05D0D02C03D0E02C01D0F02C00D177
:101F100004E04FF4197157A0FEF7B4FE524845682B
:101F200025F0F0052543456070BD70B504460025D9
:101F30005CB1B4F5806F08D0B4F5A06F05D0B4F5EE
:101F4000C06F02D0B4F5E06F00D104E040F27E2112
:101F500048A0FEF797FE4448456825F4E065254310
:101F6000456070BD70B5044600255CB1B4F5806F66
:101F700008D0B4F5A06F05D0B4F5C06F02D0B4F5A9
:101F8000E06F00D104E04FF426713AA0FEF77AFE2C
:101F90003548456825F4605545EAC405456070BD7F
:101FA00070B504460D4604F0E00008B904B104E041
:101FB00040F2BF212FA0FEF765FE0DB1012D00D12B
:101FC00004E04FF430712BA0FEF75CFE2DB12648E3
:101FD000407A20432449487204E02348407AA043D1
:101FE0002149487270BD10B504460CB1012C00D1D6
:101FF00004E040F2DB211FA0FEF744FE2748D83062
:10200000046010BD70B50446002544B1B4F5804F9E
:1020100005D0B4F5004F02D0B4F5404F00D104E034
:1020200040F2023113A0FEF72DFE0F48456825F45B
:1020300040452543456070BD10B504461CB1012CD8
:1020400001D0042C00D104E04FF4507109A0FEF738
:1020500019FE0020044920310870034981F820004E
:10206000012C1FD0042C1BE0001002400000FFF8E0
:10207000FFFFF6FE2E2E5C53544D3332463130783E
:102080005F46574C69625C7372635C73746D333284
:10209000663130785F7263632E6300000000424255
:1020A00008D103E00120F449087004E00520F2495A
:1020B000087000E000BF00BF10BD10B504460CB1B1
:1020C000012C00D105E040F26131AFF25800FEF77B
:1020D000D9FDEA48046010BD10B50446B4F5807F10
:1020E00005D0B4F5007F02D0B4F5407F00D105E003
:1020F00040F27231AFF28400FEF7C4FDDE482038B2
:10210000006A2043DC492039086210BD10B504463E
:102110000CB1012C00D105E04FF46071AFF2AC00BE
:10212000FEF7B0FDD5484438046010BD30B500213D
:10213000002200240023D04D203D6D6805F00C01E5
:1021400021B1042905D0082926D105E0CC4D056030
:1021500025E0CB4D056022E0C74D203D6D6805F4BC
:102160007012C54D203D6D6805F48034022505EBE5
:1021700092421CB9C34D554305600CE0BE4D203D55
:102180006D6805F400351DB1BE4D5543056002E094
:10219000BB4D5543056002E0B94D056000BF00BF6F
:1021A000B54D203D6D6805F0F0010909B64D6B5C39
:1021B0000568DD404560B04D203D6D6805F4E06187
:1021C000090AB14D6B5C4568DD408560AA4D203D34
:1021D0006D6805F46051C90AAB4D6B5C4568DD4024
:1021E000C560A54D203D6D6805F44041890BA74DA4
:1021F0006B5CC568B5FBF3F5056130BD70B5044691
:102200000D4640F2575024EA000008B904B105E039
:1022100040F22B41AFF2A410FEF734FD0DB1012DB9
:1022200000D105E040F22C41AFF2B810FEF72AFDD4
:102230003DB191482038406920438F492039486199
:1022400006E08D4820384069A0438B492039486119
:1022500070BD70B504460D468D48204008B904B1E4
:1022600005E040F24A41AFF2F410FEF70BFD0DB16C
:10227000012D00D105E040F24B41AFF20820FEF7FE
:1022800001FD3DB17C482038806920437A492039DE
:10229000886106E0784820388069A0437649203973
:1022A000886170BD70B504460D467A48204008B973
:1022B00004B105E040F26941AFF24820FEF7E2FCCC
:1022C0000DB1012D00D105E040F26A41AFF25C2072
:1022D000FEF7D8FC3DB168482038C0692043664904
:1022E0002039C86106E064482038C069A0436249CB
:1022F0002039C86170BD70B504460D466448204061
:1023000008B904B105E040F2A441AFF29820FEF70D
:10231000B9FC0DB1012D00D105E040F2A541AFF2AD
:10232000AC20FEF7AFFC3DB153482038C0682043D5
:1023300051492039C86006E04F482038C068A043A2
:102340004D492039C86070BD70B504460D465148EE
:10235000204008B904B105E040F2C341AFF2EC20DF
:10236000FEF790FC0DB1012D00D105E040F2C44113
:10237000AFF20030FEF786FC3DB13F4820380069DF
:1023800020433D492039086106E03B482038006978
:10239000A04339492039086170BD10B504460CB11D
:1023A000012C00D105E04FF49B61AFF23830FEF70D
:1023B00069FC32484038046010BD10B504460CB1C9
:1023C000012C00D105E040F2E541AFF25830FEF7B4
:1023D00059FC3148C46410BD10B504463CB1052C0D
:1023E00005D0042C03D0062C01D0072C00D105E029
:1023F00040F20551AFF28430FEF744FC1E4820380D
:10240000C47110BD1C482038406A40F080701A49E1
:1024100020394862704770B504460025012C09D068
:10242000022C07D0042C05D0082C03D0102C01D08E
:10243000802C00D105E040F27E51AFF2C830FEF7AB
:1024400021FC0D4820388068204008B1012500E0BB
:102450000025284670BD10B5044604F0600008B998
:1024600004B105E040F2AB51AFF2F830FEF70AFCE0
:1024700001482038847210BD20100240800442427E
:1024800000127A0000093D002800002038000020DA
:102490000200C0FF003601810000424210B5044630
:1024A000FE4884420BD0FE48844208D0FD48844256
:1024B00005D0FD48844202D0FC48844200D103E0AC
:1024C0008521FBA0FEF7DEFBF448844209D10121FF
:1024D0008803FFF710FF00214FF48040FFF70BFF48
:1024E00032E0EF48844209D101214804FFF72CFF74
:1024F00000214FF40030FFF727FF25E0E948844230
:1025000009D101218804FFF71FFF00214FF480202B
:10251000FFF71AFF18E0E448844209D10121C804FA
:10252000FFF712FF00214FF40020FFF70DFF0BE033
:10253000DE48844208D101210805FFF705FF00218C
:102540004FF48010FFF700FF10BD2DE9F04786B073
:1025500005460C460026B24600BFB1460027CF48CC
:1025600085420BD0CE48854208D0CE48854205D062
:10257000CD48854202D0CD48854200D103E0B82144
:10258000CBA0FEF77FFB206820B1D44920688842A9
:1025900000D203E0B921C6A0FEF774FBA08818B1F1
:1025A000A088B0F5805F00D103E0BA21C0A0FEF79B
:1025B00069FBE08858B1E088B0F5805F07D0E0881B
:1025C000B0F5005F03D0E088B0F5405F00D103E0D4
:1025D000BB21B7A0FEF756FB208938B12089B0F5A2
:1025E000806F03D02089B0F5C06F00D103E0BC211B
:1025F000AFA0FEF747FB60894FF6F371084010B9B2
:10260000608900B103E0BD21A9A0FEF73BFBA089D2
:1026100058B1A089B0F5807F07D0A089B0F5007FC0
:1026200003D0A089B0F5407F00D103E0BE21A0A077
:10263000FEF728FBA08968B19848854205D09848E4
:10264000854202D09748854200D103E0C22198A07C
:10265000FEF718FB2F462E8A4CF6FF700640E088E6
:1026600006432E82AE894EF6F3100640A0882189DB
:102670000843618908430643AE81AE8A4FF6FF40A6
:102680000640A0890643AE8201A8FFF74FFD8348AC
:10269000874202D1DDF810A001E0DDF80CA0A88986
:1026A00000F4004040B10AEBCA0000EB0A102168B8
:1026B0004900B0FBF1F807E00AEBCA0000EB0A1092
:1026C00021688900B0FBF1F86420B8FBF0F0060146
:1026D0003009642101FB1089A88900F4004040B151
:1026E000322000EBC900B0FBF1F000F00700064318
:1026F00008E0322000EB09106421B0FBF1F000F09B
:102700000F0006432E8106B0BDE8F0874FF4165146
:10271000016000218180C18001810C214181002163
:102720008181704770B505460C4600265B4885429E
:1027300005D05B48854202D05A48854200D104E06A
:102740004FF499715AA0FEF79DFA208818B120889D
:10275000B0F5006F00D104E040F2331154A0FEF751
:1027600091FA608818B16088B0F5806F00D104E0FC
:102770004FF49A714EA0FEF785FAA08818B1A08890
:10278000B0F5007F00D104E040F2351148A0FEF71B
:1027900079FAE08818B1E088B0F5807F00D104E0D4
:1027A0004FF49B7142A0FEF76DFA2E8A4FF2FF00A4
:1027B0000640208861880843A1880843E1880843CF
:1027C00006432E8270BD0021018041808180C1803E
:1027D000704770B504460D46304884420BD03048EF
:1027E000844208D02F48844205D02F48844202D02A
:1027F0002E48844200D104E04FF4B1712CA0FEF7C2
:1028000041FA0DB1012D00D104E040F2631128A07E
:10281000FEF738FA25B1A08940F40050A08104E009
:10282000A0894DF6FF710840A08170BD2DE9F047E9
:1028300005460C4617464FF00008C246C146002622
:10284000164885420BD01648854208D01548854267
:1028500005D01548854202D01448854200D104E0D5
:1028600040F2891112A0FEF70DFA282C3CD040F25C
:102870002770844238D040F22660844234D040F23F
:102880002550844230D040F2244084422CD040F67F
:102890004600844228D040F66A1021E0003801400A
:1028A0000044004000480040004C00400050004000
:1028B0002E2E5C53544D3332463130785F46574CA0
:1028C00069625C7372635C73746D33326631307845
:1028D0005F75736172742E630000000021AA4400CA
:1028E000844201D0602C00D105E04FF4C571AFF2F5
:1028F0004000FEF7C7F90FB1012F00D105E040F20B
:102900008B11AFF25400FEF7BDF940F66A10844215
:102910000FD1F948854205D0F848854202D0F848E1
:10292000854200D105E040F28F11AFF27C00FEF746
:10293000A9F92E46C4F3421804F01F0A012000FA38
:102940000AF9B8F1010F01D10C3605E0B8F1020F18
:1029500001D1103600E0143627B1306840EA090092
:10296000306003E0306820EA09003060BDE8F0879D
:1029700070B504460D461646DF4884420BD0DF484A
:10298000844208D0DE48844205D0DE48844202D02A
:10299000DD48844200D105E040F2C311AFF2F000FF
:1029A000FEF770F94FF63F70284008B905B105E011
:1029B0004FF4E271AFF20810FEF764F90EB1012E88
:1029C00000D105E040F2C511AFF21C10FEF75AF934
:1029D0001EB1A08A2843A08202E0A08AA843A08258
:1029E00070BD70B504460D46C34884420BD0C34841
:1029F000844208D0C248844205D0C248844202D0F2
:102A0000C148844200D105E040F2DF11AFF260100E
:102A1000FEF738F90F2D00DC05E04FF4F071AFF24E
:102A20007010FEF72FF9208A4FF6F07108402082CF
:102A3000208A2843208270BD70B504460D46AE48FA
:102A400084420BD0AD48844208D0AD48844205D0C2
:102A5000AC48844202D0AC48844200D105E04FF437
:102A6000FB71AFF2B410FEF70DF915B1B5F5006FBB
:102A700000D105E040F2F711AFF2CC10FEF702F9F9
:102A8000A0894FF2FF710840A081A0892843A0814E
:102A900070BD70B504460D46974884420BD09748E8
:102AA000844208D09648844205D09648844202D099
:102AB0009548844200D105E040F20921AFF2102090
:102AC000FEF7E0F80DB1012D00D105E040F20A213A
:102AD000AFF22420FEF7D6F825B1A08940F002001D
:102AE000A08104E0A0894FF6FD710840A08170BD6F
:102AF00070B504460D46804884420BD07F4884421E
:102B000008D07F48844205D07E48844202D07E4867
:102B1000844200D105E040F22621AFF26C20FEF79E
:102B2000B1F80DB1202D00D105E040F22721AFF220
:102B30008020FEF7A7F8208A4FF6DF710840208238
:102B4000208A2843208270BD70B504460D466A482D
:102B500084420BD06948844208D06948844205D039
:102B60006848844202D06848844200D105E040F2BF
:102B70003921AFF2C420FEF785F80DB1012D00D147
:102B800005E040F23A21AFF2D820FEF77BF825B1FC
:102B9000208A40F48040208204E0208A4BF6FF71B6
:102BA0000840208270BD70B504460D4652488442EC
:102BB0000BD05248844208D05148844205D0514835
:102BC000844202D05048844200D105E040F25321B3
:102BD000AFF22430FEF756F8B5F5007F00DA05E0D5
:102BE0004FF41571AFF23830FEF74CF8C5F308001A
:102BF000A08070BD10B504463F4884420BD03F48CA
:102C0000844208D03E48844205D03E48844202D0E7
:102C10003D48844200D105E04FF41971AFF27030A5
:102C2000FEF730F8A088C0F3080010BD10B50446C8
:102C3000314884420BD03148844208D03048844225
:102C400005D03048844202D02F48844200D105E0AC
:102C50004FF41D71AFF2A830FEF714F8A08940F0D0
:102C60000100A08110BD70B504460D462248844283
:102C700005D02248844202D02148844200D105E098
:102C80004FF42171AFF2D830FDF7FCFF208BC0B2BA
:102C90002083208B40EA0520208370BD70B5044658
:102CA0000D46154884420BD01448844208D014487D
:102CB000844205D01348844202D01348844200D194
:102CC00005E04FF42671AFF21840FDF7DBFF208BD3
:102CD00000F47F402083208B2843208370BD70B593
:102CE00004460D460448844205D00448844202D07C
:102CF000034884420AD10FE00038014000440040FC
:102D000000480040004C00400050004040F2AB2121
:102D1000AFF26440FDF7B6FF0DB1012D00D105E023
:102D20004FF42B71AFF27840FDF7ACFF25B1A08ACC
:102D300040F02000A08204E0A08A4FF6DF71084036
:102D4000A08270BD70B504460D46F948844205D096
:102D5000F848844202D0F848844200D105E04FF49C
:102D60003171AFF2B440FDF78DFF0DB1012D00D1EF
:102D700005E040F2C521AFF2C840FDF783FF25B161
:102D8000A08A40F01000A08204E0A08A4FF6EF7104
:102D90000840A08270BD70B504460D46E4488442E8
:102DA0000BD0E448844208D0E348844205D0E3488D
:102DB000844202D0E248844200D105E040F2DE21A4
:102DC000AFF21450FDF75EFF0DB1012D00D105E00B
:102DD00040F2DF21AFF22850FDF754FF25B1A08A61
:102DE00040F00800A08204E0A08A4FF6F771084086
:102DF000A08270BD70B504460D46CD4884420BD00C
:102E0000CC48844208D0CC48844205D0CB48844288
:102E100002D0CB48844200D105E040F2FD21AFF260
:102E20007050FDF72FFF0DB1012D00D105E040F2EC
:102E3000FE21AFF28450FDF725FF25B1A08940F4B3
:102E40000040A08103E0A089C0F30E00A08170BD06
:102E500070B504460D46B64884420BD0B54884424E
:102E600008D0B548844205D0B448844202D0B44862
:102E7000844200D105E04FF44671AFF2CC50FDF72B
:102E800001FF0DB1012D00D105E040F21931AFF283
:102E9000E050FDF7F7FE25B1A08A40F40060A08263
:102EA00004E0A08A4FF2FF710840A08270BD70B5A7
:102EB00004460D469E4884420BD09E48844208D06A
:102EC0009D48844205D09D48844202D09C4884425B
:102ED00000D105E040F23531AFF22C60FDF7D2FEB3
:102EE000042D00D005B905E040F23631AFF2406064
:102EF000FDF7C8FEA08A4FF6FB710840A082A08AA9
:102F00002843A08270BD70B504460D4688488442AF
:102F10000BD08848844208D08748844205D087482F
:102F2000844202D08648844200D105E04FF45271B9
:102F3000AFF28460FDF7A6FE0DB1012D00D105E0D2
:102F400040F24931AFF29860FDF79CFE25B1A08AAE
:102F500040F00200A08204E0A08A4FF6FD71084014
:102F6000A08270BD70B505460C46002670488542AB
:102F70000BD07048854208D06F48854205D06F4815
:102F8000854202D06E48854200D105E040F26E31A4
:102F9000AFF2E460FDF776FE012C13D0802C11D047
:102FA000402C0FD0202C0DD0102C0BD0B4F5807FEE
:102FB00008D0B4F5007F05D0082C03D0042C01D034
:102FC000022C00D105E040F26F31AFF21C70FDF72A
:102FD00059FEB4F5007F0FD15548854205D05548BC
:102FE000854202D05448854200D105E040F2733159
:102FF000AFF24470FDF746FE2888204008B1012654
:1030000000E00026304670BD70B504460D464848C5
:1030100084420BD04748844208D04748844205D0B8
:103020004648844202D04648844200D105E040F23E
:103030009E31AFF28470FDF725FE4FF69F40284089
:1030400008B905B105E040F29F31AFF29C70FDF781
:1030500019FE05F40070B0F5007F0FD134488442AA
:1030600005D03448844202D03348844200D105E080
:1030700040F2A331AFF2C870FDF704FEE8432080B0
:1030800070BD2DE9F04705460C4600270026B046E6
:10309000B146274885420BD02648854208D02648AD
:1030A000854205D02548854202D02548854200D179
:1030B00005E040F2C131AFF60800FDF7E3FD282C32
:1030C00020D040F2277084421CD040F22660844217
:1030D00018D040F22550844214D040F2244084425B
:1030E00010D040F6460084420CD040F66A1084426C
:1030F00008D0B4F5587F05D0B4F5187F02D0B4F5E8
:10310000B07F00D105E040F2C231AFF65C00FDF7C0
:10311000B9FD40F66A1084421AD10548854205D0AF
:103120000448854202D0044885420BD110E00000DB
:10313000003801400044004000480040004C00407E
:103140000050004040F2C631AFF69C00FDF79AFDFA
:10315000C4F3421804F01F06012000FA06F6B8F185
:10316000010F02D1A889064007E0B8F1020F02D191
:10317000288A064001E0A88A06402712012000FAAA
:1031800007F7288807401EB117B14FF0010901E089
:103190004FF000094846BDE8F0872DE9F0410446AC
:1031A0000D4600260027244884420BD02348844241
:1031B00008D02348844205D02248844202D02248C5
:1031C000844200D105E040F20A41AFF61C10FDF741
:1031D00059FD40F2266085420BD040F225508542D1
:1031E00007D040F64600854203D040F66A1085427B
:1031F00000D105E040F20B41AFF64C10FDF742FD67
:1032000040F66A1085420FD10B48844205D00B4826
:10321000844202D00A48844200D105E040F20F41C6
:10322000AFF67410FDF72EFD2E120120B04087B2CC
:10323000F8432080BDE8F0810038014000440040A0
:1032400000480040004C00400050004010B50446CB
:10325000F84884422FD0B4F1804F2CD0F6488442F5
:1032600029D0F648844226D0F548844223D0F54838
:10327000844220D0F44884421DD0F44884421AD0BD
:10328000F348844217D0F348844214D0F248844271
:1032900011D0F24884420ED0F14884420BD0F1485C
:1032A000844208D0F048844205D0F048844202D0DD
:1032B000EF48844200D103E07D21EEA0FDF7E2FC5F
:1032C000DC48844208D10121C014FFF714F8002122
:1032D000E014FFF710F8C4E0B4F1804F08D10121E9
:1032E0000846FFF731F800210120FFF72DF8B8E07C
:1032F000D148844208D101210220FFF725F800219E
:103300000220FFF721F8ACE0CC48844208D101212B
:103310000420FFF719F800210420FFF715F8A0E0BA
:10332000C748844208D101210820FFF70DF8002189
:103330000820FFF709F894E0C248844208D101212F
:103340001020FFF701F800211020FEF7FDFF88E0B4
:10335000BD48844208D101212020FEF7F5FF00215D
:103360002020FEF7F1FF7CE0B848844208D101211B
:103370004014FEF7C0FF00216014FEF7BCFF70E0B0
:10338000B348844209D10121C804FEF7B4FF0021EB
:103390004FF40020FEF7AFFF63E0AE48844209D14E
:1033A00001210805FEF7A7FF00214FF48010FEF76A
:1033B000A2FF56E0A848844209D101214805FEF742
:1033C0009AFF00214FF40010FEF795FF49E0A34853
:1033D000844208D101214020FEF7B6FF00214020A1
:1033E000FEF7B2FF3DE09E48844208D101218020D3
:1033F000FEF7AAFF00218020FEF7A6FF31E09948E2
:10340000844208D101218015FEF79EFF0021A015FE
:10341000FEF79AFF25E09448844209D1012108046F
:10342000FEF769FF00214FF48030FEF764FF18E0DB
:103430008E48844209D101214804FEF75CFF002137
:103440004FF40030FEF757FF0BE08948844208D163
:1034500001218804FEF74FFF00214FF48020FEF782
:103460004AFF10BD70B504460D46002671488442DF
:103470002FD0B4F1804F2CD06F48844229D06F48B0
:10348000844226D06E48844223D06E48844220D0A5
:103490006D4884421DD06D4884421AD06C488442E5
:1034A00017D06C48844214D06B48844211D06B48CA
:1034B00084420ED06A4884420BD06A48844208D0C5
:1034C0006948844205D06948844202D068488442F1
:1034D00000D103E0E72167A0FDF7D4FB688858B16D
:1034E0006888102808D06888202805D06888402877
:1034F00002D06888602800D103E0E8215DA0FDF7D4
:10350000C1FBE88838B1E888B0F5807F03D0E8884F
:10351000B0F5007F00D103E0E92156A0FDF7B2FB32
:103520002688444884420ED0484884420BD0B4F1E7
:10353000804F08D04048844205D04048844202D0A1
:103540003F48844204D14FF68F7006406888064396
:103550003C48844207D03C48844204D04FF6FF40A8
:103560000640E88806432680A888A085288820850C
:10357000304884420BD03548844208D03A488442CF
:1035800005D03A48844202D03948844201D1287A91
:1035900020860120A08270BD2DE9F04104460D4631
:1035A0004FF00008002600272248844229D0B4F1B9
:1035B000804F26D02048844223D02048844220D007
:1035C0001F4884421DD0214884421AD0204884429A
:1035D00017D02048844214D01F48844211D01F487D
:1035E00084420ED01E4884420BD01E48844208D02C
:1035F0001D48844205D01D48844202D01C488442A4
:1036000000D104E04FF48E711AA0FDF73BFB28882F
:1036100070B1288810280BD02888202808D0288846
:10362000302805D02888602802D02888702835D115
:103630003AE00000002C0140000400400008004077
:10364000000C004000100040001400400034014015
:10365000004C01400050014000540140001800405F
:10366000001C004000200040004001400044014098
:10367000004801402E2E5C53544D33324631307891
:103680005F46574C69625C7372635C73746D33326E
:10369000663130785F74696D2E63000040F21D1151
:1036A000AFF23000FDF7EEFA688810B168880128A3
:1036B00000D105E04FF48F71AFF24800FDF7E2FA58
:1036C000288910B12889022800D105E040F21F1195
:1036D000AFF26000FDF7D6FA208C4FF6FE7108407D
:1036E0002084268CA788B4F818804FF68F7008EADB
:1036F0000008881E08EA0008288840EA0808481ED2
:1037000006402889064368880643FE4884420BD059
:10371000FD48844208D0FD48844205D0FC488442DC
:1037200002D0FC48844245D1A88810B1A88804285A
:1037300000D105E04FF49E71AFF2C800FDF7A2FA88
:10374000688910B16889082800D105E040F23D1170
:10375000AFF2E000FDF796FAE889B0F5007F01D0FE
:10376000E88900B905E04FF49F71AFF2F800FDF76A
:1037700089FAA889B0F5807F01D0A88900B905E051
:1037800040F23F11AFF21410FDF77CFA4FF6F770DC
:103790000640688906434FF6FB700640A88806433A
:1037A0004FF6FF6007404FF6FF500740A8890743D8
:1037B000E8890743A780A4F81880E888A0862684B3
:1037C000BDE8F0812DE9F04105460C464FF00008B8
:1037D00000260027CB48854217D0B5F1804F14D082
:1037E000CD48854211D0CD4885420ED0CC48854287
:1037F0000BD0C548854208D0CA48854205D0CA4882
:10380000854202D0C148854200D105E040F26F11E7
:10381000AFF2A010FDF736FA208870B1208810288A
:103820000BD02088202808D02088302805D0208878
:10383000602802D02088702800D105E04FF4B871CC
:10384000AFF2D010FDF71EFA608810B16088012831
:1038500000D105E040F27111AFF2E810FDF712FA65
:10386000208910B12089022800D105E04FF4B971F8
:10387000AFF20020FDF706FA288C4FF6EF710840F2
:1038800028842E8CAF88B5F8188048F6FF7008EAB7
:1038900000084FF6FF4008EA000820884FF6FF7145
:1038A00001EA002040EA08084FF6DF700640208950
:1038B00001EA00100643608801EA001006439148BF
:1038C000854202D0904885424FD1A08810B1A0888F
:1038D000042800D105E040F28F11AFF26820FDF717
:1038E000D1F9608910B16089082800D105E04FF452
:1038F000C871AFF28020FDF7C5F9E089B0F5007F0F
:1039000001D0E08900B905E040F29111AFF29C20AE
:10391000FDF7B8F9A089B0F5807F01D0A08900B982
:1039200005E04FF4C971AFF2B420FDF7ABF94FF6E3
:103930007F70064060894FF6FF7101EA0010064370
:103940004FF6BF700640A08801EA001006434FF60C
:10395000FF3007404FF2FF700740A08901EA800066
:103960000743E08901EA80000743AF80A5F818808B
:10397000E08828872E84BDE8F0812DE9F0410546D6
:103980000C464FF00008002600275E4885420ED006
:10399000B5F1804F0BD06048854208D05F48854222
:1039A00005D05F48854202D05748854200D105E0E6
:1039B00040F2C111AFF24430FDF764F9208870B1D4
:1039C000208810280BD02088202808D02088302874
:1039D00005D02088602802D02088702800D105E01A
:1039E0004FF4E171AFF27430FDF74CF9608810B11B
:1039F0006088012800D105E040F2C311AFF28C309D
:103A0000FDF740F9208910B12089022800D105E096
:103A10004FF4E271AFF2A430FDF734F9288C4FF681
:103A2000FF61084028842E8CAF88B5F81C804FF6C3
:103A30008F7008EA00084FF6FC7008EA000820883A
:103A400040EA08084FF6FF50064020894FF6FF7104
:103A500001EA00200643608801EA00200643294865
:103A6000854202D02848854264D1A08810B1A08840
:103A7000042800D105E04FF4F071AFF20840FDF7E3
:103A800001F9608910B16089082800D105E040F291
:103A9000E111AFF22040FDF7F5F8E089B0F5007FC5
:103AA00001D0E08900B905E04FF4F171AFF23C407C
:103AB000FDF7E8F8A089B0F5807F01D0A08900B9B2
:103AC00005E040F2E311AFF25440FDF7DBF84FF2AE
:103AD000FF70064060894FF6FF7101EA002006433F
:103AE0004FF6FF300640A08801EA002006434EF65C
:103AF000FF7007404DF6FF700740A08901EA0010F3
:103B0000074313E0002C0140003401400040014015
:103B1000004401400048014000040040000800400B
:103B2000000C0040004C014000180040E08901EA10
:103B300000100743AF80A5F81C80E088A8872E847A
:103B4000BDE8F0812DE9F04104460D46002700262E
:103B5000B046F84884420ED0B4F1804F0BD0F648FE
:103B6000844208D0F548844205D0F548844202D00A
:103B7000F448844200D105E04FF40471AFF20C50D8
:103B8000FDF780F8288870B1288810280BD0288885
:103B9000202808D02888302805D02888602802D01E
:103BA0002888702800D105E040F21121AFF23C5086
:103BB000FDF768F8688810B16888012800D105E031
:103BC00040F21221AFF25450FDF75CF8288910B191
:103BD0002889022800D105E040F21321AFF26C5091
:103BE000FDF750F8208C4EF6FF7108402084268C9B
:103BF000B4F80480A78B48F6FF7007404FF6FF40EB
:103C0000074028884FF6FF7101EA002007434DF670
:103C1000FF700640288901EA00300643688801EAFF
:103C200000300643C348844202D0C648844217D1BC
:103C3000A889B0F5807F01D0A88900B905E04FF4CC
:103C40000C71AFF2D050FDF71DF84BF6FF7008EA8B
:103C50000008A8894FF6FF7101EA801040EA0808C1
:103C6000A4F80480A783E888A4F840002684BDE86F
:103C7000F08170B504460D46AE4884420ED0B4F1D2
:103C8000804F0BD0AC48844208D0AC48844205D069
:103C9000AB48844202D0AB48844200D105E040F6F4
:103CA0007611AFF23060FCF7EDFF2DB1042D03D09B
:103CB000082D01D00C2D00D105E040F67711AFF2B0
:103CC0004C60FCF7DFFFA08B4FF2FF310840A08370
:103CD000A08B4FF6FF7101EA05210843A08370BD58
:103CE000F0B50C461546002200210026078C4EF642
:103CF000FF7C07EA0C070784828B018C4FF6FF7765
:103D000007EA043640F6FF473A404FF6FF7707EAE6
:103D100005273A434FF6FF7707EA03373A43854FC3
:103D2000B8420ED0874FB8420BD0B0F1804F08D0C8
:103D3000814FB84205D0814FB84202D0804FB8427F
:103D400006D14DF6FF77394046F48057394305E0F8
:103D500047F6FF57394044F4805739438283018442
:103D6000F0BD70B504460D46724884420ED0B4F1E1
:103D7000804F0BD07048844208D07048844205D0F0
:103D80006F48844202D06F48844200D105E04FF46E
:103D90001661AFF22070FCF775FF2DB1042D03D032
:103DA000082D01D00C2D00D105E040F66111AFF2D5
:103DB0003C70FCF767FFA08B4FF6F3710840A083BF
:103DC000A08B2843A08370BDF0B50C461546002299
:103DD00000210026078C4FF6FF6C07EA0C070784CA
:103DE000828B018C4FF6FF7707EA04264FF60C779B
:103DF0003A404FF6FF7707EA03172F433A434D4FF8
:103E0000B8420ED04F4FB8420BD0B0F1804F08D01F
:103E1000494FB84205D0494FB84202D0484FB84246
:103E200006D14FF6FF57394046F48077394305E015
:103E30004FF2FF57394044F480773943828301843D
:103E4000F0BD70B504460D463A48844217D0B4F12F
:103E5000804F14D03848844211D0384884420ED064
:103E6000374884420BD03748844208D036488442D1
:103E700005D03648844202D03548844200D105E05E
:103E800040F64A11AFF61400FCF7FCFE2DB1042DEC
:103E900003D0082D01D00C2D00D105E040F64B11C8
:103EA000AFF63000FCF7EEFE208B4FF2FF310840FA
:103EB0002083208B4FF6FF7101EA05210843208300
:103EC00070BDF0B50C461546002200210026078C77
:103ED0004FF6EF7C07EA0C070784028B018C4FF644
:103EE000FF7707EA041640F6FF473A404FF6FF77A0
:103EF00007EA03373A434FF6FF7707EA05273A43C5
:103F00000C4FB8420ED00F4FB8420BD0B0F1804FDB
:103F100008D0094FB84205D0084FB84202D0084F28
:103F2000B84217D14FF6DF77394046F010073943D2
:103F300016E00000002C0140000400400008004092
:103F4000000C004000340140004C014000180040CB
:103F5000004001404FF65F77394044F01007394385
:103F600002830184F0BD70B504460D46FB488442CF
:103F700029D0B4F1804F26D0F948844223D0F948A3
:103F8000844220D0F84884421DD0F84884421AD098
:103F9000F748844217D0F748844214D0F648844248
:103FA00011D0F64884420ED0F54884420BD0F54833
:103FB000844208D0F448844205D0F448844202D0B8
:103FC000F348844200D105E040F63411AFF65C10AE
:103FD000FCF758FE2DB1042D03D0082D01D00C2D77
:103FE00000D105E040F63511AFF67810FCF74AFE37
:103FF000208B4FF6F37108402083208B28432083C9
:1040000070BDF0B50C46154600220021068C4FF617
:10401000FE773E400684028B018C4FF60C763240D0
:104020007E1C06EA03162E433243CC4EB0420ED01D
:10403000CE4EB0420BD0B0F1804F08D0C84EB04247
:1040400005D0C84EB04202D0C74EB04206D14FF69E
:10405000FD76314044F00106314305E04FF6F57638
:10406000314044F00106314302830184F0BD70B554
:1040700004460D46288840B12888042805D02888A1
:10408000082802D028880C2800D105E040F24E21F3
:10409000AFF62020FCF7F6FDA888012805D0A888F7
:1040A000022802D0A888032800D105E040F24F2161
:1040B000AFF64020FCF7E6FDE88840B1E888042828
:1040C00005D0E888082802D0E8880C2800D105E04F
:1040D0004FF41471AFF66420FCF7D4FD28890F2843
:1040E00000DC05E040F25121AFF67820FCF7CAFD74
:1040F0009A4884420ED09D4884420BD0B4F1804F40
:1041000008D09748844205D09648844202D0964809
:1041100084420CD1688810B16888022800D115E06B
:1041200040F25621AFF6B420FCF7ACFD0EE06888F3
:1041300028B16888022802D068880A2800D105E0E2
:1041400040F25A21AFF6D420FCF79CFD2888E0BB52
:104150008248844229D0B4F1804F26D080488442DE
:1041600023D08048844220D07F4884421DD07F489D
:1041700084421AD07E48844217D07E48844214D0AC
:104180007D48844211D07D4884420ED07C488442D0
:104190000BD07C48844208D07B48844205D07B48C1
:1041A000844202D07A48844200D105E040F25E2188
:1041B000AFF64030FCF766FD2B89AA886988204657
:1041C000FFF71FFFE988204600E002E0FFF7CBFE83
:1041D00079E0288804282CD16048844217D0B4F1B3
:1041E000804F14D05E48844211D05E4884420ED085
:1041F0005D4884420BD05D48844208D05C488442CC
:1042000005D05E48844202D05F48844200D105E078
:104210004FF41A71AFF6A430FCF734FD2B89AA884D
:1042200069882046FFF74DFEE9882046FFF709FE22
:1042300049E02888082823D1484884420ED0B4F1A8
:10424000804F0BD04648844208D04648844205D06F
:104250004548844202D04548844200D105E040F2FE
:104260007221AFF6F030FCF70DFD2B89AA88698822
:104270002046FFF7A9FDE9882046FFF772FD22E0FE
:10428000364884420ED0B4F1804F0BD0344884427B
:1042900008D03448844205D03348844202D03348A1
:1042A000844200D105E04FF41F71AFF63840FCF7AF
:1042B000E9FC2B89AA8869882046FFF711FDE98867
:1042C0002046FFF7D6FC70BD2DE9F04105460C46AF
:1042D000002601272148854217D0B5F1804F14D020
:1042E0001F48854211D01F4885420ED01E48854286
:1042F0000BD01E48854208D01D48854205D01F4876
:10430000854202D02048854200D105E040F2932149
:10431000AFF6A040FCF7B6FC608808B9022600E0C2
:104320000026A088012801D1022700E0012720886B
:1043300080BB2389A28861882846FFF762FEE18856
:104340002846FFF710FE23893A4631462846FFF7F4
:10435000B8FDE1882846FFF774FD30E0002C0140ED
:104360000004004000080040000C00400034014000
:10437000004C014000500140005401400018004032
:10438000001C00400020004000400140004401406B
:1043900000480140FFE72389A28861882846FFF78B
:1043A00090FDE1882846FFF74CFD23893A463146C7
:1043B0002846FFF726FEE1882846FFF7D4FDBDE832
:1043C000F08170B505460C46FE4885420BD0FE488C
:1043D000854208D0FD48854205D0FD48854202D07F
:1043E000FC48854200D105E040F2CB21AFF67C507D
:1043F000FCF748FC2088B0F5006F01D0208800B998
:1044000005E04FF43371AFF69450FCF73BFC608845
:10441000B0F5806F01D0608800B905E040F2CD2191
:10442000AFF6B050FCF72EFCA08858B1A088B0F5CC
:10443000807F07D0A088B0F5007F03D0A088B0F5BA
:10444000407F00D105E040F2CE21AFF6D850FCF716
:1044500019FC2089B0F5805F01D0208900B905E002
:1044600040F2CF21AFF6F450FCF70CFC608918B194
:104470006089B0F5005F00D105E04FF43471AFF60C
:104480000C60FCF7FFFBA089B0F5804F01D0A0893C
:1044900000B905E040F2D121AFF62860FCF7F2FB4D
:1044A000208861880843A1880843E188084321895E
:1044B000084361890843A1890843A5F8440070BDF9
:1044C0004FF6FF71818000210180C180418001721F
:1044D00070470021018041808180C180018141813C
:1044E0008181C1817047002101804180012181804B
:1044F0000021C180018170470021018041808180BD
:10450000C180018141818181704770B504460D46AB
:10451000AC4884422FD0B4F1804F2CD0AE488442B6
:1045200029D0AE48844226D0AD48844223D0AD483D
:10453000844220D0AC4884421DD0A34884421AD083
:10454000AA48844217D0AA48844214D0A948844279
:1045500011D0A94884420ED0A84884420BD0A84864
:10456000844208D09948844205D09948844202D0B8
:104570009848844200D105E040F22931AFF60C7032
:10458000FCF780FB0DB1012D00D105E040F22A318E
:10459000AFF62070FCF776FB25B1208840F00100D3
:1045A000208004E020884FF6FE710840208070BD16
:1045B00070B504460D46834884420BD0824884423D
:1045C00008D08248844205D08148844202D0814884
:1045D000844200D105E040F24231AFF66870FCF74A
:1045E00051FB0DB1012D00D105E040F24331AFF692
:1045F0007C70FCF747FB35B1B4F8440040F4004050
:10460000A4F8440005E0B4F84400C0F30E00A4F898
:10461000440070BD70B504460D4616466948844294
:104620002FD0B4F1804F2CD06B48844229D06B48F6
:10463000844226D06A48844223D06A48844220D0EB
:10464000694884421DD0604884421AD06748844239
:1046500017D06748844214D06648844211D0664817
:1046600084420ED0654884420BD06548844208D00D
:104670005648844205D05648844202D05548844268
:1046800000D104E040F26B315E48FCF7FBFA05F420
:104690007F4008B905B104E04FF45B715948FCF75D
:1046A000F1FA0EB1012E00D104E040F26D3155480F
:1046B000FCF7E8FA1EB1A0892843A08102E0A08996
:1046C000A843A08170BD70B504460D463D488442A4
:1046D0002FD0B4F1804F2CD03F48844229D03F489E
:1046E000844226D03E48844223D03E48844220D093
:1046F0003D4884421DD0344884421AD03B4884420D
:1047000017D03B48844214D03A48844211D03A48EA
:1047100084420ED0394884420BD03948844208D0B4
:104720002A48844205D02A48844202D0294884423B
:1047300000D104E04FF464713248FCF7A3FA05F4A9
:104740007F4008B905B104E040F291312D48FCF7F3
:1047500099FAA58270BD70B506460C4615461948F3
:10476000864217D0B6F1804F14D01B48864211D034
:104770001A4886420ED01A4886420BD0124886420A
:1047800008D01248864205D01148864202D011480E
:10479000864200D104E04FF46B711A48FCF772FABC
:1047A00094B3012C45D0022C43D0032C41D0042CCF
:1047B0003FD0052C3DD0062C3BD0072C39D0082CFF
:1047C00037D022E0002C014000340140004001407D
:1047D000004401400048014000040040000800403F
:1047E000000C00400010004000140040004C01404C
:1047F000005001400054014000180040001C0040DF
:10480000002000407436000813E0092C11D00A2C57
:104810000FD00B2C0DD00C2C0BD00D2C09D00E2C46
:1048200007D00F2C05D0102C03D0112C01D0122C46
:1048300000D104E040F2AD31FB48FCF723FA95B318
:10484000B5F5807F2FD0B5F5007F2CD0B5F5407F32
:1048500029D0B5F5806F26D0B5F5A06F23D0B5F57A
:10486000C06F20D0B5F5E06F1DD0B5F5006F1AD040
:10487000B5F5106F17D0B5F5206F14D0B5F5306FC2
:1048800011D0B5F5406F0ED0B5F5506F0BD0B5F522
:10489000606F08D0B5F5706F05D0B5F5805F02D0B8
:1048A000B5F5885F00D104E040F2AE31DE48FCF798
:1048B000E9F944EA0500A6F8480070BD70B5044661
:1048C0000D461646D94884421DD0B4F1804F1AD007
:1048D000D748844217D0D748844214D0D64884425F
:1048E00011D0D64884420ED0D54884420BD0D5484A
:1048F000844208D0D448844205D0D448844202D0AF
:10490000D348844200D104E040F2C731C648FCF7E6
:10491000B9F948F2FF00284008B905B104E04FF4A6
:104920007271C148FCF7AEF90EB1012E00D104E05E
:1049300040F2C931BC48FCF7A5F91EB1A089284353
:10494000A08102E0A089A843A08170BD10B50446F3
:10495000B648844217D0B4F1804F14D0B448844292
:1049600011D0B44884420ED0B34884420BD0B5482D
:10497000844208D0B748844205D0B748844202D068
:10498000B148844200D104E04FF47871A648FCF7A6
:1049900079F920894FF6F8710840208110BD70B573
:1049A00004460D460026A148844217D0B4F1804F3A
:1049B00014D09F48844211D09E4884420ED09E4815
:1049C00084420BD09F48844208D0A248844205D03C
:1049D000A148844202D09C48844200D104E040F2C5
:1049E000D1419148FCF74EF96DB1102D0BD0202D1F
:1049F00009D0302D07D0402D05D0502D03D0602D8B
:104A000001D0702D00D104E040F2D2418648FCF77D
:104A100039F926894FF68F7006402E43268170BDE6
:104A200070B504460D468148844217D0B4F1804FDA
:104A300014D07F48844211D07E4884420ED07E48F4
:104A400084420BD07F48844208D08248844205D0FB
:104A50008148844202D07C48844200D104E040F284
:104A6000F3317148FCF70EF92DB1102D03D0202D34
:104A700001D0302D00D104E04FF47D716A48FCF77D
:104A800001F929462046FFF78AFF208940F00700F8
:104A9000208170BD2DE9F04104460D4616461F46A3
:104AA0006248844217D0B4F1804F14D060488442E9
:104AB00011D0604884420ED05F4884420BD06148D8
:104AC000844208D06348844205D06348844202D0BF
:104AD0005D48844200D104E040F20F415248FCF7A7
:104AE000D1F8502D03D0602D01D0402D00D104E02D
:104AF0004FF482614C48FCF7C5F80EB1022E00D18C
:104B000004E040F211414848FCF7BCF80F2F00DCEC
:104B100004E040F212414448FCF7B4F8602D06D19D
:104B20003B46012231462046FFF7CBF905E03B46E4
:104B3000012231462046FFF764FA29462046FFF756
:104B40002EFF208940F007002081BDE8F0812DE98B
:104B5000F04104460D4616461F464FF00008334804
:104B600084420ED0B4F1804F0BD03148844208D03B
:104B70003048844205D03048844202D031488442D3
:104B800000D104E040F281412748FCF77BF845B1B1
:104B9000B5F5805F05D0B5F5005F02D0B5F5405F93
:104BA00000D104E040F282411F48FCF76BF8B6F5F3
:104BB000004F00D006B904E040F283411A48FCF7E8
:104BC00061F80F2F00DC04E040F284411648FCF746
:104BD00059F8B4F8088008F0FF084FF6FF7000EAB3
:104BE00007203043284340EA0808A4F80880BDE8BD
:104BF000F0812DE9F04104460D46174698460026FF
:104C00000A4884420ED0B4F1804F0BD00848844249
:104C100008D00848844205D00748844202D0094899
:104C200084421BD11FE0000074360008002C0140B4
:104C30000004004000080040000C0040001000404C
:104C40000014004000340140004001400044014095
:104C500000480140004C0140001800404FF48761BB
:104C6000FE48FCF70FF845B1B5F5805F05D0B5F506
:104C7000005F02D0B5F5405F00D104E040F2394159
:104C8000F648FBF7FFFFB7F5004F00D007B904E087
:104C900040F23A41F148FBF7F5FFB8F10F0F00DCA5
:104CA00004E040F23B41ED48FBF7ECFF43463A4657
:104CB00029462046FFF74BFF26894FF6F87006403D
:104CC00046F007064FF68F70064046F070062681C4
:104CD000BDE8F0812DE9F04104460D4616461F4619
:104CE000DF4884420ED0B4F1804F0BD0DD488442BF
:104CF00008D0DD48844205D0DC48844202D0DC483C
:104D0000844200D104E040F26141D448FBF7BAFF8D
:104D100045B1B5F5805F05D0B5F5005F02D0B5F5BA
:104D2000405F00D104E040F26241CC48FBF7AAFFAB
:104D3000B6F5004F00D006B904E040F26341C74821
:104D4000FBF7A0FF0F2F00DC04E040F26441C348F2
:104D5000FBF798FF3B46324629462046FFF7F7FE11
:104D6000208940F480402081BDE8F08170B5044680
:104D70000E461546BA4884422FD0B4F1804F2CD04D
:104D8000B848844229D0B848844226D0B7488442E3
:104D900023D0B848844220D0B74884421DD0B448BC
:104DA00084421AD0B548844217D0B548844214D002
:104DB000B448844211D0B44884420ED0B3488442EF
:104DC0000BD0B348844208D0B248844205D0B248E0
:104DD000844202D0B148844200D104E040F29B41B9
:104DE0009E48FBF74FFF0DB1012D00D104E040F2CA
:104DF0009C419A48FBF746FF2685A58270BD70B599
:104E000004460D460026964884420ED0B4F1804FE9
:104E10000BD09448844208D09348844205D09348EC
:104E2000844202D09248844200D104E040F2B3416F
:104E30008A48FBF727FF3DB1102D05D0202D03D068
:104E4000402D01D0602D00D104E040F2B4418348F0
:104E5000FBF718FF26884FF68F7006402E432680FA
:104E600070BD2DE9F04704460D4616461F464FF02B
:104E70000008C146C2467A48844211D0B4F1804F3E
:104E80000ED0784884420BD07748844208D07748C7
:104E9000844205D07648844202D07E48844200D1C4
:104EA00004E04FF49F616D48FBF7ECFE012D03D049
:104EB000022D01D0032D00D104E040F2F9416748F2
:104EC000FBF7E0FE0EB1022E00D104E040F2FA4101
:104ED0006248FBF7D7FE0FB1022F00D104E040F289
:104EE000FB415E48FBF7CEFEB4F80880B4F818909A
:104EF000B4F820A04FF6F87008EA000848EA050860
:104F00004FF6FC4009EA000940F2011049EA0009A5
:104F10004FF6DD700AEA000A4FF6FF7000EA07104C
:104F2000304340EA0A0AA4F80880A4F81890A4F8CC
:104F300020A0BDE8F08770B504460D46002648481D
:104F4000844229D0B4F1804F26D04648844223D0F1
:104F50004548844220D0454884421DD0444884427C
:104F60001AD04648844217D04548844214D0454858
:104F7000844211D0444884420ED0444884420BD02D
:104F80004348844208D04348844205D04248844282
:104F900002D04248844200D104E040F227512F4819
:104FA000FBF770FE502D01D0402D00D104E04FF4EE
:104FB000A5612A48FBF766FE268B4FF68F700640E8
:104FC0002E43268370BD70B504460D460026244846
:104FD000844217D0B4F1804F14D02248844211D0BB
:104FE000214884420ED0214884420BD0204884427C
:104FF00008D02248844205D02348844202D0254864
:10500000844200D104E040F23F511448FBF73AFEDD
:10501000502D01D0402D00D104E04FF4A8610F487D
:10502000FBF730FE268B48F6FF7006404FF6FF7008
:1050300000EA05200643268370BD70B504460D4680
:1050400000260748844231D0B4F1804F2ED0054865
:1050500084422BD00448844228D021E074360008D2
:10506000002C01400004004000080040000C0040FB
:10507000003401400010004000140040004C01408A
:10508000005001400054014000180040001C004046
:105090000020004000400140004401400048014021
:1050A000FD48844202D0FD48844200D104E040F231
:1050B0005751FB48FBF7E6FD502D01D0402D00D1A4
:1050C00004E04FF4AB61F648FBF7DCFDA68B4FF62E
:1050D0008F7006402E43A68370BD70B504460D4602
:1050E0000026F04884420ED0B4F1804F0BD0EE4839
:1050F000844208D0ED48844205D0E748844202D07B
:10510000E648844200D104E040F26F51E448FBF7E6
:10511000B9FD502D01D0402D00D104E04FF4AE6117
:10512000DF48FBF7AFFDA68B48F6FF7006404FF651
:10513000FF7000EA05200643A68370BD70B50446E3
:105140000D46D84884422FD0B4F1804F2CD0D64899
:10515000844229D0D548844226D0CF48844223D0E7
:10516000D348844220D0D34884421DD0CB488442C7
:105170001AD0D148844217D0D048844214D0D048A5
:10518000844211D0CF4884420ED0CF4884420BD005
:10519000CE48844208D0CE48844205D0CD488442CF
:1051A00002D0CD48844200D104E040F28451BC4892
:1051B000FBF768FD0DB1012D00D104E040F28551EF
:1051C000B748FBF75FFD25B1208840F080002080C4
:1051D00004E020884FF67F710840208070BD70B5D4
:1051E00004460D46AF4884420BD0AC48844208D0F8
:1051F000B748844205D0B748844202D0B6488442BA
:1052000000D104E040F29C51A548FBF73BFD0DB1F5
:10521000012D00D104E040F29D51A148FBF732FD81
:1052200025B1A08840F00400A08004E0A0884FF6DB
:10523000FB710840A08070BD70B504460D469948CA
:10524000844217D0B4F1804F14D09748844211D0D3
:10525000964884420ED0904884420BD08F488442B6
:1052600008D09B48844205D09A48844202D09A488C
:10527000844200D104E040F2B5518948FBF702FDB9
:105280000DB1012D00D104E040F2B6518448FBF786
:10529000F9FC25B1A08840F00800A08004E0A088B7
:1052A0004FF6F7710840A08070BD70B504460D46FA
:1052B0007C48844211D0B4F1804F0ED07A488442A9
:1052C0000BD07A48844208D07348844205D0734892
:1052D000844202D07E48844200D104E040F2CE51A4
:1052E0006F48FBF7CFFC0DB1012D00D104E040F277
:1052F000CF516B48FBF7C6FC25B1A08840F00100F8
:10530000A08004E0A0884FF6FE710840A08070BD28
:1053100070B504460D4600266248844229D0B4F197
:10532000804F26D06048844223D06048844220D0F9
:10533000594884421DD0594884421AD05E4884425C
:1053400017D05E48844214D05D48844211D05D4835
:1053500084420ED05C4884420BD05C48844208D022
:105360005B48844205D05B48844202D05A4884425C
:1053700000D104E040F2E9514948FBF783FC082DD5
:1053800000D005B904E040F2EA514548FBF77AFC49
:10539000268B4FF6F77006402E43268370BD70B5FE
:1053A00004460D4600263F48844217D0B4F1804F92
:1053B00014D03D48844211D03C4884420ED0364837
:1053C00084420BD03548844208D03B48844205D003
:1053D0003C48844202D03E48844200D104E040F27E
:1053E00002612F48FBF74EFC082D00D005B904E000
:1053F00040F203612A48FBF745FC268B4FF2FF7011
:1054000006404FF6FF7000EA05200643268370BD74
:1054100070B504460D460026224884420ED0B4F1F1
:10542000804F0BD02048844208D02048844205D0C9
:105430001948844202D01948844200D104E040F265
:105440001A611748FBF71EFC082D00D005B904E0CF
:1054500040F21B611248FBF715FCA68B4FF6F77064
:1054600006402E43A68370BD70B504460D46002647
:105470000C4884420ED0B4F1804F0BD00A488442CD
:1054800008D00A48844205D00348844202D0034829
:10549000844223D127E00000000C0040003401408A
:1054A00074360008002C0140000400400008004051
:1054B0000010004000140040004C0140005001402A
:1054C0000054014000180040001C00400020004033
:1054D00000400140004401400048014040F2326178
:1054E000F748FBF7CFFB082D00D005B904E040F2E8
:1054F0003361F348FBF7C6FBA68B4FF2FF70064003
:105500004FF6FF7000EA05200643A68370BD70B514
:1055100004460D460026EB48844229D0B4F1804F62
:1055200026D0E948844223D0E848844220D0E84885
:1055300084421DD0E74884421AD0E748844217D0FD
:10554000E648844214D0E648844211D0E5488442BB
:105550000ED0E54884420BD0E448844208D0E448A9
:10556000844205D0E348844202D0E348844200D11B
:1055700004E040F24A61D248FBF784FB042D00D0DE
:1055800005B904E040F24B61CD48FBF77BFB268B6D
:105590004FF6FB7006402E43268370BD70B504465F
:1055A0000D460026C748844217D0B4F1804F14D06E
:1055B000C548844211D0C54884420ED0C4488442B4
:1055C0000BD0C448844208D0C348844205D0C548A3
:1055D000844202D0C648844200D104E040F26461B3
:1055E000B748FBF74FFB042D00D005B904E040F2AB
:1055F0006561B348FBF746FB268B4FF6FF3006404C
:105600004FF6FF7000EA05200643268370BD70B593
:1056100004460D460026AB4884420ED0B4F1804FBC
:105620000BD0A948844208D0A848844205D0A84895
:10563000844202D0A748844200D104E040F27D6158
:105640009F48FBF71FFB042D00D005B904E040F292
:105650007E619B48FBF716FBA68B4FF6FB7006405E
:105660002E43A68370BD70B504460D4600269548AE
:1056700084420ED0B4F1804F0BD09348844208D0BE
:105680009248844205D09248844202D09148844294
:1056900000D104E040F296618948FBF7F3FA042D4B
:1056A00000D005B904E040F297618548FBF7EAFABB
:1056B000A68B4FF6FF3006404FF6FF7000EA05203C
:1056C0000643A68370BD70B504460D4600267D488E
:1056D00084420ED0B4F1804F0BD07B48844208D076
:1056E0007A48844205D07A48844202D0794884427C
:1056F00000D104E040F2AF617148FBF7C3FA802D9E
:1057000000D005B904E04FF4D6616D48FBF7BAFA52
:10571000268B4FF67F7006402E43268370BD70B5F2
:1057200004460D460026674884420ED0B4F1804FEF
:105730000BD06548844208D06448844205D0644850
:10574000844202D06348844200D104E040F2C9613F
:105750005B48FBF797FA802D00D005B904E040F2D2
:10576000CA615748FBF78EFA268BC6F30E064FF632
:10577000FF7000EA05200643268370BD70B504461D
:105780000D4600264F4884420ED0B4F1804F0BD016
:105790004D48844208D04D48844205D04C4884424C
:1057A00002D04C48844200D104E040F2E161444818
:1057B000FBF768FA802D00D005B904E040F2E26101
:1057C0003F48FBF75FFAA68B4FF67F7006402E43EB
:1057D000A68370BD70B504460D4600263948844244
:1057E0000ED0B4F1804F0BD03748844208D03748F0
:1057F000844205D03648844202D03648844200D1E3
:1058000004E040F2F9612E48FBF73CFA802D00D00D
:1058100005B904E040F2FA612948FBF733FAA68B98
:10582000C6F30E064FF6FF7000EA05200643A68376
:1058300070BD70B504460D4600262248844229D02A
:10584000B4F1804F26D02048844223D01F488442A0
:1058500020D01F4884421DD01E4884421AD01E48C2
:10586000844217D01D48844214D01D48844211D070
:105870001C4884420ED01C4884420BD01B488442F2
:1058800008D01B48844205D01A48844202D01A48E6
:10589000844200D104E040F211710948FBF7F2F9AB
:1058A0000DB1022D00D104E040F212710448FBF763
:1058B000E9F9268C4FF6FD7006402E43268470BD14
:1058C00074360008002C014000040040000800402D
:1058D000000C004000340140004C014000500140E9
:1058E0000054014000180040001C0040002000400F
:1058F00000400140004401400048014070B50446AA
:105900000D460026FB4884420BD0FB48844208D059
:10591000FA48844205D0FA48844202D0F9488442C9
:1059200000D104E04FF4E561F748FBF7ABF90DB1A6
:10593000082D00D104E040F22971F348FBF7A2F9E9
:10594000268C4FF6F77006402E43268470BD70B546
:1059500004460D460026E748844217D0B4F1804F34
:1059600014D0EA48844211D0E94884420ED0E94874
:1059700084420BD0E048844208D0E748844205D0F6
:10598000E648844202D0DD48844200D104E04FF46E
:10599000E861DD48FBF776F90DB1022D00D104E096
:1059A00040F24171D848FBF76DF9268C4FF6DF7055
:1059B00006404FF6FF7000EA05100643268470BDCE
:1059C00070B504460D460026CA48844202D0CA4833
:1059D000844200D104E040F25771CB48FBF752F902
:1059E0000DB1082D00D104E04FF4EB61C648FBF780
:1059F00049F9268C4FF67F7006404FF6FF7000EA9B
:105A000005100643268470BD70B504460D46002679
:105A1000B84884420ED0B4F1804F0BD0BB488442CA
:105A200008D0BB48844205D0BA48844202D0B2486C
:105A3000844200D104E040F26F71B348FBF722F9D1
:105A40000DB1022D00D104E04FF4EE61AE48FBF73A
:105A500019F9268C4FF6FF5006404FF6FF7000EA0A
:105A600005200643268470BD70B504460D46002609
:105A7000A048844202D0A048844200D104E040F211
:105A80008771A148FBF7FEF80DB1082D00D104E0A5
:105A90004FF4F1619C48FBF7F5F8268C4FF2FF704C
:105AA00006404FF6FF7000EA05200643268470BDCD
:105AB00070B504460D4600268E4884420ED0B4F1DF
:105AC000804F0BD09148844208D09148844205D041
:105AD0009048844202D08848844200D104E040F2D9
