:020000040800F2
:1000000020090020A9250008B5040008B70400084D
:10001000BB040008BF040008C3040008000000007F
:10002000000000000000000000000000C7040008FD
:10003000C904000800000000CB040008CD0400083B
:10004000C3250008C3250008C3250008C3250008F0
:10005000C3250008C3250008C3250008C3250008E0
:10006000C3250008C3250008C3250008C3250008D0
:10007000C3250008C3250008C3250008C3250008C0
:10008000C3250008C3250008C3250008C3250008B0
:10009000C3250008C3250008C3250008C3250008A0
:1000A000C3250008C3250008C3250008C325000890
:1000B000C32500080B240008C3250008C325000839
:1000C000C3250008C3250008C3250008C325000870
:1000D000C32500088F1C0008851F0008C3250008E1
:1000E000C3250008C3250008C3250008C325000850
:1000F000C3250008C3250008C3250008C325000840
:10010000C3250008C3250008C3250008C32500082F
:10011000611E0008031D0008C3250008C325000850
:10012000C3250008C3250008C3250008C32500080F
:1001300000F002F800F050F80AA090E8000C8244A9
:100140008344AAF10107DA4501D100F045F8AFF286
:10015000090EBAE80F0013F0010F18BFFB1A43F0A5
:1001600001031847ECC700000CC80000103A24BF78
:1001700078C878C1FAD8520724BF30C830C144BF0C
:1001800004680C607047000000230024002500264E
:10019000103A28BF78C1FBD8520728BF30C148BFEA
:1001A0000B60704766290CF09482642909F0A084E2
:1001B000782909F0D98473290AF007810020704753
:1001C0001FB50AF04BF90400002000210BF004FCDD
:1001D000E0601FBD10B510BD0AF044FA1146FFF7EC
:1001E000EFFF00F01DF80AF062FA03B4FFF7F2FF28
:1001F00003BC01F0E3FC000010B5FF209249087039
:10020000AA204870BB2088700020C870087148710F
:100210008871FD20C87108218B4802F071F910BD6A
:100220008EB0342101A809F004FE00240025A04668
:1002300000BF01F059FC4FF4A06002F0D5F94FF473
:10024000165001F0D8FC4FF4165001F02BFE4FF47D
:10025000165001F0B6FD4FF4165001F061FD01F0AB
:10026000C4FE00F0C9FF00200323072202210090F2
:1002700002F0E2F841F61F4141F2873002F088F8BF
:100280000121084601F0F1FB70A009F0C1FB00F06C
:100290000FFA01F0CDF84FF47A7001F062FC4FF4E0
:1002A0007A7001F05EFC4FF47A7001F05AFC4FF462
:1002B0007A7001F056FC4FF47A7001F052FC4FF462
:1002C0007A7001F04EFC4FF47A7001F04AFC022182
:1002D000012001F0CAFB39E001F07CFB08B3FFF715
:1002E0008BFF012500BF5DA101A809F017FD0024C7
:1002F00007E05C48005D3030C1B2201D01AA1154F6
:10030000641C062CF5DB00208DF80E0001F04FF880
:100310000321012001F0A9FB01A953A009F078FBFA
:1003200015E05348007888B10020514908705148C1
:10033000006808B9012000E000204E49086001F083
:1003400077F8B8F1000F01D001F031F8C4E700BF31
:1003500000F0D1FD00F058FB47A009F059FB72E016
:100360004948007850B1002047490870414800686A
:1003700008B9012000E000203E49086000F052FA70
:1003800000F02EFC3A48007800285CD00020384964
:1003900008703EA101A809F0C1FC3CA000F0C8FD16
:1003A00001A931A009F034FB3CA101A809F0B6FC79
:1003B0003B4800680CF0FEF8064632460B4639A171
:1003C0000DF1070009F030FB01A800F0B1FD01A913
:1003D00025A009F01DFB34A101A809F09FFC3448B9
:1003E00000680CF0E7F8064632460B462DA10DF1E9
:1003F000090009F019FB01A800F09AFD01A91AA053
:1004000009F006FB00F013FAEDB108210E4802F0E6
:1004100077F812A101A809F081FC002407E0114837
:10042000005D3030C1B2201D01AA1154641C062C9D
:10043000F5DB00208DF80E0001A800F079FD01A980
:1004400009A009F0E5FA8BE77C000020537973746A
:10045000656D20496E69740D0A0000005549442CF1
:1004600000000000AD02002025730D0A000000000E
:10047000650000209001224244657669636573201F
:10048000496E69740D0A0000660000204649442C3C
:1004900041444E32333433345300000050612C0059
:1004A0003C0000202566000054656D702C000000A3
:1004B00038000020704700BFFEE700BFFEE700BF26
:1004C000FEE700BFFEE770477047704770470000C7
:1004D0000CB50020019000906C48006840F480301A
:1004E0006A49086000BF6948006800F40030009065
:1004F0000198401C0190009818B90198B0F5A06FC0
:10050000F1D16248006800F4003010B10120009081
:1005100001E0002000900098012843D15C48006869
:1005200040F010005A4908600846006820F00300B7
:1005300008600846006840F00200086053484068C0
:10054000524948600846406848600846406840F4A0
:10055000806048600846406820F47C104860084687
:10056000406840F4E81048600846006840F0807039
:10057000086000BF4548006800F000700028F9D00E
:100580004248406820F003004049486008464068FF
:1005900040F00200486000BF3C48406800F00C009A
:1005A0000828F9D10CBD10B5FFF792FF10BD10B5AA
:1005B0003648006840F00100344908600846406849
:1005C00034490840314948600846006832490840CB
:1005D0002E4908600846006820F48020086008461C
:1005E000406820F4FE0048604FF41F008860FFF769
:1005F000DAFF4FF000602949086010BD10B50021F6
:1006000000200022214B5B6803F00C0121B104297A
:1006100006D0082928D107E0214B224C236027E08F
:100620001F4B204C236023E0184B5B6803F47010D1
:10063000164B5B6803F48032022303EB904022B92F
:10064000194B4343174C23600DE0104B5B6803F4D8
:10065000003323B1144B4343124C236003E0104B8F
:100660004343104C236003E00D4B0E4C236000BF4E
:1006700000BF064B5B68C3F303130C4CE15C094BF2
:100680001B68CB40074C236010BD000000100240E7
:10069000002002400000FFF8FFFFF6FE08ED00E03A
:1006A00000127A000000002000093D000400002034
:1006B00008B50121102003F0AAF81020ADF80000C1
:1006C0008DF8030003208DF802006946034802F00C
:1006D000EFF81021014802F0BEFA08BD00100140F9
:1006E00010B50446242C02D1002087490880864892
:1006F00001880088401C844A108084484454007853
:1007000024281ED1814800794D281AD17F4840798C
:10071000432816D10A2C14D150217D4809F067FBDB
:100720007948028879497A4809F01CFB0120784908
:1007300081F85000002074490880C821734809F0EE
:1007400056FB71480088C82802DBC8206E49088023
:1007500010BDF8B500266E4890F85000002860D013
:1007600000206B4981F8500000BF58E02EB969A104
:10077000674809F0C1FA04464FE0641C65A12046B1
:1007800009F0BAFA050048D0072E2ED2DFE806F0AD
:100790002D040B11181F26002A1B21465C485230DD
:1007A00009F0E0FA22E02A1B2146684609F0DAFA4D
:1007B0001CE02A1B214656485D3009F0D3FA15E0AB
:1007C0002A1B21465248683009F0CCFA0EE02A1B59
:1007D00021464F486A3009F0C5FA07E02A1B214636
:1007E0004B48763009F0BEFA00E000BF00BF2C464F
:1007F0000120474981F851009DF80000412803D1AC
:10080000012081F8780007E09DF80000562803D108
:1008100000203F4981F8780000BF701CC6B2062E48
:10082000A4DDF8BD10B5FFF794FF002010BD10B592
:10083000374890F85100002865D00020344981F8ED
:10084000510035A1374809F069FA3149523135482C
:10085000083009F063FA334800F06AFB314932A0EE
:1008600009F0D6F82A4890F87800002848D00020EF
:10087000274981F878002EA12A4809F04FFA244927
:100880005D312848093009F049FA264800F050FB4C
:10089000244925A009F0BCF828A1224809F03EFA15
:1008A0001B4968311F48001D09F038FA1D4800F047
:1008B0003FFB1C491CA009F0ABF822A1194809F024
:1008C0002DFA13496A3117480A3009F027FA1548FA
:1008D00000F02EFB134914A009F09AF81CA111484E
:1008E00009F01CFA0A4976310E48001D09F016FA83
:1008F0000C4800F01DFB0B490BA009F089F802E041
:1009000015A009F085F810BD14000020FF0000209C
:10091000860000202C00000055544354696D652C5E
:1009200000000000C701002025730D0A0000000030
:100930006C617469747564652C0000004E5F532C03
:10094000000000006C6F6E6769747564652C0000B0
:10095000455F572C0000000047505320444154414C
:10096000206973206E6F742075736566756C6C21D9
:100970000D0A000038B504466B4602222146772056
:1009800001F0C5FC9DF801009DF8001040EA01202F
:1009900005B2284638BD10B5AA20FFF7EBFF9849ED
:1009A0000880AC20FFF7E6FF96490880AE20FFF7ED
:1009B000E1FF95490880B020FFF7DCFF93490880EC
:1009C000B220FFF7D7FF92490880B420FFF7D2FF8B
:1009D00090490880B620FFF7CDFF8F490880B820E6
:1009E000FFF7C8FF8D490880BA20FFF7C3FF8C4985
:1009F0000880BC20FFF7BEFF8A490880BE20FFF7B1
:100A0000B9FF8949088010BD10B5FFF7C4FF10BDBC
:100A100010B500243422F421772001F023FCF621C4
:100A2000772001F0FCFB044600BF204610BD10B546
:100A30002E22F421772001F015FCF620FFF79AFF13
:100A40000446204610BD10B5D021772001F0E7FB09
:100A500010BD2DE9F04F8FB081468A466D48008861
:100A6000A9EB00006A4909884843C4136D48B0F9EE
:100A70000000C0026C49B1F90010214490FBF1F56F
:100A800060190C900C98083000110B900B980BF02B
:100A90002EFA0022654BCDE906010BF0A1F8CDE955
:100AA00008010AF0AFFF624908600C98A0F57A6669
:100AB0005A48B0F9000070437043C4155148B0F96A
:100AC00000007043C51204EB050B4D49B1F900104D
:100AD0000BEB8101881CC11700EB917189100D91FE
:100AE0004948B0F900007043441306FB06F00013B8
:100AF0004949B1F90010484305146019801C4FEAB8
:100B0000A00B424800880BF500414843C00B0A90F7
:100B10000D98AAEB00004CF2503100FB01F8B8F13F
:100B2000004F05D24FEA48010A98B1FBF0F703E005
:100B30000A98B8FBF0F0470038460BF0D8F90022CD
:100B40003C4BCDE902010BF04BF8CDE906013846EC
:100B50000BF0CDF90022374BCDE902010BF040F844
:100B6000CDE90401DDE906230BF014FACDE9080113
:100B70000BF08EF9044640F6DE30604304142E4834
:100B800078430514601900F6CF6007EB201738464C
:100B90000BF03CFD2949086038460BF0A8F900220B
:100BA000274BCDE900010BF01BF8264A264BCDE977
:100BB00002010AF00FFA0022244BCDE904010BF0E8
:100BC0001DFB0022224BCDE906010BF0E3F9CDE934
:100BD00008010AF017FF1F4908600FB0BDE8F08F49
:100BE00010B5FFF724FF1C490860FFF711FF1B49F0
:100BF00008600846016818480068FFF72AFF10BD22
:100C0000180000201A0000201C0000201E000020F8
:100C100020000020220000202400002026000020C8
:100C2000280000202A0000202C0000200000244082
:100C3000380000200000704043E3FFFF3C0000202C
:100C4000D0BCF8406C45D9CC955BC83F0000F03F64
:100C500040A5E54040000020340000203000002086
:100C6000BE490A780978491CBC4B1970BC498854A4
:100C700019460978C82902DB00211A46117070470D
:100C8000B848007870B1B8480078401CC0B2B64986
:100C90000870022806DB00200870B4480078401C69
:100CA000B2490870704710B504460BE000BF402100
:100CB000AF4803F035FC0028F9D014F8011BAC480C
:100CC00003F04FFA20780028F0D110BD10B504468B
:100CD00000BF4021A64803F023FC0028F9D021469C
:100CE000A34803F03EFA10BD002004E000219C4A16
:100CF0001154411C88B2C828F8DB0021974A1170B2
:100D000070472DE9F04104460E4615462746FFF789
:100D1000EBFF002095490870924908702EE031469B
:100D20008F4808F0E9FF00BB8E48007878B93C4650
:100D30002046FFF7B8FF8FA0FFF7B5FF00208A49D4
:100D400008708A49087001208649087016E08748B3
:100D50000078A84212DB002084490870814908709D
:100D6000FFF7C2FF0020BDE8F08100207F49087036
:100D70007C490870FFF7B8FF0120F4E7CFE72DE9C1
:100D8000F04106460F4690461C4600250DE06420C3
:100D900000F0E7FE424639463046FFF7B2FF10B199
:100DA0000120BDE8F081681CC5B2A542EFDD00203E
:100DB000F7E710B570A0FFF776FF0323142272A1A6
:100DC00073A0FFF7DCFF20B974A008F021FE00201B
:100DD00010BD03230A2277A177A0FFF7D0FF20B927
:100DE00079A008F015FE0020F2E703230A2271A182
:100DF0007BA0FFF7C4FF20B980A008F009FE002007
:100E0000E6E703230A226BA182A0FFF7B8FF20B90F
:100E100083A008F0FDFD0020DAE703230A2265A184
:100E200085A0FFF7ACFF20B989A008F0F1FD0020F4
:100E3000CEE703230A225FA18DA0FFF7A0FF20B910
:100E40008FA008F0E5FD0020C2E703230A2259A184
:100E500093480068FFF793FF20B992A008F0D8FDEF
:100E60000020B5E7642000F07CFEFFF73DFF012085
:100E7000AEE710B503224FA190A0FFF742FF10BDCF
:100E800070B50025FFF730FF8EA0FFF70CFF4FF481
:100E9000FA7000F066FE00BF29E0002423E030482D
:100EA000005D3A2814D12E49201D085C312803D05A
:100EB000201D085C352801D1012070BDC72C10DB36
:100EC00080A0FFF7F0FE4FF4FA7000F04AFE08E051
:100ED000C72C06DB7BA0FFF7E6FE4FF4FA7000F0AC
:100EE00040FE601CC4B2C82CD9DB681CC5B21E2DE4
:100EF000D3DB0020E1E710B5FFF7C2FF20B974A0F3
:100F000008F086FD002010BDFFF7B3FFFFF751FF8B
:100F100020B973A008F07CFD0020F4E7022276A13E
:100F200076A0FFF7EEFEFF207749087000BFEAE7E2
:100F300010B504467448007870B14FF47A7000F030
:100F400010FE02226CA16DA0FFF7DBFE2046FFF72A
:100F5000AAFE6EA0FFF7A7FE002010BD44000020EF
:100F6000E501002047000020450000204600002049
:100F7000004C00400D0A000041542B434950434CA3
:100F80004F53453D3100000053485554204F4B000E
:100F900041542B43495053485554000053494D2068
:100FA000B9D8B1D5D2C6B6AFB3A1BEB0CAA7B0DC6E
:100FB0000D0A00004F4B000041542B4347434C4166
:100FC00053533D224222000053494D20C9E8D6C365
:100FD000D2C6B6AFC6BDCCA8CAA7B0DC0D0A000009
:100FE00041542B434744434F4E543D312C224950EA
:100FF000222C22434D4E45542200000053494D20DF
:10100000C9E8D6C3504450C9CFCFC2CEC4CAA7B0D6
:10101000DC0D0A0041542B43474154543D3100003C
:1010200053494D20B8BDD7C547505253D2B5CEF124
:10103000CAA7B0DC0D0A000041542B43495043536A
:1010400047503D312C22434D4E45542200000000B4
:1010500053494D20C9E8D6C3CEAA47505253C1AC1C
:10106000BDD3C4A3CABDCAA7B0DC0D0A00000000EE
:1010700041542B434950484541443D310000000054
:1010800053494D20C9E8D6C3BDD3CAD5CAFDBEDD7C
:10109000CFD4CABE4950CDB7CAA7B0DC0D0A0000F4
:1010A0004C00002053494D20C9E8D6C3B7FECEF10D
:1010B000C6F74950CAA7B0DC0D0A000041544530BC
:1010C0000000000041542B435245473F0D0A0000E9
:1010D00053494D20D7A2B2E1CAA7B0DC0D0A0000E7
:1010E00053494D20C1ACBDD3B7FECEF1C6F7CAA758
:1010F000B0DC0D0A000000003E00000041542B430C
:10110000495053454E440000480000201A0000009A
:10111000002103E000BF00BF00BF491C8142F9D39A
:101120007047014600BFFE48008800F0020000281A
:10113000F9D0FB48001D018000BFF948008800F08D
:1011400001000028F9D0F648001D0088C0B27047A1
:1011500070B50546002405E0601CC4B2C82C01DD52
:10116000002070BD0221EE48083807F0F6FA00288A
:10117000F2D02946EA48083807F09EF9002405E035
:10118000601CC4B2C82C01DD0020EAE70121E4485C
:10119000083807F0E2FA0028F2D0E148083807F0F2
:1011A000A0F9C0B2DDE710B504466CB1082C0BD035
:1011B000102C09D0182C07D0202C05D0282C03D0B7
:1011C000302C01D0382C00D103E05A21D5A000F0FA
:1011D00005FDD348083800884FF6C7710840D0494C
:1011E0000839088008460088204308800121CC483F
:1011F000083807F086F810BD00B587B001214820F7
:1012000002F005FB0121880302F02AFB0320ADF860
:10121000180010208DF81B0003208DF81A0006A975
:10122000C74801F045FB0221C54801F03FFD4FF4DE
:101230006040ADF8180018208DF81B0003208DF8D1
:101240001A0006A9BF4801F033FB4FF46041BD48C6
:1012500001F001FD0020ADF804004FF48270ADF8FC
:1012600006000020ADF80800ADF80A00ADF80C004B
:101270004FF40070ADF80E003820ADF810000020DB
:10128000ADF812000720ADF8140001A9A4480838F1
:1012900006F0A4FE0121A248083807F032F807B092
:1012A00000BD10B502460B460120A5491431086067
:1012B0007E2000EA42042046FFF733FF1846FFF77E
:1012C00030FF01209E491031086010BD10B5024664
:1012D000002401209A49143108607E2000EA42006F
:1012E00040F080031846FFF71CFF0020FFF719FFAE
:1012F00004460120924910310860204610BD70B5A7
:1013000005460C4600262846FFF7E0FF064646EA5B
:1013100004012846FFF7C5FF70BD10B51420FFF784
:10132000D5FF044604F0030018B903211420FFF789
:10133000E6FF10BD70B505460C4600262846FFF7AF
:10134000C5FF064626EA04012846FFF7AAFF70BD3E
:1013500010B50446412C26D108210846FFF7EAFFC4
:101360003D211120FFF79DFF86211720FFF799FFF0
:101370007F212620FFF795FF1E212D20FFF791FFEB
:1013800000212C20FFF78DFF8D212A20FFF789FFF8
:101390003E212B20FFF785FF4FF47A70FFF7B8FE50
:1013A000FFF7BBFF01E0012010BD0020FCE700B506
:1013B00003211420FFF7BEFF00BD00B502206049E5
:1013C000103108600A20FFF7A3FE02205C491431A7
:1013D00008600A20FFF79CFE02205949103108607E
:1013E0000A20FFF795FE0F210120FFF75AFF0F217A
:1013F0000120FFF756FF0A20FFF78AFE3D2111204A
:10140000FFF74FFF1E212D20FFF74BFF00212C205F
:10141000FFF747FF8D212A20FFF743FF3E212B20B6
:10142000FFF73FFF40211520FFF73BFF002000BDE5
:1014300010B5FFF7C2FFFFF7BAFF032000F091FBE2
:10144000FFF76BFF4120FFF783FF10BD10B5FFF7DB
:10145000B4FFFFF7ACFF022000F083FBFFF75DFF56
:1014600010BD2DE9FE4F0646884691469A46DDF8A6
:1014700030B0022002900020019000900C2E06D087
:101480000E2E09D1122001901020009005E0772047
:1014900001903020009000E000BF00BF019840F0B4
:1014A00080010220FFF7FDFE80210420FFF742FFAC
:1014B00000210120FFF7F5FE80210A20FFF71FFF22
:1014C000002506E018F805100920FFF7EAFE681C61
:1014D00085B24D45F6DB31460120FFF7E2FE0C2ECA
:1014E00003D180210D20FFF70AFF4FF4FA6500BFFA
:1014F0000420FFF7EBFE0446681E85B235B104F008
:10150000010018B9009820400028F1D080210D205A
:10151000FFF710FF002D4DD00620FFF7D7FE13E098
:10152000083800402E2E5C48415244574152455CD9
:10153000524649445C72633532322E63000000002B
:1015400000180140000C014000F01B0078BB002097
:1015500002900198204000F0010008B101200290A3
:101560000C2E27D10A20FFF7B1FE04460C20FFF70E
:10157000ADFE00F007072FB1601E07EBC0008BF82F
:10158000000003E0E006000E8BF8000004B901241F
:10159000122C00DD1224002506E00920FFF796FE3C
:1015A0000AF80500681C85B2A542F6DB02E0FFE7F9
:1015B0000220029080210C20FFF7A1FE00210120D3
:1015C000FFF76FFE0298BDE8FE8F70B587B0054645
:1015D0000C4608210846FFF7ADFE07210D20FFF756
:1015E00060FE03211420FFF78AFE8DF8045006A840
:1015F00001AB012201A900900C20FFF732FF064643
:1016000056B99DF81800102806D19DF804002070E6
:101610009DF80500607000E00226304607B070BDFE
:10162000F0B587B00546002708210846FFF782FE7F
:1016300000210D20FFF735FE80210E20FFF77AFEF6
:1016400093208DF8040020208DF8050006A801AB3A
:10165000022201A900900C20FFF703FF064686B97D
:10166000002407E001A8005D285501A8005D47405F
:10167000601CC4B2042CF5DB01A8005DB84200D0A8
:10168000022680210E20FFF73AFE304607B0F0BD5B
:101690002DE9F04107468846154604210520FFF74D
:1016A00049FE00210120FFF7FCFD80210A20FFF701
:1016B00026FE002405E0395D0920FFF7F2FD601CDD
:1016C000C4B24445F7DB03210120FFF7EAFDFF2404
:1016D00000BF0520FFF7FAFD0646601EC4B21CB12C
:1016E00006F004000028F4D02220FFF7EFFD287058
:1016F0002120FFF7EBFD6870BDE8F08170B587B081
:10170000054693208DF8040070208DF80500002018
:101710008DF80A0000240BE0295D01AAA01C1154D9
:101720009DF80A00295D48408DF80A00601CC4B28B
:10173000042CF1DB0DF10B02072101A8FFF7A8FF34
:1017400008210846FFF7F6FD06A801AB092201A90A
:1017500000900C20FFF785FE06462EB99DF8180074
:10176000182801D1002600E00226304607B070BDDF
:101770002DE9F04187B004460D4616461F468DF808
:1017800004408DF805503068CDF80600B088ADF8FB
:101790000A003868039006A801AB0C2201A900904A
:1017A0000E20FFF75EFE8046B8F1000F05D108203D
:1017B000FFF78CFD00F0080008B94FF00208404622
:1017C00007B0BDE8F081F0B587B005460E46302081
:1017D0008DF804008DF805500DF10602022101A8D4
:1017E000FFF756FF06A801AB042201A900900C20C8
:1017F000FFF737FE07466FB99DF81800902809D10A
:10180000002404E001A8005D3055601CC4B2102C17
:10181000F8DB00E00227384607B0F0BDF0B587B02E
:1018200006460F46A0208DF804008DF805600DF1E6
:101830000602022101A8FFF72BFF06A801AB042234
:1018400001A900900C20FFF70CFE05464DB99DF84C
:101850001800042805D19DF8040000F00F000A28A4
:1018600000D0022515BB002404E0385D01A908550D
:10187000601CC4B2102CF8DB05AA102101A8FFF7E8
:1018800007FF06A801AB122201A900900C20FFF768
:10189000E8FD05464DB99DF81800042805D19DF8CE
:1018A000040000F00F000A2800D00225284607B0E7
:1018B000F0BD00B587B050208DF8040000208DF8F1
:1018C00005000DF10602022101A8FFF7E1FE06A8BE
:1018D00001AB042201A900900C20FFF7C2FD0020FB
:1018E00007B000BD2DE9F84307460D46904608268F
:1018F00043495220FFF769FE044624B902244148B7
:10190000FFF78EFE04467CB902243E48C078009062
:101910003C488378427801783BA008F079F8394850
:10192000FFF7ECFE044602E0FF20BDE8F8833CB977
:101930000224344B3A4A09216020FFF719FF04467C
:1019400054B9022429463046FFF73DFF0446294694
:101950003046FFF763FF04460CB90020E5E7FF209F
:10196000E3E72DE9F04107460D4690460826244955
:101970005220FFF72AFE04462CB902242148FFF723
:101980004FFE044602E0FF20BDE8F0812CB902249E
:101990001C48FFF7B3FE044601E0FF20F4E744B91A
:1019A0000224184B1E4A09216020FFF7E1FE04467D
:1019B00001E0FF20E8E734B9022429463046FFF76A
:1019C00002FF044601E0FF20DEE70CB90020DBE760
:1019D000FF20D9E730B5002400250A22114910461E
:1019E000FFF7BFFF0546FF2D03D034B901240120C6
:1019F00030BD14B100240020FAE70020F8E7000011
:101A0000500000205200002049443A25303278200E
:101A100025303278202530327820253032780A007F
:101A200056000020AD02002010B50446204600F00C
:101A300086FA10BD0EB500200090019002907E2025
:101A40008DF8000003208DF8010011208DF80200B0
:101A500012208DF80300EF208DF8040000208DF88F
:101A600005006846FFF7E0FF0EBD2DE9FE43064680
:101A70000F4600200090019002900024804600252F
:101A800000BF7E222146641C0DF80120052221465C
:101A9000641C0DF8012042222146641C0DF801202F
:101AA0002146641C0DF801602146641C0DF801708C
:101AB0009DF80180022504E01DF8050080EA080871
:101AC0006D1CA542F8DB2046611CCCB20DF80080ED
:101AD000EF222046611CCCB20DF800206846FFF7CB
:101AE000A3FFBDE8FE83000010B56FF0040000F016
:101AF0002AFE2E4800682E49B0FBF1F02D490870EF
:101B00000846007800EB4001C1EBC0104FF6FF71B2
:101B100001EAC0002849088010BD0146254A127814
:101B20004A434FF0E0235A6100229A611A46126933
:101B300042F001021A6100BF4FF0E022106900F08C
:101B400001021AB100F48032002AF5D04FF0E022F1
:101B5000126922F001024FF0E0231A6100229A611B
:101B600070470146144A12884A434FF0E0235A61F5
:101B700000229A611A46126942F001021A6100BFFE
:101B80004FF0E022106900F001021AB100F4803237
:101B9000002AF5D04FF0E022126922F001024FF046
:101BA000E0231A6100229A617047000000000020C3
:101BB00000127A005C0000205E000020014600BF99
:101BC0000020704700BFFB4A128802F04002002A42
:101BD000F9D0C2B2F74B1B1D1A80704704460D4660
:101BE00008E04FF4FA70FFF7BCFF2A462146F2A046
:101BF00007F00EFFF5E710B586B00446012144F268
:101C0000040001F004FE4FF40070ADF8140003204E
:101C10008DF8160018208DF8170005A9EA4800F085
:101C200047FE4FF48060ADF8140004208DF81700D3
:101C300005A9E54800F03CFE25208DF800000320B2
:101C40008DF801008DF8020001208DF80300684630
:101C500000F0E5FC01940020ADF80800ADF80A00A2
:101C6000ADF80C00ADF810000C20ADF80E0001A985
:101C7000D04801F048FF012240F22551CD4802F042
:101C8000B3F80121CB4802F082F806B010BD10B5C0
:101C900040F22551C74802F0D2FC80B1C54802F09D
:101CA00087FAC4B200BF4021C84802F039FC0028BE
:101CB000F9D02146621CD4B2C44802F052FA10BDD9
:101CC00010B504460BE000BF4021BA4802F028FCE2
:101CD0000028F9D02178B74802F043FA641C207834
:101CE0000028F0D110BD10B5044600BF4021B14816
:101CF00002F016FC0028F9D02146AE4802F031FA75
:101D000010BD10B540F22551B14802F098FC30B139
:101D1000AF4802F04DFAC4B22046FEF7E1FC10BD18
:101D200010B586B004460121080501F099FD012196
:101D3000102001F06CFD0121202001F068FD4FF41E
:101D40008050ADF8140003208DF8160018208DF88F
:101D5000170005A99F4800F0ABFD0420ADF8140062
:101D60008DF8170005A99C4800F0A2FD35208DF8DC
:101D7000000004208DF801008DF8020001208DF88C
:101D80000300684600F04BFC01940020ADF8080009
:101D9000ADF80A00ADF80C00ADF810000C20ADF85D
:101DA0000E0001A98A4801F0AEFE012240F2255141
:101DB000874802F019F80121854801F0E8FF06B0D4
:101DC00010BD10B586B004460121C80401F048FDDD
:101DD0000121102001F01BFD4FF48060ADF81400CC
:101DE00003208DF8160018208DF8170005A97948F2
:101DF00000F05EFD4FF40060ADF8140004208DF893
:101E0000170005A9734800F053FD34208DF8000039
:101E100003208DF801008DF8020001208DF80300E9
:101E2000684600F0FCFB01940020ADF80800ADF816
:101E30000A00ADF80C00ADF810000C20ADF80E0053
:101E400001A9624801F05FFE012240F225515F487E
:101E500001F0CAFF01215D4801F099FF06B010BDF5
:101E600010B540F22551594802F0E9FB30B157480E
:101E700002F09EF9C4B22046FEF7F2FE10BD10B586
:101E800004460BE000BF4021504802F049FB002807
:101E9000F9D014F8011B4D4802F063F920780028AE
:101EA000F0D110BD10B586B004460121480401F000
:101EB000D7FC0121042001F0AAFC0420ADF8140095
:101EC00003208DF8160018208DF8170005A93E484C
:101ED00000F0EEFC0820ADF8140004208DF8170087
:101EE00005A9394800F0E4FC26208DF80000032005
:101EF0008DF801008DF8020001208DF8030068467E
:101F000000F08DFB01940020ADF80800ADF80A0048
:101F1000ADF80C00ADF810000C20ADF80E0001A9D2
:101F20002E4801F0F0FD012240F225512B4801F02E
:101F30005BFF0121294801F02AFF06B010BD10B552
:101F400004460BE000BF4021244802F0E9FA0028D3
:101F5000F9D014F8011B214802F003F92078002879
:101F6000F0D110BD10B5044600BF40211B4802F05F
:101F7000D7FA0028F9D02146621CD4B2174802F0E3
:101F8000F0F810BD10B540F22551144802F057FB8F
:101F900070B1124802F00CF9C4B200BF40210548EC
:101FA00002F0BEFA0028F9D02146024802F0D9F822
:101FB00010BD0000003801404572726F723A2573FF
:101FC0000925640D0A00000000080140004C004093
:101FD0000050004000100140001401400044004047
:101FE00010B50220FFF799FD10BD08B501210820AA
:101FF00001F00DFCC020ADF8000010208DF80300AA
:1020000003208DF802006946DE4800F051FCC02133
:10201000DC4800F020FE08BD10B5DA48006820F06A
:102020007040D84908600846006840F04050086099
:102030000120D5490860D549C1F89801FFF7D0FFC4
:102040000020D1490860FFF7CBFF0020CF49C1F83D
:10205000980110BD10B5CB48006820F07040C94908
:1020600008600846006840F0405008600020C649FB
:10207000091F0860C549C1F89C01FFF7B1FF0120A5
:10208000C149091F0860C149C1F89C01FFF7A8FFB9
:1020900010BD10B50024BB48006820F07040B9495D
:1020A00008600846006840F0004008600120B6491A
:1020B0000860FFF795FF0120B449C1F89801FFF7C8
:1020C0008FFF07E0601CC4B2FA2C03DDFFF7C2FFEC
:1020D000012010BDAC48803800680028F2D1AA4920
:1020E000091F086000BFF4E710B50020A649091FCA
:1020F0000860A448006820F07040A24908600846C3
:10210000006840F0405008600020A049C1F89C01E0
:10211000FFF766FF01209C49091F0860FFF760FF79
:1021200000209A49C1F8980110BD10B500209649C9
:10213000091F08609348006820F0704091490860CA
:102140000846006840F04050086001208F49C1F8FF
:102150009C01FFF745FF01208B49091F0860FFF72D
:102160003FFF00208949C1F8980110BD70B50446B1
:102170008448006820F07040824908600846006882
:1021800040F04050086000207F49091F086000258A
:1021900012E0E0097C4908606006040E01207B49DA
:1021A000C1F89801FFF71CFF00207749091F08605C
:1021B000FFF716FF681CC5B2082DEADB70BD70B5CD
:1021C000054600246F48006820F070406D490860A3
:1021D0000846006840F000400860002615E0002036
:1021E0006949091F0860FFF7FBFE01206749C1F834
:1021F00098016006040E64488038006808B1601CCD
:10220000C4B2FFF7EDFE701CC6B2082EE7DB15B9AD
:10221000FFF78BFF01E0FFF767FF204670BD70B549
:1022200004460D46FFF7F8FEFE2101EA4400FFF7E1
:102230009DFFFFF72EFF2846FFF798FFFFF729FFC6
:10224000FFF7EAFE012101EB4401C8B2FFF78EFF60
:10225000FFF71FFF0020FFF7B2FF0646FFF7FAFE69
:10226000304670BD70B504460D461646FFF7D4FEE5
:10227000FE2101EA4400FFF779FFFFF70AFF18B1DA
:10228000FFF7E8FE012070BD2846FFF76FFFFFF75C
:1022900000FF3046FFF76AFFFFF7FBFE18B1FFF7BC
:1022A000D9FE0120EFE7FFF7D5FE0020EBE72DE98F
:1022B000F04105460E4617469846FFF7ADFE002151
:1022C00041EA4501C8B2FFF751FFFFF7E2FE20B136
:1022D000FFF7C0FE0120BDE8F0813046FFF746FF62
:1022E000FFF7D7FE00240CE018F80400FFF73EFFCC
:1022F000FFF7CFFE18B1FFF7ADFE0120EBE7601C42
:10230000C4B2BC42F0DBFFF7A5FE0020E3E72DE9F5
:10231000F04106460F4614461D46FFF77DFE00219C
:1023200041EA4601C8B2FFF721FFFFF7B2FE20B134
:10233000FFF790FE0120BDE8F0813846FFF716FF59
:10234000FFF7A7FEFFF768FE012101EB4601C8B2C7
:10235000FFF70CFFFFF79DFE0DE0012C04D10020DC
:10236000FFF72DFF287003E00120FFF728FF2870FA
:10237000601EC4B26D1C002CEFD1FFF76BFE002075
:10238000D9E70000000C01409C81214200802142DD
:102390007FB505460C460121022001F061FAADF837
:1023A0000850ADF804400020ADF80A00ADF8060072
:1023B00001A91D4802F034FB1D208DF8000001200A
:1023C0008DF8010003208DF8020001208DF8030034
:1023D000684600F024F901221146134803F0F8FB87
:1023E0000121114803F06FFB7FBD10480078401CAD
:1023F000C0B20E490870062806DB002008700120D4
:102400000B4908700B490870704710B50121064848
:1024100005F0DFFC38B10121034805F040FDFEF76F
:102420002FFCFFF7E2FF10BD000400406400002015
:1024300065000020660000202DE9F04188B00446C8
:102440000D4616461F46DDF838800121042001F0B4
:10245000DEF90121480601F003FA4FF48050ADF88F
:102460001C0003208DF81E0018208DF81F0007A9FE
:102470004B4800F01DFA4FF40060ADF81C004820F6
:102480008DF81F0007A9464800F012FA00208DF8C9
:1024900016008DF817008DF8180001208DF819002E
:1024A00000208DF81A008DF81B008DF812808DF831
:1024B00013408DF814608DF81550ADF8107004A914
:1024C000384806F037FA00208DF80A008DF80B0026
:1024D00001208DF80C000020ADF80000ADF80200DE
:1024E000ADF80400ADF80600ADF8080001208DF845
:1024F0000D00684606F02FFB002008B0BDE8F08113
:10250000F0B585B007460D460024122000900190DA
:1025100000208DF808008DF809008DF80A5000BFE2
:1025200005E0395D0DF10B000155601C84B2AC4231
:10253000F7DB69461B4806F086FC0646002401E0EE
:10254000601C84B23146174806F05AFD18B940F6AF
:10255000FF708442F4DB40F6FF70844202DB01200E
:1025600005B0F0BD0020FBE730B585B00546002181
:102570000C4806F099FE10B9002005B030BD6A463F
:102580000021084806F0D9FD002404E00DF10B00FD
:10259000005D2855641C082CF8D39DF80A00ECE770
:1025A000000801400064004009488047094800478E
:1025B000FEE7FEE7FEE7FEE7FEE7FEE7FEE7FEE7F3
:1025C000FEE7FEE704480549054A064B7047000050
:1025D000AF05000831010008200300202009002079
:1025E000200500202005002010B50446B4F5E06F5A
:1025F0000BD0B4F5C06F08D0B4F5A06F05D0B4F51A
:10260000806F02D0B4F5407F00D103E063215DA06C
:10261000FFF7E4FA634820436349086010BD2DE9E1
:10262000F0410446002500270F26E07810B1E0783D
:10263000012800D103E0752152A0FFF7CFFA60789E
:10264000102800DA03E076214EA0FFF7C7FAA07841
:10265000102800DA03E077214AA0FFF7BFFAE078FC
:1026600000B35148006800F4E060C0F5E060050A7E
:10267000C5F10407EE40607800FA07F5A078304015
:1026800005432D01494822788554207800F01F0128
:102690000120884021784911890001F1E021C1F829
:1026A000000109E0207800F01F0101208840404926
:1026B0002278521141F82200BDE8F08170B504463D
:1026C0000D46B4F1005F02D0B4F1006F00D103E019
:1026D0009F212CA0FFF782FA3648854200D203E002
:1026E000A02128A0FFF77AFA334905EA0100204328
:1026F0002D49091F086070BD70B504460D46102CA9
:1027000003D0042C01D0022C00D103E0B2211DA083
:10271000FFF764FA0DB1012D00D103E0B32119A038
:10272000FFF75CFA3DB12048001D006820431E49B8
:10273000091D086006E01C48001D0068A0431A49F6
:10274000091D086070BD10B50446042C01D0601D41
:1027500000B903E0CA210BA0FFF740FA042C08D10E
:102760004FF0E020006940F004004FF0E0210861E4
:1027700007E04FF0E020006920F004004FF0E02176
:10278000086110BD2E2E5C53544D333246313078E3
:102790005F46574C69625C7372635C6D6973632E4C
:1027A000630000000000FA050CED00E000E400E02A
:1027B00080E100E0FFFF0F0080FFFF1F10B504461F
:1027C000FC48844211D0FC4884420ED0FB4884422D
:1027D0000BD0FB48844208D0FA48844205D0FA481E
:1027E000844202D0F948844200D103E06F21F8A06E
:1027F000FFF7F4F9EF48844208D10121042001F0E9
:1028000058F80021042001F054F846E0EA488442D8
:1028100008D10121082001F04CF80021082001F026
:1028200048F83AE0E548844208D10121102001F03F
:1028300040F80021102001F03CF82EE0E0488442EE
:1028400008D10121202001F034F80021202001F0DE
:1028500030F822E0DB48844208D10121402001F019
:1028600028F80021402001F024F816E0D6488442E0
:1028700008D10121802001F01CF80021802001F006
:1028800018F80AE0D148844207D10121801501F0EF
:1028900010F80021A01501F00CF810BD10B50121B1
:1028A000084601F006F80021012001F002F810BDF1
:1028B0002DE9F05F05460C464FF00009CA46002698
:1028C0000027B046B346BB48854211D0BA4885427E
:1028D0000ED0BA4885420BD0B948854208D0B948D5
:1028E000854205D0B848854202D0B848854200D11B
:1028F00003E0B221B6A0FFF771F9E078A0B1E0786B
:10290000042811D0E07828280ED0E07848280BD091
:10291000E078142808D0E078102805D0E0781C284A
:1029200002D0E078182800D103E0B321A8A0FFF777
:1029300055F9002010B9208800B103E0B421A4A00B
:10294000FFF74CF9E07800F00F09E07800F0100094
:1029500080B1A078012805D0A078022802D0A07804
:10296000032800D103E0BB2199A0FFF737F9A07835
:1029700040EA0909207838B3D5F8008000261FE026
:10298000012000FA06F7208800EA070ABA4516D1A6
:10299000B7000F2000FA07FB28EA0B0809FA07F036
:1029A00040EA0808E078282803D10120B040686197
:1029B00005E0E078482802D10120B0402861761C6B
:1029C000082EDDD3C5F800802088FF282BDDD5F840
:1029D0000480002623E006F10800012101FA00F737
:1029E000208800EA070ABA4518D1B7000F2000FA7C
:1029F00007FB28EA0B0809FA07F040EA0808E07824
:102A0000282803D106F1080081406961E078482850
:102A100004D106F10800012181402961761C082EAD
:102A2000D9D3C5F80480BDE8F09F4FF6FF7101804F
:102A3000022181700421C170704770B505460C46B3
:102A400000265C48854211D05B4885420ED05B4829
:102A500085420BD05A48854208D05A48854205D055
:102A60005948854202D05948854200D104E04FF4CC
:102A70008F7157A0FFF7B2F8012C25D0022C23D07C
:102A8000042C21D0082C1FD0102C1DD0202C1BD0A2
:102A9000402C19D0802C17D0B4F5807F14D0B4F519
:102AA000007F11D0B4F5806F0ED0B4F5006F0BD05D
:102AB000B4F5805F08D0B4F5005F05D0B4F5804F61
:102AC00002D0B4F5004F00D104E040F21F1140A045
:102AD000FFF784F8A868204008B1012600E000262E
:102AE000304670BD10B504463248844211D0324899
:102AF00084420ED0314884420BD03148844208D001
:102B00003048844205D03048844202D02F48844265
:102B100000D104E04FF49A712DA0FFF75FF8A06890
:102B200080B210BD70B505460C460026214885428E
:102B300011D0214885420ED0204885420BD0204834
:102B4000854208D01F48854205D01F48854202D0E3
:102B50001E48854200D104E04FF4A2711CA0FFF78B
:102B60003DF8012C25D0022C23D0042C21D0082C98
:102B70001FD0102C1DD0202C1BD0402C19D0802C05
:102B800017D0B4F5807F14D0B4F5007F11D0B4F520
:102B9000806F0ED0B4F5006F0BD0B4F5805F08D015
:102BA000B4F5005F05D0B4F5804F02D0B4F5004F06
:102BB00022D127E000080140000C01400010014034
:102BC0000014014000180140001C01400020014099
:102BD0002E2E5C53544D3332463130785F46574C7D
:102BE00069625C7372635C73746D33326631307822
:102BF0005F6770696F2E630040F24511AFF23000DD
:102C0000FEF7ECFFE868204008B1012600E000264E
:102C1000304670BD10B50446FE48844211D0FE48CF
:102C200084420ED0FD4884420BD0FD48844208D037
:102C3000FC48844205D0FC48844202D0FB488442D0
:102C400000D105E04FF4AD71AFF27C00FEF7C6FF96
:102C5000E06880B210BD70B504460D46ED48844270
:102C600011D0ED4884420ED0EC4884420BD0EC48A1
:102C7000844208D0EB48844205D0EB48844202D01D
:102C8000EA48844200D105E040F26911AFF2C00089
:102C9000FEF7A4FF002008B905B105E04FF4B571B7
:102CA000AFF2D400FEF79AFF256170BD70B50446FF
:102CB0000D46D848844211D0D74884420ED0D74818
:102CC00084420BD0D648844208D0D648844205D0EE
:102CD000D548844202D0D548844200D105E040F274
:102CE0007911AFF21410FEF779FF002008B905B191
:102CF00005E04FF4BD71AFF22810FEF76FFF65617C
:102D000070BD70B505460C461646C248854211D0C6
:102D1000C14885420ED0C14885420BD0C04885428B
:102D200008D0C048854205D0BF48854202D0BF4880
:102D3000854200D105E040F28D11AFF26C10FEF734
:102D40004DFF012C25D0022C23D0042C21D0082C9F
:102D50001FD0102C1DD0202C1BD0402C19D0802C23
:102D600017D0B4F5807F14D0B4F5007F11D0B4F53E
:102D7000806F0ED0B4F5006F0BD0B4F5805F08D033
:102D8000B4F5005F05D0B4F5804F02D0B4F5004F24
:102D900000D105E04FF4C771AFF2CC10FEF71EFF73
:102DA0000EB1012E00D105E040F28F11AFF2E0101C
:102DB000FEF714FF0EB12C6100E06C6170BD70B5C0
:102DC00004460D469348844211D0934884420ED065
:102DD000924884420BD09248844208D09148844261
:102DE00005D09148844202D09048844200D105E049
:102DF0004FF4D271AFF22820FEF7F0FEE56070BD0F
:102E000070B504460D464FF480368248844211D096
:102E1000814884420ED0814884420BD0804884424D
:102E200008D08048844205D07F48844202D07F4841
:102E3000844200D105E040F2B511AFF26C20FEF7FC
:102E4000CDFE002008B905B105E04FF4DB71AFF20B
:102E50008020FEF7C3FE2E43A661A561A661A66988
:102E6000A66970BD70B505460C4600263DB1012D22
:102E700005D0022D03D0032D01D0042D00D105E093
:102E80004FF4E971AFF2B820FEF7A8FEECB1012CC7
:102E90001BD0022C19D0032C17D0042C15D0052CD4
:102EA00013D0062C11D0072C0FD0082C0DD0092CD4
:102EB0000BD00A2C09D00B2C07D00C2C05D00D2CD4
:102EC00003D00E2C01D00F2C00D105E040F2D3111D
:102ED000AFF20430FEF782FE554806684FF6807068
:102EE000064046EA051626435148066070BD10B5F7
:102EF00004460CB1012C00D105E04FF4F371AFF2A0
:102F00003030FEF76BFE4B48C46110BD2DE9F04731
:102F100004460E460027B8460025A946012C77D066
:102F2000022C75D0042C73D0082C71D042488442F6
:102F30006ED04148203084426AD04048844267D0F5
:102F40003E488030844263D03D48844260D03D4852
:102F500084425DD03C4884425AD03C48844257D099
:102F60003B48844254D0B4F5805F51D0B4F5EA1F99
:102F70004ED0B4F5EB1F4BD0B4F5004F48D03548D8
:102F8000844245D0401C844242D0801C84427FD081
:102F9000001D84427CD02F480F30844278D0B4F199
:102FA000201F75D04FEAF030844271D02A48844205
:102FB0006ED02A4884426BD02948844268D0294880
:102FC000844265D02848844262D0B4F5011F5FD0A6
:102FD000264884425CD0401C844259D0801C8442E4
:102FE00056D0001D844253D020480F3084424FD029
:102FF0001E481F3084424BD01C483F30844247D08B
:103000001A487F30844243D01848FF3084422FE072
:103010003EE0000000080140000C014000100140AB
:103020000014014000180140001C01400020014034
:103030000000014000002042100014004000160073
:1030400000011800000218000003180000081A0010
:10305000000C1A00010020000001300000023000C6
:10306000000430000011200000202000010000803A
:103070000ED0664884420BD06548844208D065482B
:10308000844205D06448844202D06448844200D11E
:1030900005E040F22A21AFF2C840FEF79FFD0EB1D5
:1030A000012E00D105E040F22B21AFF2DC40FEF70B
:1030B00095FD04F00040B0F1004F02D15848C569B9
:1030C00001E057484568C4F30349A7B204F440102F
:1030D000B0F5401F08D125F070655148406820F0D8
:1030E00070604F49486013E004F48010B0F5801F11
:1030F00007D1032000FA09F825EA080545F07065B4
:1031000006E0600D000107FA00F0854345F07065A8
:1031100026B1600D010107FA01F0054304F00040FB
:10312000B0F1004F02D13E48C56101E03C48456026
:10313000BDE8F08770B505460C4600265DB1012D4F
:1031400009D0022D07D0032D05D0042D03D0052D65
:1031500001D0062D00D105E040F26521AFF290507C
:10316000FEF73CFDECB1012C1BD0022C19D0032C36
:1031700017D0042C15D0052C13D0062C11D0072CF9
:103180000FD0082C0DD0092C0BD00A2C09D00B2CF9
:1031900007D00C2C05D00D2C03D00E2C01D00F2CF9
:1031A00000D105E040F26621AFF2DC50FEF716FDDB
:1031B000A007010F0F2000FA01F619480830A110EE
:1031C00050F82100B04316490831A21041F82200FE
:1031D0000846A11050F82100A107090F05FA01F1D6
:1031E00008430F490831A21041F8220070BD10B504
:1031F00004460CB1012C00D105E04FF41E71AFF272
:103200003060FEF7EBFC0748046010BD0002008050
:103210000004008000080080001000800020008072
:1032200000000140DC002042FE48006840F0010040
:10323000FC49086008464068FB490840F949486075
:1032400008460068F9490840F649086008460068E1
:1032500020F4802008600846406820F4FE004860A2
:103260004FF41F008860704710B504462CB1B4F5C8
:10327000803F02D0B4F5802F00D104E040F211115C
:10328000EBA0FEF7ABFCE748006820F48030E5498E
:1032900008600846006820F480200860B4F5803F8C
:1032A00003D0B4F5802F0ED106E0DE48006840F46C
:1032B0008030DC49086007E0DA48006840F4A0206C
:1032C000D849086000E000BF00BF10BD2DE9F04103
:1032D0000446002500260027212C13D0312C11D0C4
:1032E000392C0FD0412C0DD0612C0BD07A2C09D069
:1032F0007B2C07D07C2C05D07D2C03D07E2C01D0DC
:103300007F2C00D104E040F23451C9A0FEF766FCE6
:103310006511012D02D1C348066806E0022D02D1D5
:10332000C048066A01E0BF48466A04F01F05012054
:10333000A840304008B1012700E000273846BDE82A
:10334000F08138B5002000900024002500BF312016
:10335000FFF7BCFF05460098401C00900098B0F5B0
:10336000A06F01D0002DF2D03120FFF7AFFF08B1E0
:10337000012400E00024204638BD70B50446002535
:103380001F2C00DC04E04FF4A971A9A0FEF726FC75
:10339000A448056825F0F80545EAC405056070BD38
:1033A00010B504460CB1012C00D104E040F26511C7
:1033B0009FA0FEF713FCA848046010BD70B5054639
:1033C0000C4600262DB1B5F5803F02D0B5F5403F43
:1033D00000D104E040F27F1195A0FEF7FFFB4CB353
:1033E000B4F5802F26D0B4F5002F23D0B4F5402FAC
:1033F00020D0B4F5801F1DD0B4F5A01F1AD0B4F5AD
:10340000C01F17D0B4F5E01F14D0B4F5001F11D0C1
:10341000B4F5101F0ED0B4F5201F0BD0B4F5301F3B
:1034200008D0B4F5401F05D0B4F5501F02D0B4F554
:10343000601F00D104E04FF4C0717DA0FEF7CEFB09
:103440007848466826F47C1645EA04000643754829
:10345000466070BD10B504460CB1012C00D104E0EB
:103460004FF4CA7172A0FEF7B9FB7B48046610BD29
:1034700070B5044600251CB1012C01D0022C00D1EE
:1034800004E04FF40E716AA0FEF7A8FB654845689A
:1034900025F003052543456070BD6248406800F093
:1034A0000C00704770B5044600257CB1802C0DD00F
:1034B000902C0BD0A02C09D0B02C07D0C02C05D05C
:1034C000D02C03D0E02C01D0F02C00D104E04FF43C
:1034D000197157A0FEF782FB5248456825F0F005A8
:1034E0002543456070BD70B5044600255CB1B4F558
:1034F000806F08D0B4F5A06F05D0B4F5C06F02D0CE
:10350000B4F5E06F00D104E040F27E2148A0FEF760
:1035100065FB4448456825F4E0652543456070BD7A
:1035200070B5044600255CB1B4F5806F08D0B4F5E1
:10353000A06F05D0B4F5C06F02D0B4F5E06F00D134
:1035400004E04FF426713AA0FEF748FB3548456881
:1035500025F4605545EAC405456070BD70B5044664
:103560000D4604F0E00008B904B104E040F2BF21C8
:103570002FA0FEF733FB0DB1012D00D104E04FF475
:1035800030712BA0FEF72AFB2DB12648407A20434C
:103590002449487204E02348407AA04321494872F4
:1035A00070BD10B504460CB1012C00D104E040F20E
:1035B000DB211FA0FEF712FB2748D830046010BDA6
:1035C00070B50446002544B1B4F5804F05D0B4F57C
:1035D000004F02D0B4F5404F00D104E040F2023178
:1035E00013A0FEF7FBFA0F48456825F44045254334
:1035F000456070BD10B504461CB1012C01D0042CEF
:1036000000D104E04FF4507109A0FEF7E7FA002062
:10361000044920310870034981F82000012C1FD093
:10362000042C1BE0001002400000FFF8FFFFF6FE34
:103630002E2E5C53544D3332463130785F46574C12
:1036400069625C7372635C73746D333266313078B7
:103650005F7263632E6300000000424208D103E002
:103660000120F449087004E00520F249087000E0E8
:1036700000BF00BF10BD10B504460CB1012C00D135
:1036800005E040F26131AFF25800FEF7A7FAEA48D0
:10369000046010BD10B50446B4F5807F05D0B4F5C4
:1036A000007F02D0B4F5407F00D105E040F27231D6
:1036B000AFF28400FEF792FADE482038006A204319
:1036C000DC492039086210BD10B504460CB1012C4C
:1036D00000D105E04FF46071AFF2AC00FEF77EFA66
:1036E000D5484438046010BD30B5002100220024C4
:1036F0000023D04D203D6D6805F00C0121B1042957
:1037000005D0082926D105E0CC4D056025E0CB4D3C
:10371000056022E0C74D203D6D6805F47012C54D6F
:10372000203D6D6805F48034022505EB92421CB9FA
:10373000C34D554305600CE0BE4D203D6D6805F45A
:1037400000351DB1BE4D5543056002E0BB4D5543EC
:10375000056002E0B94D056000BF00BFB54D203DDA
:103760006D6805F0F0010909B64D6B5C0568DD4038
:103770004560B04D203D6D6805F4E061090AB14D2A
:103780006B5C4568DD408560AA4D203D6D6805F4A1
:103790006051C90AAB4D6B5C4568DD40C560A54D05
:1037A000203D6D6805F44041890BA74D6B5CC568F1
:1037B000B5FBF3F5056130BD70B504460D4640F22A
:1037C000575024EA000008B904B105E040F22B414B
:1037D000AFF2A410FEF702FA0DB1012D00D105E001
:1037E00040F22C41AFF2B810FEF7F8F93DB1914824
:1037F0002038406920438F492039486106E08D48D0
:1038000020384069A0438B492039486170BD70B5AC
:1038100004460D468D48204008B904B105E040F249
:103820004A41AFF2F410FEF7D9F90DB1012D00D1E4
:1038300005E040F24B41AFF20820FEF7CFF93DB171
:103840007C482038806920437A492039886106E025
:10385000784820388069A04376492039886170BD56
:1038600070B504460D467A48204008B904B105E019
:1038700040F26941AFF24820FEF7B0F90DB1012DD9
:1038800000D105E040F26A41AFF25C20FEF7A6F9F4
:103890003DB168482038C069204366492039C86175
:1038A00006E064482038C069A04362492039C861F5
:1038B00070BD70B504460D466448204008B904B197
:1038C00005E040F2A441AFF29820FEF787F90DB170
:1038D000012D00D105E040F2A541AFF2AC20FEF78A
:1038E0007DF93DB153482038C06820435149203903
:1038F000C86006E04F482038C068A0434D492039D1
:10390000C86070BD70B504460D465148204008B9E6
:1039100004B105E040F2C341AFF2EC20FEF75EF9DE
:103920000DB1012D00D105E040F2C441AFF20030ED
:10393000FEF754F93DB13F482038006920433D4926
:103940002039086106E03B4820380069A043394926
:103950002039086170BD10B504460CB1012C00D1AE
:1039600005E04FF49B61AFF23830FEF737F932488B
:103970004038046010BD10B504460CB1012C00D1D4
:1039800005E040F2E541AFF25830FEF727F9314843
:10399000C46410BD10B504463CB1052C05D0042C00
:1039A00003D0062C01D0072C00D105E040F20551D0
:1039B000AFF28430FEF712F91E482038C47110BDF2
:1039C0001C482038406A40F080701A49203948620B
:1039D000704770B504460025012C09D0022C07D091
:1039E000042C05D0082C03D0102C01D0802C00D141
:1039F00005E040F27E51AFF2C830FEF7EFF80D4817
:103A000020388068204008B1012500E000252846C4
:103A100070BD10B5044604F0600008B904B105E0BB
:103A200040F2AB51AFF2F830FEF7D8F80148203839
:103A3000847210BD201002408004424200127A00BD
:103A400000093D0067000020770000200200C0FF51
:103A5000003601810000424210B50446FE4884420F
:103A60000BD0FE48844208D0FD48844205D0FD4872
:103A7000844202D0FC48844200D103E08521FBA0AF
:103A8000FEF7ACF8F448844209D101218803FFF71E
:103A900010FF00214FF48040FFF70BFF32E0EF48AA
:103AA000844209D101214804FFF72CFF00214FF483
:103AB0000030FFF727FF25E0E948844209D10121C2
:103AC0008804FFF71FFF00214FF48020FFF71AFF43
:103AD00018E0E448844209D10121C804FFF712FF2D
:103AE00000214FF40020FFF70DFF0BE0DE48844279
:103AF00008D101210805FFF705FF00214FF48010D0
:103B0000FFF700FF10BD2DE9F04786B005460C46D3
:103B10000026B24600BFB1460027CF4885420BD0F1
:103B2000CE48854208D0CE48854205D0CD48854252
:103B300002D0CD48854200D103E0B821CBA0FEF7EA
:103B40004DF8206820B1D4492068884200D203E0B3
:103B5000B921C6A0FEF742F8A08818B1A088B0F538
:103B6000805F00D103E0BA21C0A0FEF737F8E088FB
:103B700058B1E088B0F5805F07D0E088B0F5005F0D
:103B800003D0E088B0F5405F00D103E0BB21B7A0CF
:103B9000FEF724F8208938B12089B0F5806F03D072
:103BA0002089B0F5C06F00D103E0BC21AFA0FEF7C3
:103BB00015F860894FF6F371084010B9608900B1BB
:103BC00003E0BD21A9A0FEF709F8A08958B1A0899A
:103BD000B0F5807F07D0A089B0F5007F03D0A08921
:103BE000B0F5407F00D103E0BE21A0A0FDF7F6FFB5
:103BF000A08968B19848854205D09848854202D08E
:103C00009748854200D103E0C22198A0FDF7E6FF66
:103C10002F462E8A4CF6FF700640E08806432E821F
:103C2000AE894EF6F3100640A088218908436189C9
:103C300008430643AE81AE8A4FF6FF400640A08996
:103C40000643AE8201A8FFF74FFD8348874202D1A9
:103C5000DDF810A001E0DDF80CA0A88900F4004018
:103C600040B10AEBCA0000EB0A1021684900B0FB22
:103C7000F1F807E00AEBCA0000EB0A10216889009E
:103C8000B0FBF1F86420B8FBF0F0060130096421C4
:103C900001FB1089A88900F4004040B1322000EBFC
:103CA000C900B0FBF1F000F00700064308E0322045
:103CB00000EB09106421B0FBF1F000F00F000643A7
:103CC0002E8106B0BDE8F0874FF416510160002147
:103CD0008180C18001810C21418100218181704757
:103CE00070B505460C4600265B48854205D05B480A
:103CF000854202D05A48854200D104E04FF49971C0
:103D00005AA0FDF76BFF208818B12088B0F5006F2E
:103D100000D104E040F2331154A0FDF75FFF60884A
:103D200018B16088B0F5806F00D104E04FF49A714B
:103D30004EA0FDF753FFA08818B1A088B0F5007F12
:103D400000D104E040F2351148A0FDF747FFE088BC
:103D500018B1E088B0F5807F00D104E04FF49B718A
:103D600042A0FDF73BFF2E8A4FF2FF00064020885D
:103D700061880843A1880843E188084306432E82EE
:103D800070BD0021018041808180C180704770B585
:103D900004460D46304884420BD03048844208D057
:103DA0002F48844205D02F48844202D02E488442B6
:103DB00000D104E04FF4B1712CA0FDF70FFF0DB15D
:103DC000012D00D104E040F2631128A0FDF706FFA9
:103DD00025B1A08940F40050A08104E0A0894DF6EF
:103DE000FF710840A08170BD2DE9F04705460C46E3
:103DF00017464FF00008C246C146002616488542C5
:103E00000BD01648854208D01548854205D0154884
:103E1000854202D01448854200D104E040F2891165
:103E200012A0FDF7DBFE282C3CD040F22770844224
:103E300038D040F22660844234D040F2255084428B
:103E400030D040F2244084422CD040F646008442D8
:103E500028D040F66A1021E00038014000440040BC
:103E600000480040004C0040005000402E2E5C53A3
:103E7000544D3332463130785F46574C69625C733B
:103E800072635C73746D3332663130785F75736161
:103E900072742E630000000021AA4400844201D005
:103EA000602C00D105E04FF4C571AFF24000FDF782
:103EB00095FE0FB1012F00D105E040F28B11AFF25A
:103EC0005400FDF78BFE40F66A1084420FD1F9488A
:103ED000854205D0F848854202D0F848854200D195
:103EE00005E040F28F11AFF27C00FDF777FE2E4621
:103EF000C4F3421804F01F0A012000FA0AF9B8F1CD
:103F0000010F01D10C3605E0B8F1020F01D11036D6
:103F100000E0143627B1306840EA0900306003E061
:103F2000306820EA09003060BDE8F08770B50446CB
:103F30000D461646DF4884420BD0DF48844208D045
:103F4000DE48844205D0DE48844202D0DD48844207
:103F500000D105E040F2C311AFF2F000FDF73EFEE4
:103F60004FF63F70284008B905B105E04FF4E27103
:103F7000AFF20810FDF732FE0EB1012E00D105E0C0
:103F800040F2C511AFF21C10FDF728FE1EB1A08A49
:103F90002843A08202E0A08AA843A08270BD70B529
:103FA00004460D46C34884420BD0C348844208D01F
:103FB000C248844205D0C248844202D0C1488442EB
:103FC00000D105E040F2DF11AFF26010FDF706FE10
:103FD0000F2D00DC05E04FF4F071AFF27010FDF72B
:103FE000FDFD208A4FF6F07108402082208A284388
:103FF000208270BD70B504460D46AE4884420BD099
:10400000AD48844208D0AD48844205D0AC488442D3
:1040100002D0AC48844200D105E04FF4FB71AFF20E
:10402000B410FDF7DBFD15B1B5F5006F00D105E06B
:1040300040F2F711AFF2CC10FDF7D0FDA0894FF29E
:10404000FF710840A081A0892843A08170BD70B590
:1040500004460D46974884420BD09748844208D0C6
:104060009648844205D09648844202D095488442BE
:1040700000D105E040F20921AFF21020FDF7AEFDBE
:104080000DB1012D00D105E040F20A21AFF224204C
:10409000FDF7A4FD25B1A08940F00200A08104E055
:1040A000A0894FF6FD710840A08170BD70B504462F
:1040B0000D46804884420BD07F48844208D07F4818
:1040C000844205D07E48844202D07E48844200D19A
:1040D00005E040F22621AFF26C20FDF77FFD0DB127
:1040E000202D00D105E040F22721AFF28020FDF71E
:1040F00075FD208A4FF6DF7108402082208A284310
:10410000208270BD70B504460D466A4884420BD0CB
:104110006948844208D06948844205D0684884428E
:1041200002D06848844200D105E040F23921AFF264
:10413000C420FDF753FD0DB1012D00D105E040F283
:104140003A21AFF2D820FDF749FD25B1208A40F48D
:104150008040208204E0208A4BF6FF7108402082D4
:1041600070BD70B504460D46524884420BD052488B
:10417000844208D05148844205D05148844202D03C
:104180005048844200D105E040F25321AFF2243080
:10419000FDF724FDB5F5007F00DA05E04FF4157159
:1041A000AFF23830FDF71AFDC5F30800A08070BDEE
:1041B00010B504463F4884420BD03F48844208D0A3
:1041C0003E48844205D03E48844202D03D48844265
:1041D00000D105E04FF41971AFF27030FDF7FEFC2D
:1041E000A088C0F3080010BD10B5044631488442D1
:1041F0000BD03148844208D03048844205D0304842
:10420000844202D02F48844200D105E04FF41D7152
:10421000AFF2A830FDF7E2FCA08940F00100A081D8
:1042200010BD70B504460D462248844205D0224890
:10423000844202D02148844200D105E04FF421712C
:10424000AFF2D830FDF7CAFC208BC0B22083208BA0
:1042500040EA0520208370BD70B504460D46154820
:1042600084420BD01448844208D01448844205D0BC
:104270001348844202D01348844200D105E04FF431
:104280002671AFF21840FDF7A9FC208B00F47F40A7
:104290002083208B2843208370BD70B504460D46D3
:1042A0000448844205D00448844202D00348844232
:1042B0000AD10FE0003801400044004000480040AF
:1042C000004C00400050004040F2AB21AFF264408F
:1042D000FDF784FC0DB1012D00D105E04FF42B71E9
:1042E000AFF27840FDF77AFC25B1A08A40F02000BB
:1042F000A08204E0A08A4FF6DF710840A08270BD62
:1043000070B504460D46F948844205D0F848844209
:1043100002D0F848844200D105E04FF43171AFF289
:10432000B440FDF75BFC0DB1012D00D105E040F27A
:10433000C521AFF2C840FDF751FC25B1A08A40F07D
:104340001000A08204E0A08A4FF6EF710840A0821E
:1043500070BD70B504460D46E44884420BD0E44875
:10436000844208D0E348844205D0E348844202D026
:10437000E248844200D105E040F2DE21AFF2145061
:10438000FDF72CFC0DB1012D00D105E040F2DF213D
:10439000AFF22850FDF722FC25B1A08A40F00800BA
:1043A000A08204E0A08A4FF6F7710840A08270BD99
:1043B00070B504460D46CD4884420BD0CC488442AB
:1043C00008D0CC48844205D0CB48844202D0CB48A8
:1043D000844200D105E040F2FD21AFF27050FDF7BC
:1043E000FDFB0DB1012D00D105E040F2FE21AFF241
:1043F0008450FDF7F3FB25B1A08940F40040A08173
:1044000003E0A089C0F30E00A08170BD70B5044622
:104410000D46B64884420BD0B548844208D0B54812
:10442000844205D0B448844202D0B448844200D1CA
:1044300005E04FF44671AFF2CC50FDF7CFFB0DB164
:10444000012D00D105E040F21931AFF2E050FDF747
:10445000C5FB25B1A08A40F40060A08204E0A08AD8
:104460004FF2FF710840A08270BD70B504460D4642
:104470009E4884420BD09E48844208D09D48844286
:1044800005D09D48844202D09C48844200D105E07A
:1044900040F23531AFF22C60FDF7A0FB042D00D0C7
:1044A00005B905E040F23631AFF24060FDF796FB0A
:1044B000A08A4FF6FB710840A082A08A2843A08200
:1044C00070BD70B504460D46884884420BD08848BC
:1044D000844208D08748844205D08748844202D06D
:1044E0008648844200D105E04FF45271AFF28460F7
:1044F000FDF774FB0DB1012D00D105E040F249310B
:10450000AFF29860FDF76AFB25B1A08A40F0020087
:10451000A08204E0A08A4FF6FD710840A08270BD21
:1045200070B505460C460026704885420BD0704891
:10453000854208D06F48854205D06F48854202D039
:104540006E48854200D105E040F26E31AFF2E46082
:10455000FDF744FB012C13D0802C11D0402C0FD040
:10456000202C0DD0102C0BD0B4F5807F08D0B4F5E2
:10457000007F05D0082C03D0042C01D0022C00D1E0
:1045800005E040F26F31AFF21C70FDF727FBB4F588
:10459000007F0FD15548854205D05548854202D04D
:1045A0005448854200D105E040F27331AFF24470C7
:1045B000FDF714FB2888204008B1012600E0002602
:1045C000304670BD70B504460D46484884420BD055
:1045D0004748844208D04748844205D04648844230
:1045E00002D04648844200D105E040F29E31AFF24D
:1045F0008470FDF7F3FA4FF69F40284008B905B1E3
:1046000005E040F29F31AFF29C70FDF7E7FA05F448
:104610000070B0F5007F0FD13448844205D0344893
:10462000844202D03348844200D105E040F2A331F5
:10463000AFF2C870FDF7D2FAE843208070BD2DE9D3
:10464000F04705460C4600270026B046B1462748ED
:1046500085420BD02648854208D02648854205D0A1
:104660002548854202D02548854200D105E040F228
:10467000C131AFF60800FDF7B1FA282C20D040F286
:10468000277084421CD040F22660844218D040F249
:104690002550844214D040F22440844210D040F689
:1046A000460084420CD040F66A10844208D0B4F52B
:1046B000587F05D0B4F5187F02D0B4F5B07F00D193
:1046C00005E040F2C231AFF65C00FDF787FA40F634
:1046D0006A1084421AD10548854205D004488542B3
:1046E00002D0044885420BD110E0000000380140A0
:1046F0000044004000480040004C00400050004092
:1047000040F2C631AFF69C00FDF768FAC4F34218D8
:1047100004F01F06012000FA06F6B8F1010F02D1DD
:10472000A889064007E0B8F1020F02D1288A0640A6
:1047300001E0A88A06402712012000FA07F728881E
:1047400007401EB117B14FF0010901E04FF0000919
:104750004846BDE8F0872DE9F04104460D460026A5
:104760000027244884420BD02348844208D02348A1
:10477000844205D02248844202D02248844200D19B
:1047800005E040F20A41AFF61C10FDF727FA40F2AF
:10479000266085420BD040F22550854207D040F676
:1047A0004600854203D040F66A10854200D105E0FC
:1047B00040F20B41AFF64C10FDF710FA40F66A10CC
:1047C00085420FD10B48844205D00B48844202D069
:1047D0000A48844200D105E040F20F41AFF6741060
:1047E000FDF7FCF92E120120B04087B2F84320807B
:1047F000BDE8F0810038014000440040004800401E
:10480000004C00400050004010B50446F848844277
:104810002FD0B4F1804F2CD0F648844229D0F648EE
:10482000844226D0F548844223D0F548844220D0E3
:10483000F44884421DD0F44884421AD0F34884429C
:1048400017D0F348844214D0F248844211D0F24881
:1048500084420ED0F14884420BD0F148844208D003
:10486000F048844205D0F048844202D0EF488442A8
:1048700000D103E07D21EEA0FDF7B0F9DC488442D1
:1048800008D10121C014FFF714F80021E014FFF74C
:1048900010F8C4E0B4F1804F08D101210846FFF7B9
:1048A00031F800210120FFF72DF8B8E0D14884420B
:1048B00008D101210220FFF725F800210220FFF78F
:1048C00021F8ACE0CC48844208D101210420FFF754
:1048D00019F800210420FFF715F8A0E0C74884422A
:1048E00008D101210820FFF70DF800210820FFF76B
:1048F00009F894E0C248844208D101211020FFF752
:1049000001F800211020FEF7FDFF88E0BD48844239
:1049100008D101212020FEF7F5FF00212020FEF71D
:10492000F1FF7CE0B848844208D101214014FEF731
:10493000C0FF00216014FEF7BCFF70E0B348844262
:1049400009D10121C804FEF7B4FF00214FF4002073
:10495000FEF7AFFF63E0AE48844209D101210805AC
:10496000FEF7A7FF00214FF48010FEF7A2FF56E0EC
:10497000A848844209D101214805FEF79AFF002189
:104980004FF40010FEF795FF49E0A348844208D198
:1049900001214020FEF7B6FF00214020FEF7B2FFC4
:1049A0003DE09E48844208D101218020FEF7AAFF05
:1049B00000218020FEF7A6FF31E09948844208D10B
:1049C00001218015FEF79EFF0021A015FEF79AFF3A
:1049D00025E09448844209D101210804FEF769FFCB
:1049E00000214FF48030FEF764FF18E08E488442C7
:1049F00009D101214804FEF75CFF00214FF400308B
:104A0000FEF757FF0BE08948844208D10121880452
:104A1000FEF74FFF00214FF48020FEF74AFF10BD44
:104A200070B504460D460026714884422FD0B4F17B
:104A3000804F2CD06F48844229D06F48844226D0C2
:104A40006E48844223D06E48844220D06D48844210
:104A50001DD06D4884421AD06C48844217D06C48EF
:104A6000844214D06B48844211D06B4884420ED0EB
:104A70006A4884420BD06A48844208D0694884421C
:104A800005D06948844202D06848844200D103E0DE
:104A9000E72167A0FDF7A2F8688858B16888102858
:104AA00008D06888202805D06888402802D0688807
:104AB000602800D103E0E8215DA0FDF78FF8E888C9
:104AC00038B1E888B0F5807F03D0E888B0F5007F82
:104AD00000D103E0E92156A0FDF780F8268844487C
:104AE00084420ED0484884420BD0B4F1804F08D0A5
:104AF0004048844205D04048844202D03F48844226
:104B000004D14FF68F700640688806433C488442C3
:104B100007D03C48844204D04FF6FF400640E88866
:104B200006432680A888A0852888208530488442AE
:104B30000BD03548844208D03A48844205D03A48E0
:104B4000844202D03948844201D1287A208601204B
:104B5000A08270BD2DE9F04104460D464FF00008DB
:104B6000002600272248844229D0B4F1804F26D065
:104B70002048844223D02048844220D01F488442C9
:104B80001DD0214884421AD02048844217D02048A2
:104B9000844214D01F48844211D01F4884420ED052
:104BA0001E4884420BD01E48844208D01D488442CF
:104BB00005D01D48844202D01C48844200D104E044
:104BC0004FF48E711AA0FDF709F8288870B1288873
:104BD00010280BD02888202808D02888302805D015
:104BE0002888602802D02888702835D13AE0000053
:104BF000002C01400004004000080040000C004070
:104C0000001000400014004000340140004C0140FE
:104C1000005001400054014000180040001C0040BA
:104C20000020004000400140004401400048014095
:104C30002E2E5C53544D3332463130785F46574CFC
:104C400069625C7372635C73746D333266313078A1
:104C50005F74696D2E63000040F21D11AFF23000E9
:104C6000FCF7BCFF688810B16888012800D105E016
:104C70004FF48F71AFF24800FCF7B0FF288910B1F4
:104C80002889022800D105E040F21F11AFF2600030
:104C9000FCF7A4FF208C4FF6FE7108402084268C80
:104CA000A788B4F818804FF68F7008EA0008881EAD
:104CB00008EA0008288840EA0808481E06402889B3
:104CC000064368880643FE4884420BD0FD48844270
:104CD00008D0FD48844205D0FC48844202D0FC48FC
:104CE000844245D1A88810B1A888042800D105E0E5
:104CF0004FF49E71AFF2C800FCF770FF688910B1E5
:104D00006889082800D105E040F23D11AFF2E000CB
:104D1000FCF764FFE889B0F5007F01D0E88900B9AD
:104D200005E04FF49F71AFF2F800FCF757FFA88938
:104D3000B0F5807F01D0A88900B905E040F23F11AD
:104D4000AFF21410FCF74AFF4FF6F770064068897F
:104D500006434FF6FB700640A88806434FF6FF60F7
:104D600007404FF6FF500740A8890743E8890743EB
:104D7000A780A4F81880E888A0862684BDE8F08182
:104D80002DE9F04105460C464FF0000800260027AB
:104D9000CB48854217D0B5F1804F14D0CD4885421D
:104DA00011D0CD4885420ED0CC4885420BD0C548A5
:104DB000854208D0CA48854205D0CA48854202D0FB
:104DC000C148854200D105E040F26F11AFF2A0105A
:104DD000FCF704FF208870B1208810280BD02088B1
:104DE000202808D02088302805D02088602802D0CC
:104DF0002088702800D105E04FF4B871AFF2D010D0
:104E0000FCF7ECFE608810B16088012800D105E055
:104E100040F27111AFF2E810FCF7E0FE208910B10A
:104E20002089022800D105E04FF4B971AFF20020CB
:104E3000FCF7D4FE288C4FF6EF71084028842E8CA6
:104E4000AF88B5F8188048F6FF7008EA00084FF6FA
:104E5000FF4008EA000820884FF6FF7101EA0020B1
:104E600040EA08084FF6DF700640208901EA00108A
:104E70000643608801EA001006439148854202D04B
:104E8000904885424FD1A08810B1A088042800D155
:104E900005E040F28F11AFF26820FCF79FFE6089B9
:104EA00010B16089082800D105E04FF4C871AFF255
:104EB0008020FCF793FEE089B0F5007F01D0E08907
:104EC00000B905E040F29111AFF29C20FCF786FE9C
:104ED000A089B0F5807F01D0A08900B905E04FF42A
:104EE000C971AFF2B420FCF779FE4FF67F7006402F
:104EF00060894FF6FF7101EA001006434FF6BF705C
:104F00000640A08801EA001006434FF6FF30074034
:104F10004FF2FF700740A08901EA80000743E08953
:104F200001EA80000743AF80A5F81880E088288751
:104F30002E84BDE8F0812DE9F04105460C464FF086
:104F40000008002600275E4885420ED0B5F1804F4C
:104F50000BD06048854208D05F48854205D05F4845
:104F6000854202D05748854200D105E040F2C11188
:104F7000AFF24430FCF732FE208870B12088102850
:104F80000BD02088202808D02088302805D0208801
:104F9000602802D02088702800D105E04FF4E1712C
:104FA000AFF27430FCF71AFE608810B160880128F7
:104FB00000D105E040F2C311AFF28C30FCF70EFED9
:104FC000208910B12089022800D105E04FF4E27158
:104FD000AFF2A430FCF702FE288C4FF6FF610840C8
:104FE00028842E8CAF88B5F81C804FF68F7008EAA5
:104FF00000084FF6FC7008EA0008208840EA08081C
:105000004FF6FF50064020894FF6FF7101EA00205D
:105010000643608801EA002006432948854202D001
:105020002848854264D1A08810B1A088042800D106
:1050300005E04FF4F071AFF20840FCF7CFFD608956
:1050400010B16089082800D105E040F2E111AFF20B
:105050002040FCF7C3FDE089B0F5007F01D0E08976
:1050600000B905E04FF4F171AFF23C40FCF7B6FD3A
:10507000A089B0F5807F01D0A08900B905E040F299
:10508000E311AFF25440FCF7A9FD4FF2FF70064068
:1050900060894FF6FF7101EA002006434FF6FF30AA
:1050A0000640A08801EA002006434EF6FF70074044
:1050B0004DF6FF700740A08901EA0010074313E096
:1050C000002C0140003401400040014000440140F8
:1050D000004801400004004000080040000C00406F
:1050E000004C014000180040E08901EA001007432D
:1050F000AF80A5F81C80E088A8872E84BDE8F081E9
:105100002DE9F04104460D4600270026B046F84838
:1051100084420ED0B4F1804F0BD0F648844208D0C0
:10512000F548844205D0F548844202D0F4488442D0
:1051300000D105E04FF40471AFF20C50FCF74EFDC6
:10514000288870B1288810280BD02888202808D0FB
:105150002888302805D02888602802D02888702820
:1051600000D105E040F21121AFF23C50FCF736FDD2
:10517000688810B16888012800D105E040F212214A
:10518000AFF25450FCF72AFD288910B12889022873
:1051900000D105E040F21321AFF26C50FCF71EFD88
:1051A000208C4EF6FF7108402084268CB4F80480D1
:1051B000A78B48F6FF7007404FF6FF40074028884E
:1051C0004FF6FF7101EA002007434DF6FF700640DD
:1051D000288901EA00300643688801EA0030064366
:1051E000C348844202D0C648844217D1A889B0F58A
:1051F000807F01D0A88900B905E04FF40C71AFF2AF
:10520000D050FCF7EBFC4BF6FF7008EA0008A889C9
:105210004FF6FF7101EA801040EA0808A4F8048004
:10522000A783E888A4F840002684BDE8F08170B523
:1052300004460D46AE4884420ED0B4F1804F0BD0E8
:10524000AC48844208D0AC48844205D0AB48844284
:1052500002D0AB48844200D105E040F67611AFF2AF
:105260003060FCF7BBFC2DB1042D03D0082D01D01C
:105270000C2D00D105E040F67711AFF24C60FCF741
:10528000ADFCA08B4FF2FF310840A083A08B4FF6FE
:10529000FF7101EA05210843A08370BDF0B50C46FB
:1052A0001546002200210026078C4EF6FF7C07EAF7
:1052B0000C070784828B018C4FF6FF7707EA0436D0
:1052C00040F6FF473A404FF6FF7707EA05273A4393
:1052D0004FF6FF7707EA03373A43854FB8420ED0BF
:1052E000874FB8420BD0B0F1804F08D0814FB84201
:1052F00005D0814FB84202D0804FB84206D14DF65A
:10530000FF77394046F48057394305E047F6FF57A9
:10531000394044F48057394382830184F0BD70B52D
:1053200004460D46724884420ED0B4F1804F0BD033
:105330007048844208D07048844205D06F48844247
:1053400002D06F48844200D105E04FF41661AFF2FD
:105350002070FCF743FC2DB1042D03D0082D01D0A3
:105360000C2D00D105E040F66111AFF23C70FCF766
:1053700035FCA08B4FF6F3710840A083A08B284327
:10538000A08370BDF0B50C46154600220021002612
:10539000078C4FF6FF6C07EA0C070784828B018CA1
:1053A0004FF6FF7707EA04264FF60C773A404FF6A0
:1053B000FF7707EA03172F433A434D4FB8420ED009
:1053C0004F4FB8420BD0B0F1804F08D0494FB84290
:1053D00005D0494FB84202D0484FB84206D14FF6E7
:1053E000FF57394046F48077394305E04FF2FF57C5
:1053F000394044F48077394382830184F0BD70B52D
:1054000004460D463A48844217D0B4F1804F14D078
:105410003848844211D0384884420ED037488442FC
:105420000BD03748844208D03648844205D03648ED
:10543000844202D03548844200D105E040F64A114A
:10544000AFF61400FCF7CAFB2DB1042D03D0082DD4
:1054500001D00C2D00D105E040F64B11AFF6300025
:10546000FCF7BCFB208B4FF2FF3108402083208BE0
:105470004FF6FF7101EA05210843208370BDF0B5A6
:105480000C461546002200210026078C4FF6EF7CC3
:1054900007EA0C070784028B018C4FF6FF7707EAB7
:1054A000041640F6FF473A404FF6FF7707EA033706
:1054B0003A434FF6FF7707EA05273A430C4FB842C5
:1054C0000ED00F4FB8420BD0B0F1804F08D0094F2B
:1054D000B84205D0084FB84202D0084FB84217D1A1
:1054E0004FF6DF77394046F01007394316E00000E9
:1054F000002C01400004004000080040000C004067
:1055000000340140004C01400018004000400140C0
:105510004FF65F77394044F0100739430283018426
:10552000F0BD70B504460D46FB48844229D0B4F165
:10553000804F26D0F948844223D0F948844220D0B5
:10554000F84884421DD0F84884421AD0F748844273
:1055500017D0F748844214D0F648844211D0F64858
:1055600084420ED0F54884420BD0F548844208D0DE
:10557000F448844205D0F448844202D0F34884427F
:1055800000D105E040F63411AFF65C10FCF726FBC5
:105590002DB1042D03D0082D01D00C2D00D105E034
:1055A00040F63511AFF67810FCF718FB208B4FF65C
:1055B000F37108402083208B2843208370BDF0B511
:1055C0000C46154600220021068C4FF6FE773E4021
:1055D0000684028B018C4FF60C7632407E1C06EA64
:1055E00003162E433243CC4EB0420ED0CE4EB042C4
:1055F0000BD0B0F1804F08D0C84EB04205D0C84E95
:10560000B04202D0C74EB04206D14FF6FD763140CF
:1056100044F00106314305E04FF6F576314044F0A1
:105620000106314302830184F0BD70B504460D4686
:10563000288840B12888042805D02888082802D066
:1056400028880C2800D105E040F24E21AFF620203A
:10565000FCF7C4FAA888012805D0A888022802D03F
:10566000A888032800D105E040F24F21AFF6402082
:10567000FCF7B4FAE88840B1E888042805D0E88847
:10568000082802D0E8880C2800D105E04FF41471F6
:10569000AFF66420FCF7A2FA28890F2800DC05E0A9
:1056A00040F25121AFF67820FCF798FA9A488442EC
:1056B0000ED09D4884420BD0B4F1804F08D097485B
:1056C000844205D09648844202D0964884420CD148
:1056D000688810B16888022800D115E040F2562190
:1056E000AFF6B420FCF77AFA0EE0688828B1688833
:1056F000022802D068880A2800D105E040F25A2129
:10570000AFF6D420FCF76AFA2888E0BB82488442CE
:1057100029D0B4F1804F26D08048844223D08048DD
:10572000844220D07F4884421DD07F4884421AD0D2
:105730007E48844217D07E48844214D07D488442FB
:1057400011D07D4884420ED07C4884420BD07C48E6
:10575000844208D07B48844205D07B48844202D0F2
:105760007A48844200D105E040F25E21AFF6403035
:10577000FCF734FA2B89AA8869882046FFF71FFFB7
:10578000E988204600E002E0FFF7CBFE79E02888B8
:1057900004282CD16048844217D0B4F1804F14D033
:1057A0005E48844211D05E4884420ED05D488442F7
:1057B0000BD05D48844208D05C48844205D05E48E6
:1057C000844202D05F48844200D105E04FF41A7150
:1057D000AFF6A430FCF702FA2B89AA886988204624
:1057E000FFF74DFEE9882046FFF709FE49E02888CB
:1057F000082823D1484884420ED0B4F1804F0BD002
:105800004648844208D04648844205D045488442F0
:1058100002D04548844200D105E040F27221AFF643
:10582000F030FCF7DBF92B89AA8869882046FFF75E
:10583000A9FDE9882046FFF772FD22E03648844240
:105840000ED0B4F1804F0BD03448844208D0344895
:10585000844205D03348844202D03348844200D188
:1058600005E04FF41F71AFF63840FCF7B7F92B890C
:10587000AA8869882046FFF711FDE9882046FFF7CE
:10588000D6FC70BD2DE9F04105460C4600260127E7
:105890002148854217D0B5F1804F14D01F4885426A
:1058A00011D01F4885420ED01E4885420BD01E489D
:1058B000854208D01D48854205D01F48854202D048
:1058C0002048854200D105E040F29321AFF6A04088
:1058D000FCF784F9608808B9022600E00026A08859
:1058E000012801D1022700E00127208880BB2389FD
:1058F000A28861882846FFF762FEE1882846FFF704
:1059000010FE23893A4631462846FFF7B8FDE18864
:105910002846FFF774FD30E0002C014000040040F1
:1059200000080040000C004000340140004C0140E1
:10593000005001400054014000180040001C00408D
:105940000020004000400140004401400048014068
:10595000FFE72389A28861882846FFF790FDE18848
:105960002846FFF74CFD23893A4631462846FFF783
:1059700026FEE1882846FFF7D4FDBDE8F08170B52A
:1059800005460C46FE4885420BD0FE48854208D0AD
:10599000FD48854205D0FD48854202D0FC4885423D
:1059A00000D105E040F2CB21AFF67C50FCF716F9B0
:1059B0002088B0F5006F01D0208800B905E04FF4D1
:1059C0003371AFF69450FCF709F96088B0F5806F39
:1059D00001D0608800B905E040F2CD21AFF6B050AB
:1059E000FCF7FCF8A08858B1A088B0F5807F07D0FC
:1059F000A088B0F5007F03D0A088B0F5407F00D12B
:105A000005E040F2CE21AFF6D850FCF7E7F8208948
:105A1000B0F5805F01D0208900B905E040F2CF21C8
:105A2000AFF6F450FCF7DAF8608918B16089B0F588
:105A3000005F00D105E04FF43471AFF60C60FCF765
:105A4000CDF8A089B0F5804F01D0A08900B905E05C
:105A500040F2D121AFF62860FCF7C0F820886188B9
:105A60000843A1880843E1880843218908436189E4
:105A70000843A1890843A5F8440070BD4FF6FF71A3
:105A8000818000210180C180418001727047002126
:105A9000018041808180C180018141818181C181FA
:105AA0007047002101804180012181800021C18057
:105AB000018170470021018041808180C180018186
:105AC00041818181704770B504460D46AC488442DF
:105AD0002FD0B4F1804F2CD0AE48844229D0AE48AC
